:020000040800F2
:10000000F01000209D0100083F3F000873350008F4
:100010003D3F000801090008AD4D00080000000048
:10002000000000000000000000000000C1460008C1
:100030001309000800000000F1440008C34600084E
:10004000B7010008B7010008B7010008B7010008B0
:10005000B7010008B7010008B7010008B7010008A0
:10006000B7010008B7010008B7010008B701000890
:10007000B7010008B7010008B7010008B701000880
:10008000B7010008B7010008B7010008B701000870
:10009000B7010008B7010008B7010008B701000860
:1000A000B7010008B7010008B7010008B701000850
:1000B00069470008B701000875470008B701000844
:1000C000B7010008B7010008B7010008B701000830
:1000D000B7010008A14D0008B7010008B7010008EA
:1000E000B7010008B7010008B7010008B701000810
:1000F000B7010008B7010008B7010008B701000800
:10010000B7010008B701000881470008B7010008DF
:10011000B7010008B70100088D470008994700089B
:10012000B7010008B7010008B7010008B7010008CF
:10013000B7010008B7010008B7010008B7010008BF
:10014000B7010008B7010008B7010008B7010008AF
:10015000B7010008B7010008B7010008B70100089F
:10016000B7010008B7010008B7010008B70100088F
:10017000B7010008B7010008B7010008000000003F
:10018000B7010008B7010008DFF80CD000F06AFBE7
:100190000048004749680008F010002006488047E2
:1001A00006480047FEE7FEE7FEE7FEE7FEE7FEE75C
:1001B000FEE7FEE7FEE7FEE7594700088901000871
:1001C0002DE9F05F0546002092469B46884606468C
:1001D000814640241BE0284641464746224600F01F
:1001E00058FA53465A46C01A914110D31146184640
:1001F000224600F03FFA2D1A67EB01084F462246CF
:100200000120002100F036FA17EB00094E41201EB4
:10021000A4F10104DFDC484631462A464346BDE8E6
:10022000F09FD2B201E000F8012B491EFBD27047CB
:100230000022F6E710B513460A4604461946FFF7B2
:10024000F0FF204610BD2DE9FE4F804681EA0300F5
:10025000C00F0C46009021F0004123F00045B8EBA0
:100260000200A94105D24046214690461C460B4655
:10027000024623F00040104347D0270DC7F30A0081
:10028000C3F30A510290401A019040286BDAC3F37D
:10029000130040F4801B0098924620B10023D2EB5B
:1002A000030A63EB0B0B01985946C0F1400250461C
:1002B00000F0E0F906460D4650465946019A00F016
:1002C000F8F910EB08006141002487EA115284EA32
:1002D000E7731A4340D0009A62B3019A012A4FEAA9
:1002E000075215DC001B61EB02014FF0004202EAED
:1002F0000752CDE90042001C41F5801132462B46E1
:1003000000F0F8F903B0BDE8F08F40462146F9E768
:10031000001B61EB0201001C41F5801300185B41DA
:100320002018A2F5001747EB030140EAD570B61973
:100330006D4111E06D084FEA360645EAC0754FEA97
:100340000752001B61EB0201001C41F580114908B6
:100350004FEA30000019514132462B4603B0BDE848
:10036000F04F00F0B8B90098012240000023D0EB14
:10037000020263EBE073009821464FEAE074B8EBA9
:10038000000061EB0401E9E783F000435BE781F0E3
:10039000004158E72DE9FE4F81EA030404F00044D0
:1003A00021F0004100944FF0000B23F0004350EA8D
:1003B00001045ED052EA03045BD0C3F30A54C1F3D4
:1003C0000A552C44A4F2F3340194A0FB0254C1F367
:1003D000130141F48011C3F3130343F4801301FBB1
:1003E000024400FB034E840A970A44EA815447EA18
:1003F0008357A4FB076802958D0A05FB07854FEA22
:10040000932C04FB0C542705029D4FEA065847EA3B
:100410001637B5EB08056EEB070C870E920E47EA10
:10042000811742EA8312A7FB0201B6EB0B0164EBD2
:1004300000042B0D43EA0C335E1844EB1C50DA46E3
:100440005146E7FB0201C5F313044FEA0B3343EABD
:1004500014534FEA0432019C43EA0603A4F10C044E
:100460000294009CCDE900B400F044F903B0BDE86B
:10047000F08F00200146F9E72DE9F04D81EA0304F1
:1004800004F0004B21F0004514464FF0000A23F021
:10049000004150EA050220D054EA01021DD0C5F304
:1004A0000A570246C5F31303C1F31300C1F30A56FA
:1004B00040F4801543F48013A7EB0608101BD646C2
:1004C00008F2FD3873EB050002D308F1010801E0E2
:1004D00092185B41B8F1000F03DA00200146BDE835
:1004E000F08D00204FF48011064684460EE0171B65
:1004F00073EB050705D3121B63EB050306434CEAB8
:10050000010C49084FEA300092185B4150EA01079C
:10051000EDD152EA030012D082EA040083EA050119
:10052000084305D0101BAB4106D20122002306E090
:1005300000224FF0004302E06FF0010253101AEB6B
:1005400006004CEB085110EB0A0041EB0B01BDE833
:10055000F04D00F0C0B80EB5C10F80EAE07008445D
:10056000CA07002140F233438DE80E000A460B46CD
:1005700000F0C0F803B000BD70B5C1F30A5201F03D
:1005800000450024C1F3130140F2FF3341F4801110
:100590009A4201DA002070BD40F233439A42A2F23F
:1005A000334203DC524200F074F800E090402C43E8
:1005B000F1D0404270BDC1F30A5210B5C1F313012E
:1005C00040F2FF3341F480119A4201DA002010BD5D
:1005D00040F233439A42A2F2334203DC524200F02B
:1005E00058F810BD904010BD30B5041E71F10004E4
:1005F00004DB4FF00044404264EB0101141E73F130
:10060000000405DB1C464FF00043524263EB040339
:100610008B4208BF824230BD30B5041E71F1000428
:1006200004DB4FF00044404264EB0101141E73F1FF
:10063000000405DB1C464FF00043524263EB040309
:10064000994208BF904230BD30B50B4601460020AC
:100650002022012409E021FA02F59D4205D303FA84
:1006600002F5491B04FA02F52844151EA2F1010205
:10067000F1DC30BD202A04DB203A00FA02F1002030
:1006800070479140C2F1200320FA03F319439040D0
:100690007047202A04DB203A21FA02F0002170473B
:1006A00021FA02F3D040C2F12002914008431946DA
:1006B0007047202A06DBCB17203A41FA02F043EAC2
:1006C000E07306E041FA02F3D040C2F1200291400B
:1006D00008431946704710B5141E73F1000408DA78
:1006E000401C41F1000192185B411A4301D120F0F6
:1006F000010010BD2DE9F04D92469B4611B1B1FAB3
:1007000081F202E0B0FA80F220329046FFF7B2FFA9
:1007100004460F4640EA0A0041EA0B0153465A4696
:10072000084313D0114653EA010019D0C8F1400222
:100730005046FFF7AEFF05460E4650465946424624
:10074000FFF798FF084305D0012004E02046394612
:10075000BDE8F08D0020054346EAE0762C433743A0
:100760000A986305E40AA0EB08000022FD0A44EAA7
:1007700047540A3002D500200146E9E70105101967
:100780006941DDE9084500196941BDE8F04DA2E77E
:100790002DE9F04D00231A461B1A8A4103DB002085
:1007A0000146BDE8F08DC1F30A52C1F3130141F4D3
:1007B00080154FF0000BD10702D100186D41521E79
:1007C0000027044640F2FF11384601EB620A3E461C
:1007D0008046024600204FF48011FFF75AFFC219ED
:1007E0007141BB1846EB0100B4EB030C75EB000C38
:1007F00004D3E41A65EB000517460E46241908F1E8
:1008000001006D4180463428E3DDF91946EB06000E
:10081000091BA84103D24FF0FF32134601E000222A
:1008200013461BEB070046EB0A51BDE8F04DFFF7FE
:1008300052BFC1F30A52C1F3130140F2FF3341F436
:1008400080119A4202DA00200146704740F2334399
:100850009A42A2F2334202DC5242FFF71ABFFFF77C
:1008600009BF0000064C074D06E0E06840F00103B8
:1008700094E8070098471034AC42F6D3FFF788FCA1
:10088000307C0008507C00080EB540F233410291E4
:100890000021CDE900110A460B46FFF72BFF03B0FC
:1008A00000BD70B58C1810F8015B15F0070301D17D
:1008B00010F8013B2A1106D110F8012B03E010F8C3
:1008C000016B01F8016B5B1EF9D12B0705D40023E6
:1008D000521E0DD401F8013BFAE710F8013BCB1A88
:1008E000921C03E013F8015B01F8015B521EF9D57D
:1008F000A142D8D3002070BD002800DC40427047E0
:10090000FEE703E00721491EC9B2FCD2401EF9D21E
:100910007047704772B6FEE72DE9F0410446876DD7
:1009200000F066F9064694F835000025022806D046
:100930008020606584F834500120BDE8F081206893
:10094000016821F0160101602068416921F08001F1
:100950004161206C08B9A06C20B12068016821F0C9
:10096000080101602068016821F0010101600CE0CC
:1009700000F03EF9801B052807D920206065032080
:1009800084F8350084F83450D7E720680068C00741
:10099000EED194F85C103F208840B860012084F8C4
:1009A000350084F834500020C7E790F8351002294C
:1009B00003D08021416501207047052180F8351062
:1009C0000068016821F0010101600020704700000B
:1009D00070B5044600F00CF90546601C02D00448CE
:1009E0000078044400F004F9401BA042FAD370BD23
:1009F000B80100202DE9F84FDFF8BCA10022012545
:100A000003264FF00F090AF1040BAAF1040E00BFF0
:100A10000B6805FA02F42340A34270D10F7907F066
:100A20000307012F01D0022F16D187684FEA420831
:100A300006FA08FC27EA0C07D1F80CC00CFA08FCEF
:100A40004CEA070CC0F808C04768A7430C79C4F308
:100A5000001494403C4344600C79E443A4070AD05A
:100A6000C4684FEA420C06FA0CF7BC438F6807FAD9
:100A70000CF72743C7600C7904F00304022C12D151
:100A8000D40800EB840CDCF820405707FF0E09FA6D
:100A900007F824EA0804D1F8108008FA07F848EAB1
:100AA0000408CCF8208004684FEA420C06FA0CF7E0
:100AB000BC430F7907F0030707FA0CF727430760D9
:100AC0004C6814F4403F70D03C4C276847F4804792
:100AD0002760246822F0030704F480440094384C13
:100AE00007EB040CDCF8084897074FEA177809FA77
:100AF00008F7BC43334FB84202D1002724E054E04A
:100B0000314FB84201D101271EE0304FB84201D128
:100B1000022719E02E4FB84201D1032714E02D4FD0
:100B2000B84201D104270FE02B4FB84201D105276D
:100B30000AE02A4FB84201D1062705E0284FB84203
:100B400001D1072700E0082707FA08F72743CCF868
:100B50000878DAF800405746D1F804C09C435FEAB1
:100B6000CC2C00D51C433C60DBF800405F46D1F83C
:100B700004C09C435FEA8C2C00D51C433C60DEF82B
:100B800000407746D1F804C09C435FEA8C3C00D516
:100B90001C433C60084F083F3C68D1F804C09C43AC
:100BA0005FEACC3C00D51C433C60521C102AFFF489
:100BB0002FAFBDE8F88F0000083C014044380240E8
:100BC00000300140000002400004024000080240E2
:100BD000000C0240001002400014024000180240C5
:100BE000001C02400AB1816170470904FBE7000064
:100BF0000148806870470000B801002070B504000B
:100C000025D094F83D00002520B984F83C502046BA
:100C100000F04EF9242084F83D002068016821F09E
:100C2000010101602068016841F400410160206811
:100C3000016821F40041016000F0A4FA4D4A6168A6
:100C4000914201D84C4900E04C49884201D2012030
:100C500070BD4B492368B0FBF1F15E6826F03F069A
:100C60000E435E606368934206D94FF4967359430E
:100C70004FF47A73B1FBF3F12368491C1E6A26F026
:100C80003F06314319626168914210D84900401E05
:100C9000B0FBF1F2521CC2F30B02042A01D2042071
:100CA00022E0B0FBF1F0401CC0F30B001CE0A26896
:100CB000F2B301EBC10303EB0116431EB3FBF6F3E2
:100CC0005B1C43F480431B0549D092B301EBC10286
:100CD00002EB0111401EB0FBF1F0401CC0F30B0011
:100CE00040F4804040F400402168CA694CF6FF732C
:100CF0009A431043C861D4E9071001432068026891
:100D000022F0C00211430160D4E9030101432068CD
:100D1000826848F2FF339A4311438160D4E90501A8
:100D200008432168CA6822F0FF021043C86001E04E
:100D30000EE016E02068016841F0010101602564C1
:100D4000202084F83D00256384F83E50002070BDCB
:100D500001EB4106431EB3FBF6F35B1CB3E7012036
:100D6000C2E701EB4101401EB0FBF1F0401CC0F3B3
:100D70000B00B7E7A086010080841E0000093D003B
:100D800040420F002DE9F84F1F4690468A46044620
:100D9000DDF82890FFF72CFF054694F83D00202849
:100DA0007FD11923012240492046009502F06EFCB4
:100DB000002876D194F83C00012872D0012084F8F4
:100DC0003C0020680168C90703D1016841F00101B6
:100DD00001602068016821F400610160212084F82D
:100DE0003D00102084F83E0000262664C4F82480CC
:100DF0006785608D20852D48E0622B464A46514626
:100E0000204602F0CFFB90B92068416980690090CC
:100E100036E02A464946204602F0B7FC50B1206C25
:100E2000042804D12068016841F4007101600120A8
:100E3000BDE8F88F606A216800780861606A401C2C
:100E40006062618D491E6185218D491E89B22185AF
:100E500022685369DB435B070BD451B10078106102
:100E6000606A401C6062608D401E6085208D401E5F
:100E700020852A464946204602F0E2FB0028CED1D2
:100E8000208D0028C5D154F83D0B016841F4007154
:100E90000160202004F81E09E67766770020C7E786
:100EA000FFE70220C4E70000020010000000FFFF7F
:100EB00010B586B0044614216846FFF7B9F9144905
:100EC0002068884221D113480021026842F00202C2
:100ED0000260006800F0020005904FF4406000904E
:100EE0001220CDE9010103200390042004906946FB
:100EF0000948FFF77FFD07481030016841F4800181
:100F00000160006800F48000059006B010BD00008C
:100F10000058004030380240000402400248816816
:100F20000278114481607047B80100200B4810B569
:100F3000016841F400710160016841F48061016061
:100F4000016841F480710160032000F06FF80F2008
:100F500000F006F800F024F8002010BD003C02402C
:100F600070B50D4D04464FF47A712878B1FBF0F05E
:100F70000A490968B1FBF0F000F001FE48B9102CF5
:100F800007D200222146501E00F030F800206C608D
:100F900070BD012070BD0000B8010020C401002018
:100FA0000A4808B5016841F480410160006800F416
:100FB000804000900548001F016841F080510160A9
:100FC000006800F08050009008BD000044380240E6
:100FD000002809DB00F01F02012191404009800038
:100FE00000F1E020C0F8001170470000F0B40E4B93
:100FF0001B680C46C3F30223C3F10705042D00D977
:101000000425191D072901D2002300E0DB1E01265B
:1010100006FA05F1491E214099409E40761E164071
:101020003143F0BC03F0FEBE0CED00E0064900F0D9
:10103000070208684FF6FF03184040EA0220034AFF
:1010400010430860704700000CED00E00000FA0556
:101050002DE9F0470E46050065D0DFF81481D8F879
:101060000000F7B200F00700B04207D288F8007025
:10107000D8F8000000F00700B04254D128683D4C79
:10108000810712D5400703D5206840F4E050206066
:101090002878000703D5206840F46040206020686D
:1010A000A96820F0F000084320602878C0072DD000
:1010B000304968680839012812D0022813D0032863
:1010C00011D00968890700292DDA216821F0030170
:1010D00001432160FFF78CFD814641F2883A0EE022
:1010E00009688903EFE709688901ECE7FFF780FDEC
:1010F000A0EB0901514502D90320BDE8F087206823
:10110000696800F00C00B0EB810FEFD1D8F8001047
:10111000404601F00701B14207D90770006800F0AE
:101120000700B04201D00120E7E72878400705D545
:101130002068E96820F4E050084320602878000720
:1011400006D52068296920F4604040EAC10020608B
:1011500000F038F82168084AC1F30311515CC84017
:101160000649086006480068FFF7FAFE0020C4E759
:10117000003C0240083802400F7A0008C4010020F9
:10118000BC0100200448054900680968044AC1F30D
:101190008221515CC8407047C401002008380240D9
:1011A0001F7A00080448054900680968044AC1F329
:1011B0004231515CC8407047C401002008380240E9
:1011C0001F7A0008154810B5006810F00C0214488A
:1011D00013D04110042A0FD0082A0ED10F4C241F1F
:1011E0002268236802F03F025B0207D52068C0F343
:1011F0008810A0FB010106E0084610BD2168C1F37C
:101200008811A1FB00010023FEF7DAFF2168C1F37A
:101210000141491C4900B0FBF1F010BD0838024003
:101220000024F4002DE9F84F04006ED02078DFF898
:101230004C93C007A9F104054AD009F104000168E4
:10124000C1F38101012908D00068C0F381000228A0
:101250000AD1D9F80000400206D52868800337D5A6
:1012600060680028E1D033E06068B0F5803F10D0BE
:10127000B0F5A02F286810D020F4803028602868AE
:1012800020F4802028606068A8B1FFF7B1FC064612
:101290000DE0286840F48030F4E740F480202860B6
:1012A000F7E700BFFFF7A4FC801B642873D8286809
:1012B0008003F7D50CE0FFF79BFC064605E000BF76
:1012C000FFF796FC801B6428F0D828688003F7D4C9
:1012D0002078DFF8AC8280074FF0000A3ED5A7489F
:1012E000001D016811F00C0F08D00068C0F38100E8
:1012F00002280BD1D9F80000400207D428688007E3
:1013000016D5E068012800D112E033E1E068B8B1F9
:101310000120C8F80000FFF76BFC064605E000BF9F
:10132000FFF766FC801B0228C0D828688007F7D525
:101330002868216920F0F80040EAC10028600DE02B
:10134000C8F800A0FFF754FC064604E0FFF750FC85
:10135000801B02281FD828688007F7D42078000750
:1013600022D5864F87486169703771B101210160CC
:10137000FFF73EFC064604E0FFF73AFC801B02281C
:1013800009D838688007F7D50EE0C0F800A0FFF74D
:101390002FFC064605E082E0FFF72AFC801B0228AE
:1013A0007DD838688007F7D42078400768D5DFF803
:1013B000CCB100270BF13C0BDBF80000C0000BD4D4
:1013C000DBF8001041F08051CBF80010DBF8000092
:1013D000012700F0805000906B4E3068C00510D49B
:1013E000306840F480703060FFF702FC009005E048
:1013F000FFF7FEFB0099401A022850D83068C0055C
:10140000F6D55E4EA0686C3601280FD005283068EE
:1014100010D020F001003060306820F0040030600F
:10142000A068B8B1FFF7E4FB00900FE0306840F02F
:101430000100F4E740F004003060F7E7FFF7D8FB65
:101440000099411A41F28830814266D8306880079D
:10145000F4D50EE0FFF7CCFB009007E0FFF7C8FBE8
:101460000099411A41F28830814256D8306880078D
:10147000F4D42FB1DBF8001021F08051CBF800102C
:10148000A069C8B33D49091D0968C1F3810102295A
:101490004AD00228504607D0C8F8600000E03CE07F
:1014A000FFF7A6FB04463BE04746C8F86000FFF79D
:1014B0009FFB064605E000BFFFF79AFB801B022852
:1014C0002BD828688001F7D4D4E907010843A16A22
:1014D0002E4A490802EB0141626A41EA821108433F
:1014E00094F82C1040EA0161C9F800100120386618
:1014F000FFF77EFB044606E03EE000BFFFF778FB07
:10150000001B022809D828688001F7D534E000BF05
:10151000FFF76EFB001B022802D90320BDE8F88FFD
:1015200028688001F4D427E00128F7D0D9F800001A
:10153000E26900F4800191421CD1226A00F03F016F
:10154000914217D147F6C071626A0140B1EB821F28
:1015500010D1A26A4FF0FF3300F4403103EB520286
:10156000B1EB024F06D194F82C1000F07060B0EB94
:10157000016F01D00120D1E70020CFE704380240FD
:1015800000004742800E4742007000400000FFFF0D
:1015900070B5040009D0606A002540B1256165611D
:1015A000A56294F8510040B10CE0012070BD606864
:1015B000B0F5827FF4D0E561F2E784F85050204620
:1015C00000F044F8022084F851002068016821F0FE
:1015D00040010160A088218900F4827001F4044177
:1015E0000843A18901F400610843217C01F0020154
:1015F0000843217D01F001010843218B01F40071B2
:101600000843217F01F03801084394F8201001F0CD
:1016100080010843218D01F40051084321680860CE
:10162000A069042101EA104094F8241001F010018F
:101630000843216848602068C16921F40061C161E4
:101640006565012084F85100002070BDF0B587B0B9
:10165000044614216846FEF7EBFD1C4920688842C9
:1016600032D11B480024016841F4805101600068B8
:1016700000F48050059016481438016841F00101CB
:101680000160016801F001010591016841F002016A
:1016900001600068022500F0020005906020CDE99D
:1016A000000502AA0326052782E8D00069460948FA
:1016B000FFF7A0F92020CDE9000502AA694682E8DB
:1016C000D0000548FFF796F907B0F0BD00300140A3
:1016D0004438024000000240000402402DE9F84F67
:1016E000044640680025984616460F464FF0040B06
:1016F000B0F5827F01D1A06888B194F8500001282C
:1017000018D0012084F85000FFF772FA814694F84F
:1017100051004FF0000A01280ED0022582E084F823
:1017200051B013460A462046CDF8008000F036F945
:10173000BDE8F88F0220FBE7002F72D0002E70D09A
:1017400084F851B0C4F854A0A763A687E687C4F80C
:1017500030A0A4F834A0A4F836A0C4F840A0C4F87F
:1017600044A0A068B0F5004F09D12068016821F0BD
:10177000400101602068016821F480410160206817
:101780000168490603D4016841F040010160E06846
:10179000D8B139E020688168C90709D0007BA16B06
:1017A0000870A06B401CA063E08F401EE0870CE037
:1017B000FFF71EFAA0EB0901414503D3B8F1FF3F43
:1017C00003D036E0B8F1000F33D0E08F0028E1D12C
:1017D0001DE020688168C90709D0C068A16B088036
:1017E000A06B801CA063E08F401EE0870CE0FFF739
:1017F000FFF9A0EB0901414503D3B8F1FF3F03D046
:1018000017E0B8F1000F14D0E08F0028E1D14A466C
:101810004146204602F09EFE08B120206065606DC2
:1018200000B10125012084F8510084F850A0284619
:101830007EE70325F6E72DE9F84F044690F85000BF
:1018400000271D461646894601280DD04FF0010B92
:1018500084F850B0FFF7CCF9804694F85100BA46AE
:10186000012804D0022793E00220BDE8F88FB9F1E7
:10187000000F73D0002E71D0032084F85100C4F8FB
:1018800054A0C4F83090A686E686C4F838A0A4F820
:101890003CA0A4F83EA0C4F844A0C4F840A0A068AE
:1018A000B0F5004F09D12068016821F040010160C6
:1018B0002068016841F480410160206801684906A0
:1018C00003D4016841F040010160E068B0F5006FA9
:1018D000606803D030B3012E24D041E008B1012E5E
:1018E0001CD1206B21680088C86006E020688168F0
:1018F000890709D5216B0988C160206B801C206392
:10190000E08E401EE08609E0FFF772F9A0EB0800C8
:10191000A84202D3681C01D031E07DB3E08E0028DC
:10192000E4D120E0206B21680078087306E020688D
:101930008168890709D5216B09780173206B401CE8
:101940002063E08E401EE0860AE0FFF751F9A0EB2D
:101950000800A84203D3681C02D010E017E06DB164
:10196000E08E0028E3D142462946204602F020FEC0
:1019700008B120206065A06818B106E0FFE70327E2
:1019800006E02068C16880680090606D00B10127A2
:1019900084F851B084F850A0384666E72DE9F84F36
:1019A000044690F8500000270A9E1D4692468B463A
:1019B0004FF0010901280ED0012084F85000FFF7F4
:1019C00017F9804694F85100616801280CD0B1F5F0
:1019D000827F07D102E00220BDE8F88FA16809B933
:1019E000042801D00227C2E0BBF1000F27D0BAF1D2
:1019F000000F24D01DB394F85100042802D0052014
:101A000084F8510000206065C4F838A0E587A587F8
:101A1000C4F830B0E586A58620646064206801685B
:101A2000490603D4016841F040010160E068B0F567
:101A3000006F606805D0E8B3012D46D07FE0012734
:101A400095E008B1012D39D1206B21680088C8606C
:101A5000206B801C2063E08E401EE0862EE0206814
:101A6000816889070FD5E18E69B1B9F1010F0AD1FB
:101A7000216B0988C160206B801C2063E08E401EB2
:101A8000E0864FF0000920688168C9070CD0E18F1B
:101A900051B1C068A16B0880A06B801CA063E08F6F
:101AA000401EE0874FF00109FFF7A2F8A0EB080005
:101AB000B04200E009E001D3701C50D1E08E002854
:101AC000CDD1E08F0028CAD13FE0206B216800789B
:101AD0000873206B401C2063E08E401EE0862EE0E1
:101AE0002068816889070FD5E18E69B1B9F1010FCE
:101AF0000AD1216B09780173206B401C2063E08EB2
:101B0000401EE0864FF0000920688168C9070CD0AC
:101B1000E18F51B1C068A16B0870A06B401CA0633D
:101B2000E08F401EE0874FF00109FFF761F8A0EB5E
:101B30000800B04202D3701C01D010E07EB1E08EEC
:101B40000028CDD1E08F0028CAD142463146204638
:101B500002F02EFD28B101272020606507E0032751
:101B600005E0A06818B92068C1688068009001206D
:101B700084F85100002084F8500038462CE710B556
:101B8000401EB0F1807F01D3012010BD4FF0E02452
:101B900060610F21601703F045F90020A061072064
:101BA0002061002010BD7047704710B590F83C20B0
:101BB000012A22D0012280F83C20CA688C6822F4D5
:101BC000407222434C6822F4806222430C6822F463
:101BD000006222430C6922F4805222434C6922F4B1
:101BE00000522243C969002322F480420A4301685B
:101BF0004A6480F83C30002010BD022010BD000077
:101C000070B590F83C20012A32D0012480F83C4085
:101C1000022280F83D2003685A689D6822F0700611
:101C20000A6832435A60134B02689A4214D0B2F1E8
:101C3000804F11D0104B9A420ED0104B9A420BD0CD
:101C40000F4B9A4208D00F4B9A4205D00E4B9A4246
:101C500002D00E4B9A4204D1496825F08003194303
:101C6000916080F83D40002180F83C10084670BD2E
:101C7000022070BD00000140000400400008004048
:101C8000000C0040000401400040014000180040EA
:101C900010B5040003D094F83D0010B107E0012016
:101CA00010BD002084F83C00204600F01FF8022000
:101CB00084F83D00211D206802F074FD012084F8A5
:101CC000460084F83E0084F83F0084F8400084F821
:101CD000410084F8420084F8430084F8440084F80A
:101CE000450084F83D00002010BD000008B50268E2
:101CF00030483149824207D1086840F0010008604D
:101D0000086800F001000BE02B482C4B001F9A42A2
:101D100008D1016841F002010160006800F0020092
:101D2000009008BD264B9A420ED1016841F0100187
:101D300001600068002200F01000009001213620B0
:101D4000FFF754F9362010E01E4B9A4211D101687A
:101D500041F0200101600068002200F020000090A6
:101D600002213720FFF742F93720BDE80840FFF78E
:101D70002FB9154B9A4207D1086840F480300860AB
:101D8000086800F48030CBE7104B9A4207D108680E
:101D900040F480200860086800F48020C0E70C4907
:101DA0008A42BED1016841F040010160006800F044
:101DB0004000B5E700000140443802400004004004
:101DC0000010004000140040004001400048014065
:101DD0000018004090F83D10012901D00120704703
:101DE000022180F83D100168CA6842F00102CA6011
:101DF00000681149884214D0B0F1804F11D00F49CA
:101E000088420ED00E4988420BD00E49884208D035
:101E10000D49884205D00D49884202D00C498842BC
:101E200004D1816801F00701062903D0016841F05F
:101E300001010160002070470000014000040040E3
:101E400000080040000C0040000401400040014038
:101E50000018004070B5044690F83C0000250128A9
:101E600017D0012684F83C60022084F83D002068E9
:101E7000826822F0770222F47F428260086850284C
:101E800038D00DDC20284FD005DC90B3102811D1BC
:101E90004AE0022070BD302846D040280AD13BE0FD
:101EA00060282FD070280DD0B0F5805F03D0B0F53A
:101EB000005F12D0012584F83D60002084F83C00CA
:101EC000284670BDCB68D1E90121206802F0DBFC17
:101ED0002068816841F0770109E0CB68D1E90121F0
:101EE000206802F0D0FC2068816841F48041816064
:101EF000E1E719E0CA684968206802F099FD5021BD
:101F0000206806E0CA684968206802F0A2FD6021E6
:101F1000206802F0C2FCCEE7CA684968206802F077
:101F200087FD40212068F4E7226801461046F0E76B
:101F30002DE9F0410D46040003D094F83D0018B19E
:101F400008E00120BDE8F081002084F83C00204634
:101F500000F040F8022084F83D002068816844F2D7
:101F6000070291438160211D206802F01BFC22685A
:101F700090689169166A2B68AF69034340F2033099
:101F8000814341EA0721A868EF6908434FF6FC4105
:101F90008843E96840EA0720014328692F6A000165
:101FA00040EA0730084369686D6926F0AA0646EAE8
:101FB0000515294393602268906154F8460B01622D
:101FC000012004F81F09E0752076E0762077A075DF
:101FD0000020B7E7F0B587B0044614216846FEF745
:101FE00027F952492368514A103902250126032452
:101FF0004F48B3F1804F27D04FEAF047BB4254D14E
:10200000106840F004001060106800F004000590B3
:10201000086840F0080008600868694600F0080099
:10202000059020038DE861004248CDE90345FEF7A5
:10203000E1FC002211461E20FEF7D8FF5FF01E00D3
:10204000FEF7C6FF07B0F0BD136843F0010313604D
:10205000126802F0010205920A6842F001020A6069
:102060000A6802F0010205920A6842F002020A6060
:10207000096801F0020105914FF400418DE862000A
:10208000CDE903466946FEF7B5FC08208DE86100FE
:10209000CDE9034669462848FEF7ACFC002211460C
:1020A0001C20FEF7A3FF1C20CAE7244FBB421DD112
:1020B000136843F008031360126802F008020592E7
:1020C0000A6842F001020A6009688DE8700001F0B8
:1020D0000101CDE9045103946946FEF78BFC00220F
:1020E00011463220FEF782FF3220A9E714488342CE
:1020F000A8D10E48001D026842F00202026000688A
:1021000000F002000590086840F0040008600868CC
:10211000CDE9026400F004000590C020CDE900057F
:10212000694604940748FEF765FC8BE74038024097
:1021300000000240000C024000040240000C00407D
:10214000000401400008024070B590F83E6004466B
:1021500090F83F5090F8423090F84320022021B18F
:1021600004290ED0012E1BD114E0012E18D1012B11
:1021700016D184F83E0084F8420001220021206834
:1021800020E0012D0CD1012A0AD184F83F0084F807
:10219000430014E0012D03D1012B01D1012A01D00C
:1021A000012070BD84F83E0084F83F0084F84200AE
:1021B00084F8430001220021206802F057FB01222D
:1021C0000421206802F052FB2068016841F00101FF
:1021D0000160002070BD704770B504460068016959
:1021E0004FF00005C943890715D4C168C943890761
:1021F00011D4E91E016101202077206880698007E1
:10220000204602D0FFF7E7FF04E000F031F9204656
:1022100000F0C3F9257720680169C943490717D43D
:10222000C168C943490713D46FF00401016102205A
:1022300020772068806910F4407F204602D0FFF7A5
:10224000CAFF04E000F014F9204600F0A6F9257753
:1022500020680169C943090716D4C168C943090741
:1022600012D46FF008010161042020772068C06952
:102270008007204602D0FFF7AEFF04E000F0F8F838
:10228000204600F08AF9257720680169C943C9060C
:1022900017D4C168C943C90613D46FF01001016196
:1022A000082020772068C06910F4407F204602D0C3
:1022B000FFF791FF04E000F0DBF8204600F06DF935
:1022C000257720680169C943C90708D1C168C94396
:1022D000C90704D1891E0161204600F0D9F92068A0
:1022E0000169C943090609D4C168C943090605D46F
:1022F0006FF0800101612046FFF755FC20680169FD
:10230000C943490609D4C168C943490605D46FF0D9
:1023100040010161204600F009FF20680169C943BE
:1023200089060BD4C168C943890607D46FF0200120
:1023300001612046BDE87040FFF736BC70BD00006B
:1023400070B586B0044614216846FDF771FF3F4B17
:1023500020683F49022403253E4A984211D108686B
:1023600040F0100008600868029400F0100005902A
:102370004FF4D440CDE900040120CDE90350694673
:102380003AE0354B354E984224D1086840F00100C0
:102390000860086800F001000590086840F002003D
:1023A00008600868CDE9024500F002000590802031
:1023B000CDE9000469462A480494FEF71BFBCDE9E9
:1023C0000054CDE90245049429E000BFFEF712FB5A
:1023D00006B070BD234B984210D1086840F0100041
:1023E00008600868CDE9024500F010000590602003
:1023F000CDE90004694604951046E7E71A4A904281
:102400000FD1086840F0020008600868CDE9024575
:1024100000F0020005905015CDE9000404956946CE
:1024200012E0124A9042D3D1086840F002000860DE
:102430000868029400F002000590D000CDE9000485
:102440000920CDE9035069463046BFE7000001404E
:1024500030380240001002400004004000040240F6
:1024600000000240004001400048014000180040C8
:10247000704770B5044690F83C0000260D460128D0
:102480000FD0012084F83C006AB1042A1DD0082A2C
:102490002FD00C2A3FD00126002084F83C00304683
:1024A00070BD022070BD206802F000FA20688169CA
:1024B00041F0080181612068816921F00401816196
:1024C000206881692A69114311E0206802F01EFA30
:1024D0002068816941F4006181612068816921F48B
:1024E00080618161206881692A6941EA02218161F4
:1024F000D2E7206802F040FA2068C16941F0080183
:10250000C1612068C16921F00401C1612068C1690D
:102510002A69114311E0206802F062FA2068C1695B
:1025200041F40061C1612068C16921F48061C16129
:102530002068C1692A6941EA0221C161ACE710B58E
:10254000040003D094F83D0010B107E0012010BD55
:10255000002084F83C00204600F01EF8022084F899
:102560003D00211D206802F01DF9012084F846007D
:1025700084F83E0084F83F0084F8400084F841006D
:1025800084F8420084F8430084F8440084F845004D
:1025900084F83D00002010BD7047704730B500251D
:1025A0000446022249B1042912D008294CD094F8DB
:1025B0004100012853D0012030BD94F83E0001288D
:1025C000F9D184F83E202068C26842F0020209E096
:1025D00094F83F000128EED184F83F202068C268BB
:1025E00042F00402C2600122206802F03FF9214952
:1025F0002068214A884201D0904203D1436C43F4C1
:10260000004343642068884213D0B0F1804F10D05B
:102610001A4988420DD01A4988420AD0194988427D
:1026200007D0904205D01849884202D01749884205
:1026300004D1816801F00701062903D0016841F047
:1026400001010160284630BD94F840000128B2D154
:1026500084F840202068C26842F00802C2E784F88B
:1026600041200C2901D00125ECE72068C26842F026
:102670001002B7E7000001400004014000040040E0
:1026800000080040000C00400040014000180040DD
:102690002DE9F14FFF492DED0C8B0C9888427DD12F
:1026A000DFF8F4B3FD490BF168049BF801000A78E8
:1026B0004FF0000904F1D80A022802D000286ED099
:1026C000FEE3F64F494600205346C7F8149000BF7A
:1026D00043F82010401C0928FADB9BF8020002286E
:1026E0007DD001287CD000287BD00846B960192114
:1026F00090FBF1F5FD60F878183A193805FB00F108
:1027000005FB02F801EBD17608EB6600FDF723FF2D
:10271000C4E9000178781838454305EB6600FDF7F9
:102720001AFFC4E90201A5EB6600FDF714FFC4E936
:102730000401A8EB6600FDF70EFFC4E90601D648C8
:102740004C3004F035F894ED000B51EC100BFDF714
:1027500013FFD14D01464C3505F5A470B5F90020A5
:1027600004F050F805F5A471A1F1300004F09CFCD0
:1027700005F5A471A1F1300004F0A4FC04F0C6FC3E
:10278000A5F12C06306005F5A470416881600168F0
:10279000016194ED040B51EC100B01E0FDE38BE0C3
:1027A000FDF7EAFE0146B5F9042005F5B87004F01E
:1027B00029F805F5B871A1F1400004F075FC05F5A4
:1027C000B871A1F1400004F07DFC04F09FFCB06002
:1027D00005F5B870416881600168016102E063E05D
:1027E00065E066E094ED020B51EC100BFDF7C4FEC2
:1027F0000146B5F9022005F5AE7004F003F805F5C1
:10280000AE71A1F1380004F04FFC05F5AE71A1F1F5
:10281000380004F057FC04F079FC706005F5AE70E8
:10282000416881600168016194ED060B51EC100B69
:10283000FDF7A2FE0146B5F9062005F5C27003F0CA
:10284000E1FF05F5C271A1F1480004F02DFC05F58A
:10285000C271A1F1480004F035FC04F057FCF060AF
:1028600005F5C2704168816001680161304601F080
:10287000CBFDB5F9060000EE100AB5F90400F8EE3C
:10288000C01A00EE100AB5F90200B8EEC01A00EE48
:10289000100AB5F90000F8EEC00A00EE100AB8EE12
:1028A000C00A02F077F90BE34FF4AF7002E0C820E2
:1028B00000E06420B8601AE77848910060398161CF
:1028C00042789700603FC761827892005C3A9046F8
:1028D0004262C2789600643E06629FED719B9FED56
:1028E00072AB9FED738B6C4D4269C0357AB984ED44
:1028F000089B84ED0AAB84ED0E8B84ED0C8B85ED8B
:102900000C8B85ED0E8B85ED108B012242619FEDC6
:102910006ADB9FED6BCB9FED6CBB5A2904DD94ED18
:10292000080B53EC1D2B10E0A1F13300272804D82D
:1029300094ED080B53EC1B2B07E0A1F10B002728AB
:102940000CD853EC1C2B94ED080B51EC100BFDF73D
:102950007AFCC4E9080185ED1ABB17E001F13200E9
:10296000282804D294ED080B53EC1C2B06E011F13F
:102970005A0F0BDA53EC1D2B94ED080B51EC100B96
:10298000FDF702FDC4E9080185ED1A8B5A2F04DD1D
:1029900094ED0A0B53EC1D2B10E0A7F13300272810
:1029A00004D894ED0A0B53EC1B2B07E0A7F10B00A6
:1029B00027280CD853EC1C2B94ED0A0B51EC100B70
:1029C000FDF741FCC4E90A0185ED1CBB17E007F1E6
:1029D0003200282804D294ED0A0B53EC1C2B06E09D
:1029E00017F15A0F0BDA53EC1D2B94ED0A0B51EC37
:1029F000100BFDF7C9FCC4E90A0185ED1C8B274FBC
:102A00005A2E02DD9FED320B19E0A6F13300272884
:102A100002D89FED310B12E0A6F10B00272802D857
:102A20009FED2F0B0BE006F13200282802D29FED1C
:102A30002E0B04E016F15A0F04DA9FED2D0B84EDF6
:102A40000C0B01E084ED0C8B9FED2B0BB8F15A0FB2
:102A500006DD94ED0E1B53EC102B51EC110B14E022
:102A6000A8F13300272804D894ED0E0B9FED241B0A
:102A700007E0A8F10B009FED241B27284BD894ED0D
:102A80000E0B53EC112B51EC100BFDF7DCFBC4E9E2
:102A90000E013DE0B80A0020C00600209001002091
:102AA00000000000000069400000000000005940E4
:102AB00000000000000000000000000000000040D6
:102AC000000000000000E03F000000000000F03FB8
:102AD000000000000080514000000000000049405C
:102AE000000000000000444000000000000044C05E
:102AF00000000000008051C09A9999999999E93F86
:102B00009A9999999999D93F9A9999999999B93F87
:102B100085ED1EBB19E008F13200282806D294ED9D
:102B20000E0B53EC112B51EC100B08E018F15A0F5F
:102B30000BDA94ED0E1B53EC102B51EC110BFDF73F
:102B400023FCC4E90E0185ED1E8B94ED0A0B53ECBA
:102B5000182B51EC100BFDF747FD01D884ED0A8BC3
:102B600094ED080B85ED0C0B94ED0A0B85ED0E0B27
:102B700094ED0E0B85ED100B9BF80200012812D08E
:102B800002282BD0032849D0042865D005287DD001
:102B900006287CD007287BD008287AD0092879D04D
:102BA0000A2878D015E1387CC00716D084ED089B40
:102BB00084ED0AAB84ED0E8B40F2FE30386185ED7A
:102BC0000C9B85ED0EAB85ED108B00204A465146DF
:102BD00041F82020401C0928FADBFAE0387C800705
:102BE0001BD59FEDFE0B84ED080B84ED0A0B9FEDCA
:102BF000FD1B40F2FD3084ED0E1B386185ED0C0BA2
:102C000085ED0E0B85ED101B00204A464FEA0A01A8
:102C100041F82020401C0928FADBDAE0387C400724
:102C200019D59FEDF20B40F2FB3084ED080B84EDDB
:102C30000A0B84ED0E8B386185ED0C0B85ED0E0BC8
:102C400085ED108B00204A464FEA0A0141F820200A
:102C5000401C0928FADBBCE0387C00071ED584ED57
:102C6000089B84ED0AAB84ED0E8B40F2F73038619F
:102C700085ED0C9B85ED0EAB85ED108B00204A4653
:102C80004FEA0A0141F82020401C05E007E021E05E
:102C900030E04BE066E081E00928F3DB99E0387C26
:102CA000C00616D584ED089B84ED0AAB84ED0E8B2F
:102CB00040F2EF30386185ED0C9B85ED0EAB85ED74
:102CC000108B00204946524642F82010401C09282B
:102CD000FADB7EE0387C80067BD540F2DF3038615D
:102CE00000204A464FEA0A0141F82020401C0928EA
:102CF000FADB6EE0387C40066BD584ED089B84EDF2
:102D00000AAB84ED0E8B40F2BF30386185ED0C9B31
:102D100085ED0EAB85ED108B002049464FEA0A0287
:102D200042F82010401C0928FADB52E0387C0006EB
:102D30004FD584ED089B84ED0AAB84ED0E8B40F2F9
:102D40007F30386185ED0C9B85ED0EAB85ED108BEA
:102D5000002049464FEA0A0242F82010401C092888
:102D6000FADB36E0388AC00533D584ED089B84ED64
:102D70000AAB84ED0E8B40F2FF20386185ED0C9B91
:102D800085ED0EAB85ED108B00204A464FEA0A0117
:102D900041F82020401C0928FADB1AE0388A800517
:102DA00017D584ED089B84ED0A9B84ED0E8B40F2D1
:102DB000FF10386185ED0C9B85ED0E9B85ED108B2A
:102DC00000204A464FEA0A0141F82020401C092809
:102DD000FADB94ED0E2B94ED0A1B94ED080B03F037
:102DE00033FF844803F0E4FC94ED0C0B51EC100B22
:102DF000FDF7C2FB7F4F014607F5A470B7F900202D
:102E000003F000FD07F5A471A1F1300004F04CF9C6
:102E100007F5A471A1F1300004F054F904F076F93B
:102E2000A7F12C06306006F5BA7041688160016830
:102E3000016194ED0C0B51EC100BFDF79DFB414231
:102E4000B7F9042006F5CE7003F0DCFC06F5CE7170
:102E5000A1F1400004F028F906F5CE71A1F140007F
:102E600004F030F904F052F9B06006F5CE70416814
:102E700081600168016194ED0C0B51EC100BFDF7C2
:102E80007BFB4142B7F9022006F5C47003F0BAFC9F
:102E900006F5C471A1F1380004F006F906F5C47115
:102EA000A1F1380004F00EF904F030F9706006F575
:102EB000C470416881600168016194ED0C0B00E011
:102EC00002E151EC100BFDF757FB0146B7F9062064
:102ED00006F5D87003F096FC06F5D871A1F148000C
:102EE00004F0E2F806F5D871A1F1480004F0EAF820
:102EF00004F00CF9F06006F5D87041688160016853
:102F00000161304601F080FA95ED060B53EC1C2B65
:102F100051EC100BFDF73EFA95ED00BB41EC180BA0
:102F200053EC1C2B51EC1B0BFDF734FA53EC182B14
:102F3000FDF789F99FED308B53EC182BFDF72AFA3A
:102F40009FED2F9B53EC192BFDF796FA9FED2EABBF
:102F500053EC1A2BFDF777F9FDF72DFB80B23062A9
:102F600095ED080B53EC1C2B51EC100BFDF712FAEE
:102F700095ED020B41EC1D0B53EC1C2B51EC100B8F
:102F8000FDF708FA53EC1D2BFDF75DF953EC182BF8
:102F9000FDF700FA53EC192B00E0AAE0FDF76CFAFC
:102FA00053EC1A2BFDF74FF9FDF705FB80B2706269
:102FB00095ED0A0B53EC1C2B51EC100BFDF7EAF9C5
:102FC00095ED040B41EC1D0B53EC1C2B51EC100B3D
:102FD000FDF7E0F953EC1D2B1AE0000000000000A3
:102FE00000C0724000000000008056400000000059
:102FF00000C062400C0700200000000000409F401D
:103000007FBDC282FB2109400000000000407F40DC
:10301000FDF719F953EC182BFDF7BCF953EC192BFC
:10302000FDF72AFA53EC1A2BFDF70DF9FDF7C3FA59
:1030300080B2B06253EC182B51EC1B0BFDF7AAF9D0
:1030400053EC192BFDF718FA53EC1A2BFDF7FBF88C
:10305000FDF7B1FA2F4C80B22168886395ED020B21
:1030600053EC182B51EC100BFDF794F953EC192B82
:10307000FDF702FA53EC1A2BFDF7E5F8FDF79BFA82
:1030800081B22068C16395ED040B53EC182B51EC11
:10309000100BFDF77FF953EC192BFDF7EDF953EC0D
:1030A0001A2BFDF7D0F8FDF786FA216880B2086484
:1030B00095ED000B85ED060B95ED020B85ED080BEC
:1030C00095ED040B85ED0A0B9BF80700124B134A94
:1030D000134910B140F2DC5001E040F6C41014680E
:1030E0006063126890631A6850630A6850630968E5
:1030F00088630C490C98884208D101F003F900203C
:1031000001F0BEF808484168491C4160BDEC0C8BD9
:10311000BDE8F88FE0090020D80B0020900B0020BC
:10312000200C0020000B0020900100207047704709
:1031300070470000F8B5016804460868CA684B6922
:1031400010F00F0F4FF000055AD003F0010602F403
:103150009077374365D0C10705D0D10503D5216CE1
:1031600041F001012164410705D5D90703D0216C45
:1031700041F002012164810705D5D90703D0216CF4
:1031800041F004012164010707D502F02001314319
:1031900003D0216C41F008012164216C00293BD04F
:1031A000800604D5900602D5204601F093FC2068E5
:1031B0004069216CC0F3801001F0080101432046F2
:1031C0002BD001F060FC20684069400621D52068C2
:1031D000143050E8001F21F0400140E80012002A9E
:1031E000F5D1A06BA8B16C490165A06BFDF7DDFBC3
:1031F000002811D0A06B016D01B0BDE8F040084778
:1032000083060ED593060CD52046BDE8F84001F0A4
:1032100061BC2046FFF78CFFF8BDFFF789FF2564EE
:10322000F8BD266B2023012E79D1C60677D5D606A8
:1032300075D50868486800904869400640D5A16B7C
:10324000086840680004000CEAD0A28D8242E7D9E9
:10325000E085C869B0F5807F2DD020680C3050E83B
:10326000001F21F4807140E80012002AF5D1206887
:10327000143050E8001F21F0010140E80012002A3C
:10328000F5D12068143050E8001F21F0400140E8DB
:103290000012002AF5D184F83E30256320680C30F6
:1032A00050E8001F21F0100140E80012002AF5D17B
:1032B000A06BFDF731FBA08DE18D401A81B229E0B2
:1032C000A08DE18D401A81B2E08D0028A8D00029A0
:1032D000A6D020680C3050E8002F22F4907240E80D
:1032E0000026002EF5D12068143050E8002F22F07F
:1032F000010240E80026002EF5D184F83E30256317
:1033000020680C3050E8002F22F0100240E8002323
:10331000002BF5D12046FFF70AFFF8BDFFE70506B1
:103320002BD5150629D594F83D002128F5D1A068A4
:10333000B0F5805F01D12069B0B1206A411C2162E3
:10334000216800784860E08C401E0004000CE08496
:10335000E3D12068C16821F08001C1602068C168A4
:1033600041F04001C160D8E7206A0088C0F308003E
:103370004860206A801C2062E5E74006CDD55006F3
:10338000CBD5CA68204622F04002CA6084F83D309E
:1033900000F0EEF8C1E70000774A000870B50400BD
:1033A00004D094F83D00002510B106E0012070BD66
:1033B00084F83C50204600F023F8242084F83D0097
:1033C0002068C16821F40051C160204601F026FC4C
:1033D0002068016921F4904101612068416921F070
:1033E0002A0141612068C16841F40051C16025642F
:1033F000202084F83D0084F83E00002070BD0000CD
:1034000010B586B0044614216846FCF711FF184930
:103410002068884229D117480021026842F0100232
:103420000260006800F0100005901248143802682D
:1034300042F001020260006800F0010005904FF4C4
:10344000C06000900220CDE9010103200390072015
:10345000049069460848FDF7CDFA00221146252060
:10346000FDF7C4FD2520FDF7B3FD06B010BD00003B
:103470000010014044380240000002407047000044
:103480002DE9F843044690F83D001F4616460D46C8
:1034900020284CD1C5B1BEB194F83C00012846D0DB
:1034A000012084F83C004FF00008C4F8408021203F
:1034B00084F83D00FDF79CFBA6848146E684A06865
:1034C000B0F5805F03D004E00120BDE8F8832069F7
:1034D00028B12E465FF0000584F83C800EE00026FF
:1034E000FAE78021204601F01FFCA0B9AEB116F822
:1034F000010B21684860E08C401EE084E08C4B4664
:103500004FF0000200970028EBD14FF04001204619
:1035100001F00AFC30B10320D7E735F8020BC0F305
:103520000800E6E7202084F83D000020CDE70220D7
:10353000CBE790F83D30202B18D1A9B1A2B190F87B
:103540003C30012B12D001628284C28400210164CC
:10355000212280F83D2080F83C100068C16841F0CD
:103560008001C16000207047012070470220704731
:103570007047FEE701684A69D24352050FD46FF4E1
:1035800080624A61002140F8301F2022427381731B
:10359000026942F0040202610173012070470020B9
:1035A00070470000F8B50446C06A1E460D4617462F
:1035B000082807D0012805D010F5803F02D0206BE5
:1035C000122804D12068016841F48071016013461B
:1035D00000224FF001112046009600F057F840B14C
:1035E00020680068C00502D54FF4007020640320F5
:1035F000F8BD2069B0F5804F0ED00620216800EAA2
:10360000D51040F0F000086133463A460B49204699
:1036100000F070F878B902E005F0FE0000E0E8B2D2
:1036200021680861054933463A46891F204600F063
:1036300061F80028DCD00120F8BD0000080001007E
:1036400070B516460D4604460DE02046FFF792FF82
:1036500008B1012070BD681C05D0FDF7C9FA801BB8
:10366000A84207D835B120684069C0434007ECD470
:10367000002070BD002044F8300F20216173A0733A
:10368000216941F0200121612073E2E72DE9F04733
:103690001E4690460D460446C1F30747DDF82090CC
:1036A00008E0701C06D0FDF7A3FAA0EB0900B042B9
:1036B0000FD876B12068012F18D0806925EA000064
:1036C0000004000C14D000214145EAD00020BDE8E0
:1036D000F087002044F8300F20216173A073216926
:1036E00041F02001216120730120F0E74069E5E706
:1036F0000121E9E72DE9F0479A4691460E46044636
:1037000000254FF02008C1F3074725E020684069F5
:10371000C043400514D42068016841F40071016081
:1037200021686FF480604861256384F83D8084F8E7
:103730003E50206C40F00400206484F83C501FE0B0
:10374000B9F1FF3F08D0FDF753FAA0EB0A01494554
:103750000CD8B9F1000F09D02068012F13D080696F
:1037600026EA00000004000C0BD0CFE744F8305FDD
:1037700084F80D80A573206940F020002061257336
:103780000120BDE8F0874069EAE770B516460D46AE
:1037900004460DE02046FFF7EDFE08B1012070BDA4
:1037A000681C05D0FDF724FA801BA84207D835B164
:1037B00020684069C0430006ECD4002070BD0020A2
:1037C00044F8300F20216173A073216941F020017A
:1037D00021612073E2E700002DE9F04F87B014214A
:1037E0006846FCF725FD3F480026016841F01001BE
:1037F0000160016801F010010591016841F00401C8
:103800000160016801F004010591016841F0800147
:103810000160016801F080010591016841F001013A
:103820000160016801F001010591016841F00201A8
:103830000160016801F002010591016841F0080191
:1038400001600068DFF8A08000F008000590002209
:103850001F214046FDF7C6F9DFF890904FF400575E
:10386000002239464846FDF7BDF9DFF884A0002262
:10387000E0215046FDF7B6F9DFF878B00122C0210B
:103880005846FDF7AFF91F20012402258DE83100CD
:10389000694640460395FDF7ADF801AA009782E816
:1038A000700069464846FDF7A5F8E0208DE8310034
:1038B000694650460395FDF79DF8C0208DE85100FC
:1038C0000320039069465846FDF794F82002CDE99D
:1038D0000006694602945846FDF78CF807B0BDE82B
:1038E000F08F000030380240001002400008024013
:1038F000000C0240000402400D4810B50B49016065
:103900000C49416000214FF480428160C0E90312FC
:1039100041618161C1610162FDF770F9002803D046
:10392000BDE81040FCF7F6BF10BD00000058004095
:10393000A4080020A0860100104810B50E490160BF
:103940004FF48271416000218160C1604FF40072C8
:103950000161C0E905121022C0E9072141628162BC
:103960000A21C162FDF714FE002803D0BDE8104013
:10397000FCF7D0BF10BD000000300140F808002067
:1039800010B588B01C216846FCF752FC1548144954
:10399000002401605321C0E9011444F61F61C0E90D
:1039A000031480218161FEF773F908B1FCF7B2FFBF
:1039B0000C48FEF7C4FD08B1FCF7ACFF6020CDE970
:1039C000000402940022694606480494FEF751FD63
:1039D00008B1FCF79FFF0348FEF7B2FC08B010BD2A
:1039E00000480140D80B002010B58CB0002407948B
:1039F000089409941C2168460A94FCF719FC1E4897
:103A00001C4901605321C0E9011444F61F61C0E95B
:103A1000031480218161FEF73BF908B1FCF77AFFBE
:103A20004FF48050079007A91348FEF713FA08B126
:103A3000FCF770FF1048FEF782FD08B1FCF76AFF43
:103A40006020CDE900040294002269460A480494EB
:103A5000FEF70FFD08B1FCF75DFF0422694606483A
:103A6000FEF707FD08B1FCF755FF0348FEF768FCB9
:103A70000CB010BD00180040200C002010B596B00E
:103A800000240F9410941194129413941C216846EE
:103A90001494FCF7CDFB202107A8FCF7C9FB35489F
:103AA000334901600721C0E9011440F2E731C0E960
:103AB00003148021C0E90541FEF7EAF808B1FCF7DC
:103AC00029FF4FF480500F900FA92A48FEF7C2F942
:103AD00008B1FCF71FFF2748FEF731FD08B1FCF7DE
:103AE00019FF139413A923481494FEF789F808B119
:103AF000FCF710FF6020CDE90004029403940494C5
:103B00000594002269461B480694FEF7B2FC08B1F2
:103B1000FCF700FF042269461648FEF7AAFC08B12C
:103B2000FCF7F8FE082269461248FEF7A2FC08B12D
:103B3000FCF7F0FE0C2269460E48FEF79AFC08B12D
:103B4000FCF7E8FE0794089409944FF400500A9497
:103B5000CDE90B4007A907480E94FEF726F808B1F7
:103B6000FCF7D8FE0348FEF7EBFB16B010BD0000D3
:103B7000000001405009002010B58CB02421684697
:103B8000FCF756FB0024154809944FF080410A9435
:103B9000C0E90014611EC0E9024104618461032090
:103BA000CDE900040120CDE902040494CDE90540EB
:103BB0000794694609480894FEF7BAF908B1FCF77A
:103BC000A9FE099409A905480A94FEF719F80028E6
:103BD00001D0FCF79FFE0CB010BD0000980900203A
:103BE00010B58EB000240794089409940A940B949D
:103BF0001C2168460C94FCF71BFB274825490160F3
:103C00005321C0E9011444F61F61C0E90314802167
:103C10008161FEF73DF808B1FCF77CFE4FF480505F
:103C2000079007A91C48FEF715F908B1FCF772FECA
:103C30001948FEF784FC08B1FCF76CFE0B940BA945
:103C400015480C94FDF7DCFF08B1FCF763FE60201B
:103C5000CDE900040294042269460F480494FEF75B
:103C600008FC08B1FCF756FE082269460A48FEF730
:103C700000FC08B1FCF74EFE0C2269460648FEF730
:103C8000F8FB08B1FCF746FE0348FEF759FB0EB0FF
:103C900010BD000000040040E009002010B58CB009
:103CA00024216846FCF7C4FA0024164809941449F4
:103CB0000A94C0E900144FF6FF71C0E902410461A3
:103CC00084610320CDE900040120CDE902040494BD
:103CD000CDE90540079469460A480894FEF728F99B
:103CE00008B1FCF717FE099409A906480A94FDF7E4
:103CF00087FF002801D0FCF70DFE0CB010BD0000BE
:103D000000080040280A002010B58CB02421684625
:103D1000FCF78EFA00241548099413490A94C0E967
:103D20000014611EC0E90241046184610320CDE9F1
:103D300000040120CDE902040494CDE90540079474
:103D400069460A480894FEF7F3F808B1FCF7E2FD6B
:103D5000099409A905480A94FDF752FF002801D0EB
:103D6000FCF7D8FD0CB010BD000C0040700A00201C
:103D70001CB500240F4800940D490194016042F2E3
:103D8000CF01C0E901146321C16080218161FDF789
:103D90007FFF08B1FCF7BEFD2020CDE90004694695
:103DA0000448FDF72DFF002801D0FCF7B3FD1CBD32
:103DB00000100040B80A00201CB5002410480094F0
:103DC0000E490194016044F2A011C0E9011440F6CB
:103DD000B831C16080218161FDF75AFF08B1FCF75D
:103DE00099FD2020CDE9000469460548FDF708FF4C
:103DF000002801D0FCF78EFD1CBD0000001400401F
:103E0000000B002010B58CB024216846FCF710FA96
:103E100000241648099414490A94C0E900144FF686
:103E2000FF71C0E902410461446184610320CDE96E
:103E300000040120CDE902040494CDE90540079473
:103E400069460A480894FEF773F808B1FCF762FD6A
:103E5000099409A905480A94FDF7D2FE002801D06B
:103E6000FCF758FD0CB010BD00040140480B0020C9
:103E700010B58CB000240794089409941C2168465E
:103E80000A94FCF7D5F91E481C4901605321C0E98A
:103E9000011444F61F61C0E9031480218161FDF71C
:103EA000F7FE08B1FCF736FD4FF48050079007A9E4
:103EB0001348FDF7CFFF08B1FCF72CFD1048FEF7C3
:103EC0003EFB08B1FCF726FD6020CDE9000402941A
:103ED000002269460A480494FEF7CBFA08B1FCF7C1
:103EE00019FD042269460648FEF7C3FA08B1FCF73B
:103EF00011FD0348FEF724FA0CB010BD004001404C
:103F0000900B00200C4810B50A4901604FF4E131D4
:103F10004160002181600C22C160C0E9041281610E
:103F2000C161FFF73BFA002803D0BDE81040FCF761
:103F3000F1BC10BD00100140680C0020FEE7FEE758
:103F40001FB50FA10522D1E90001CDE9020102A9A7
:103F5000302000F091F805226946102000F028F882
:103F6000002069460A5CA52A03D1401CC0B205287E
:103F7000F8D3052802D0012004B010BD0020FBE7D3
:103F8000A5A5A5A5A500000010B5084C002240215C
:103F90002046FCF727FE012280212046FCF722FE66
:103FA000BDE810406420FCF7ACBC000000040240F7
:103FB0002DE9F0410D4D16460F46044600228021A2
:103FC0002846FCF70FFE204603F04AF8044610236B
:103FD000324639460648FDF781FB012280212846FA
:103FE000FCF700FE2046BDE8F0810000000402401E
:103FF000F808002070B50A4D0446002280212846AA
:10400000FCF7F0FD204603F02BF8FF2003F028F822
:104010000446012280212846FCF7E4FD204670BDBD
:104020000004024070B505460720FFF7E3FF044691
:104030000146272000F042F8A00602D50AA000F0B1
:10404000B7FE60060AD5202229466120FFF7B0FF9F
:10405000FF21E22000F032F8002070BDFF21E220B5
:1040600000F02CF8012070BD52582073656E64205A
:1040700061636B210D0A00002DE9F0410D4D1646DC
:104080000F460446002280212846FCF7ABFD20465F
:1040900002F0E6FF04461023324639460648FDF793
:1040A000CAFB012280212846FCF79CFD2046BDE882
:1040B000F081000000040240F808002070B50B4DAC
:1040C0000E460446002280212846FCF78BFD204640
:1040D00002F0C6FF0446304602F0C2FF01228021F2
:1040E0002846FCF77FFD204670BD0000000402401A
:1040F0002DE9F04798461746824600260C46DDF823
:10410000209011E02146504600F016F9554607E090
:1041100019F806000121761C02F0B2FF6D1CEDB209
:10412000BD42F5D3641CE4B24445EBD3BDE8F0874F
:1041300010B500218D2002F0A3FF0021142002F011
:104140009FFF0021BDE81040AF2002F099BF0000A2
:1041500070B5802817D2002915DB3F2913DCCB1757
:1041600001EB5375C5F3C70325F007050124094E7C
:10417000491B8C4006EBC000012A05D0C15C022A15
:1041800005D0A143C15470BDC15C2143FAE7614031
:10419000F8E70000BE02002010B50021AE2002F0BA
:1041A0006FFF0021202002F06BFF0021102002F0A1
:1041B00067FF0021B02002F063FF0021C82002F059
:1041C0005FFF0021084602F05BFF0021102002F093
:1041D00057FF0021402002F053FF0021812002F010
:1041E0004FFF0021FF2002F04BFF0021A12002F031
:1041F00047FF0021A62002F043FF0021A82002F083
:104200003FFF00213F2002F03BFF0021A42002F0ED
:1042100037FF0021D32002F033FF0021084602F0CF
:104220002FFF0021D52002F02BFF0021F02002F00B
:1042300027FF0021D92002F023FF0021222002F0D5
:104240001FFF0021DA2002F01BFF0021122002F0E4
:1042500017FF0021DB2002F013FF0021202002F0D5
:104260000FFF00218D2002F00BFF0021142002F02F
:1042700007FF0021BDE81040AF2002F001BF0000A1
:10428000F0B500210D4BFF260C46002201280FD06F
:1042900003EBC20580B16F5CC7F1FF076F54521C7E
:1042A000D2B2802AF2D3491CC9B20829EDD3F0BD9D
:1042B00003EBC2056E54F2E76C54F0E7BE02002037
:1042C0000FB4042870B50C46054613D8142C11D829
:1042D0000A4E07AA0A483260069900F079FDC4F137
:1042E0001501074A0020C9B23060505421462846C3
:1042F00000F072F870BC5DF814FB00008C01002027
:104300003E02002070B50B4E00242146002000F034
:1043100013F8002506EBC5000121005D02F0B0FE98
:104320006D1CEDB2802DF5D3641CE4B2082CECD3E7
:1043300070BD0000BE02002010B50446B031C8B206
:10434000002102F09DFE102040EA1410002102F02E
:1043500097FE04F00F00BDE81040002102F090BE6F
:104360002DE9F04F01EB410100EB400049068006CA
:10437000040E203A4FEA1169D0B2164900EB400012
:10438000A046002501EB800B00261BF805704FFAB4
:1043900089FA380601D5012200E0002261B25046B8
:1043A000FFF7D6FE7806641C070EE4B2A4EB080003
:1043B0000C2809D0761CF6B2082EEAD36D1CEDB29B
:1043C0000C2DE1D3BDE8F08F09F10100444600F067
:1043D000FF09F3E79B710008F0B517460C46064647
:1043E00000250CE021463046FFF7BAFF641CE4B21A
:1043F000142C02D90024761CF6B26D1CEDB27A5D45
:10440000002AEFD1F0BD000070B504460068354EBB
:10441000002806DD002240213046FCF7E3FB0122A4
:1044200005E0012240213046FCF7DCFB0022202180
:104430003046FCF7D7FB60682B4D002806DD0022D4
:1044400001212846FCF7CEFB012205E0012211469E
:104450002846FCF7C7FB002280213046FCF7C2FB50
:10446000A068002806DD012202212846FCF7BAFBDD
:10447000002205E0002202212846FCF7B3FB0122BE
:1044800004212846FCF7AEFBE068002806DD012287
:1044900008212846FCF7A6FB002205E0002208219F
:1044A0002846FCF79FFB012210212846FCF79AFBC7
:1044B0002068FCF721FA0D4980B20A685063A068B1
:1044C000FCF71AFA0A6880B290636068FCF714FA85
:1044D0000A6880B2D063E068FCF70EFA096880B21F
:1044E000086470BD000C024000100240500900201A
:1044F0007047000010B5154C002240212046FCF703
:1045000071FB052212492A20FFF7B6FD0121212067
:10451000FFF7D4FD01212220FFF7D0FD3221252015
:10452000FFF7CCFD20213120FFF7C8FD0F21262009
:10453000FFF7C4FD0F212020FFF7C0FD2046012218
:10454000BDE810404021FCF74DBB000000040240D4
:1045500096710008F8B5044640684FF4827398429B
:1045600021D1A0684FF48065B0F5004F01D0A8427A
:104570000AD12068066826F0400606606068984206
:1045800011D1A068A8420ED000920B4600228021D3
:10459000204600F039F8002804D0606D40F020007B
:1045A00060650320F8BD00920B4600220121EFE771
:1045B00038B504461248134B0068B0FBF3F04FF4D3
:1045C0007A73584300906068B0F5827F0DD10B4636
:1045D000009200228021204600F016F870B1606D34
:1045E00040F020006065032038BD009830B1401EC7
:1045F000009020688068C0430006F6D5002038BDD2
:10460000C401002000366E012DE9F8431E46914694
:1046100088460446089DFCF7EBFA401B351AFCF768
:10462000E7FA074625480068C0F3CB30684338E016
:10463000701C37D0FCF7DCFAC01BA84203D215B1BE
:10464000009860B32CE02068416821F0E0014160EF
:104650006068B0F5827F0BD1A068B0F5004F02D042
:10466000B0F5806F04D12068016821F0400101603D
:10467000A06AB0F5005F09D12068016821F40051FB
:1046800001602068016841F400510160012084F854
:104690005100002084F850000320BDE8F883002575
:1046A000401E00902068816838EA010004D0002193
:1046B0004945BDD10020F0E70121F9E7C401002000
:1046C0007047FCF72BBC000030B593B03021684632
:1046D000FBF7AEFD14210CA8FBF7AAFD1C48002532
:1046E000016841F080510160006800F08050119035
:1046F0001848016841F4804101600068022400F418
:1047000080401190012003901020049000940694A2
:104710000820CDE90750A820CDE9090404200B901A
:104720006846FCF77FFD08B172B6FEE70CA90F20C2
:1047300081E831004FF4A0500F90109005210CA893
:10474000FCF786FC002801D072B6FEE713B030BD3E
:1047500040380240007000400248016841F4700196
:104760000160704788ED00E00148FDF735BD0000AD
:10477000980900200148FDF72FBD0000280A0020FD
:104780000148FDF729BD0000700A00200148FDF72F
:1047900023BD0000B80A00200148FDF71DBD000040
:1047A000000B0020F0B50268254C264D264E274F01
:1047B000274B4FF0804CA04209D0604507D0A8425B
:1047C00005D0B04203D0B84201D0984204D122F0C3
:1047D000700E4A6842EA0E02A0421BD0604519D012
:1047E000A84217D0B04215D0B84213D0984211D089
:1047F000184DA8420ED0184DA8420BD0174DA84214
:1048000008D0174DA84205D0164DA84202D0164D2B
:10481000A84203D122F44075CA682A434D6922F0A8
:1048200080022A4302608A68C2620A688262A042E9
:1048300001D0984201D10969016301214161F0BDB4
:10484000000001400004004000080040000C00404F
:104850000004014000400140004401400048014084
:1048600000180040001C00400020004010B501F07E
:104870001F030121046A99408C430462016A9A4033
:104880001143016210BD10B5846842EA032224F48A
:104890007F440A432243826010BD826822F0700286
:1048A0000A4342F00701816070470000F0B5026AD8
:1048B00022F001020262036A42688469124E24F007
:1048C00073050C682C4323F002058B682B430D4DB8
:1048D000A84201D0B04205D123F00807CB683B4382
:1048E00023F00403A84201D0B04205D14D6922F45F
:1048F000407215438A692A43426084614968416372
:104900000362F0BD0000014000040140F0B5026AFE
:1049100022F010020262026A436884690D6824F47E
:10492000E64444EA05248D6822F0200242EA05129A
:104930000F4D104EA84201D0B04206D1CF6822F0F0
:10494000800242EA071222F04002A84201D0B0429F
:1049500007D14D6923F4406343EA85038D6943EA37
:10496000850343608461496881630262F0BD000091
:104970000000014000040140F0B5026A22F4807298
:104980000262026A4368C46922F4007224F073056B
:104990000C68124E2C438D6842EA05220E4DA84247
:1049A00001D0B04206D1CF6822F4006242EA072269
:1049B00022F48062A84201D0B04207D14D6923F4AD
:1049C000405343EA05138D6943EA05134360C4610C
:1049D0004968C1630262F0BD00000140000401406B
:1049E00030B5026A22F480520262046A4268C369E6
:1049F0000D6823F4E64343EA05238D6824F400544C
:104A000044EA0534084DA84202D0084DA84204D11A
:104A10004D6922F4804242EA85124260C3614968CE
:104A20000164046230BD0000000001400004014048
:104A300010B5036A046A24F001040462846924F056
:104A4000F00444EA021423F00A020A438461026279
:104A500010BD10B5036A23F0100303628369046A72
:104A600023F4704343EA023224F0A00343EA011125
:104A70008261016210BD10B5806B0021C185C184C7
:104A8000FEF756FB10BD01680C3151E8002F22F4EF
:104A9000907241E80023002BF5D10168143151E8F0
:104AA000002F22F0010241E80023002BF5D1016B19
:104AB000012909D101680C3151E8002F22F01002C0
:104AC00041E80023002BF5D1202180F83E10002181
:104AD0000163704708B590F83E10222901D00220EA
:104AE00008BD82684FF480539A4201D1016921B117
:104AF000816A9A421BD04AB10AE00268816A526810
:104B0000C2F308020A80816A891C08E0026972B156
:104B10000268526802F07F020A70816A491C816251
:104B2000C18D491E0904090CC18503D019E0026832
:104B30005268F1E70168CA6822F02002CA60016881
:104B4000CA6822F48072CA6001684A6922F00102D0
:104B50004A61202180F83E10016B012903D0FEF745
:104B60008DFC002008BD0021016301680C3151E873
:104B7000002F22F0100241E80023002BF5D101683C
:104B80000A68D20602D50A6849680091818DFEF74D
:104B9000CEFAE6E730B41F48AA2510EE101A0570C9
:104BA0004570F12585701025C5700D0E05710D0C31
:104BB000457110EE904A0D0A8571C171210E017286
:104BC000210C417211EE103A210A8172C472190E41
:104BD0000173190C4173190A11EE902A8173C37382
:104BE000110E0174110C4174110A8174C2741422E3
:104BF0000021084B08461C5C401C2144C0B2C9B2CD
:104C00009042F8D3995430BC02490348521CFEF735
:104C100090BC000002020020680C002070B5044621
:104C200000680169E26821F4405111430161216982
:104C3000A068E26908436169114308432168CA68B2
:104C400049F20C639A430243CA6020684169A26931
:104C500021F440711143416131492068884202D0FA
:104C60003049884202D1FCF79DFA01E0FCF78AFA4C
:104C7000E2690023192164253226B2F5004F6268EB
:104C800028D0A0FB0101930F9200FBF799FA01468F
:104C9000B0FBF5F06FF01802504301EB800006EB1B
:104CA0000010B0FBF5F000F0F002B1FBF5F002EB04
:104CB0000012B1FBF5F06FF01803584301EB8000D0
:104CC00006EB0010B0FBF5F000F00F002168104477
:104CD000886070BDA0FB010192185B41FBF770FA80
:104CE0000146B0FBF5F00201B1FBF5F06FF01803DF
:104CF000584301EB800006EBC000B0FBF5F000F07C
:104D0000F80002EB4002B1FBF5F0584301EB8000E4
:104D100006EBC000B0FBF5F000F00700D6E700009E
:104D200000100140001401402DE9F041984617465B
:104D30000E460446069D27E0681C25D02DB1FBF7E2
:104D400057FFA0EB0800A8421ED920680C3050E89D
:104D5000001F21F4D07140E80012002AF5D120682C
:104D6000143050E8001F21F0010140E80012002A31
:104D7000F5D1202084F83D0084F83E00002084F81E
:104D80003C000320BDE8F0812068006836EA00009E
:104D900004D00020B842CFD00020F3E70120F9E78B
:104DA0000148FEF7C7B90000680C0020FEE70000CC
:104DB0000FB4054B10B503A9044A029801F044F959
:104DC00010BC5DF814FB000099670008C8010020C2
:104DD00037B514460846064B6A46214601F034F9B9
:104DE00004466946002001F0C6FC20463EBD000096
:104DF0007767000803B401984100009850EAC12089
:104E000018BF04204A0D18BF40F0010040F2FF72A5
:104E1000B2EB515F08BF40F00200012808BF052037
:104E200002B070470907090E002804DB00F1E020FA
:104E300080F80014704700F00F0000F1E02080F8C7
:104E4000141D70470000000070B5C1482DED020B25
:104E50002DED0E8B82B0119D25F000449FEDBEDB41
:104E60009FEDBFEB84423EDBA4F140511098A1F1CD
:104E70007F6108430FD0BC48844202DC28D11098DF
:104E800030B39DED100B02B0BDEC0E8B02B0BDE84F
:104E9000704000F0E5BF9DED100B53EC1D2B51EC65
:104EA000100BFBF777FA9DED100B41EC180B53EC50
:104EB0001E2B51EC100BFBF76DFA53EC182BFBF784
:104EC000C2F941EC100B02B0BDEC0E8B02B070BD0C
:104ED000012001F001F802B0BDEC0E8B02B0BDE87C
:104EE000704000F0C9BFA1489FEDA18B844256DA03
:104EF0009DED100BB4F1795F0ADA51EC100BFFF75E
:104F000079FF042808BF00F0C7FF9DED100BDAE71A
:104F100053EC102B51EC100BFBF73CFA41EC190B46
:104F200095480621B0EE490AF0EE690A784400F08F
:104F300083FE53EC192B51EC100BFBF72BFA41ECD1
:104F40001A0B8E48B0EE490AF0EE690A0421784443
:104F500000F072FE53EC192B51EC100BFBF71AFA10
:104F600053EC182BFBF76FF941EC100B51EC1A0BBB
:104F700053EC102BFBF780FACDE900019DED000BFF
:104F800053EC102B9DED100B51EC100BFBF702FABC
:104F90009DED101B53EC112BFBF755F9D2E09DED65
:104FA000100B51EC100B01F0EBFB53EC182BFBF743
:104FB000EEF99FED730BCDE9000153EC102B9DED45
:104FC000000B51EC100BFBF7E5F941EC190B6E48A7
:104FD0000621B0EE490AF0EE690A784400F02CFE92
:104FE00053EC192B51EC100BFBF7D4F941EC1B0BD4
:104FF0006648B0EE490AF0EE690A0421784400F0F0
:105000001BFE53EC192B51EC100BFBF7C3F953ECBF
:10501000182BFBF718F941EC1C0B51EC190B02F0A3
:1050200083F841EC180B5A489FED5BABA04222DCA1
:1050300053EC1C2B51EC1B0BFBF71EFACDE90001C6
:105040009DED000B51EC180B53EC102BFBF7A2F964
:1050500053EC182BFBF7F7F853EC1A2BFBF79AF9E4
:1050600053EC1D2BFBF790F953EC1E2BFBF78FF93C
:1050700041EC100B5FE08DED008B002000909DED6A
:10508000000B51EC180B53EC102BFBF7DCF89DEDEB
:10509000000B41EC1E0B53EC102B51EC100BFBF7EB
:1050A00079F953EC192BFBF772F953EC1E2BFBF734
:1050B000E3F941EC190B53EC1C2B51EC1B0BFBF7E8
:1050C000DBF941EC1B0B53EC1A2B51EC190BFBF7E2
:1050D00061F953EC1D2BFBF75AF941EC190B53EC1A
:1050E0001A2B51EC180BFBF755F953EC1B2BFBF764
:1050F00051F953EC192BFBF747F99DED000B41ECEF
:10510000180B53EC1A2B51EC100BFBF743F99FEDE6
:10511000249B53EC192BFBF73AF941EC100B51ECA3
:10512000180B53EC102BFBF72FF953EC192BFBF753
:105130002EF941EC100B002D3FF7C5AE51EC100BD2
:1051400081F0004141EC100BBDE6000000000000C2
:105150000000F03F00000000075C143326A6913CDD
:10516000182D4454FB21F93F0000F07F0000E03F80
:10517000000000000000F03FF82A0000062B0000AD
:10518000000000000000E03F4A2A0000582A00000A
:105190003333EF3F0000000000000000000000403B
:1051A000182D4454FB21E93F70B59B482DED020BAF
:1051B0002DED068B079D25F00044A04218DC974892
:1051C000844202DC0AD1069840B19DED060BBDEC8D
:1051D000068B02B0BDE8704000F042BE002DCCBF8F
:1051E0009FED8F0B9FED900BBDEC068B02B070BD59
:1051F0008F48A04215DD8F48A042D8BF4FF0FF3442
:1052000058DD9DED060B51EC100BFFF7F3FD042864
:1052100008BF00F041FE9DED060BBDEC068B02B011
:1052200070BD9DED060B51EC100B01F0A9FACDE914
:10523000060181489FED828BA0423CDD8248A0425E
:105240001FDD00249FED82AB9DED060B53EC1A2B66
:1052500051EC100BFAF7F7FF9DED060B41EC190B23
:1052600053EC1A2B51EC100BFBF794F853EC182B62
:10527000FBF78AF853EC192BFBF7FEF8CDE9060192
:1052800049E09DED060B012453EC182B51EC100B5B
:10529000FAF7D9FF9DED060B41EC190B53EC182BD7
:1052A00051EC100BFBF770F853EC192BFBF7E4F8FB
:1052B000CDE906012FE06848A0421FDD02249FEDE2
:1052C000689B9DED060B53EC192B51EC100BFBF773
:1052D00061F853EC182BFAF7B6FF9DED060B41EC85
:1052E000180B53EC192B51EC100BFBF74DF853EC4A
:1052F000182BFBF7C1F8CDE906010CE09DED060B7C
:10530000032453EC102B9FED580B51EC100BFBF7C3
:10531000B3F8CDE906019DED060B53EC102B51ECD3
:10532000100BFBF737F841EC180B53EC182BFBF77D
:1053300031F841EC190B4E480621B0EE490AF0EE67
:10534000690A784400F078FC53EC182B51EC100BF0
:10535000FBF720F841EC180B4648B0EE490AF0EE96
:10536000690A0521784400F067FC53EC192B51ECD5
:10537000100BFBF70FF841EC100B51EC180B53EC32
:10538000102B002C0EDAFAF75EFF9DED061B53EC96
:10539000112BFAF7FFFF9DED061B53EC112BFAF7CB
:1053A000F6FF35E0FAF74FFF9DED061B53EC112B8E
:1053B000FAF7F0FF41EC100B2F48784400EBC400E3
:1053C00090ED001B51EC100B53EC112BFAF7DCFFA6
:1053D0009DED061B53EC112BFAF7D6FF41EC100B99
:1053E0002648784400EBC40090ED001B51EC100BF4
:1053F00053EC112BFAF7CBFF41EC100B002DA2BFA1
:10540000BDEC068B02B070BD51EC100B81F0004179
:1054100041EC100B01E70000000010440000F07F99
:10542000182D4454FB21F93F182D4454FB21F9BF9A
:105430000000DC3F0000203E0000F33F00000000C1
:10544000000000000000F03F0000E63F0000000008
:105450000000000000000040008003400000000049
:10546000000000000000F83F000000000000F0BF56
:105470009A27000050270000DA260000922600003C
:1054800010B52F499FED2C1B2DED020B84B0059814
:1054900020F000408842D8BF9DED040B2DDD294946
:1054A000884209D1049840B94FF0010000F014FD82
:1054B00000F0E2FC06B010BD05DB9DED040B00F032
:1054C000CFFC06B010BD68469DED040B00F0E0F87F
:1054D00010F0030004BF9DED021B9DED000B0CD0EE
:1054E00001280ED09DED021B9DED000B022817D068
:1054F000012000F01DFC06B010BD00F0E5FA06B07A
:1055000010BD9DED021B9DED000B012000F010FC75
:1055100051EC100B81F0004106B041EC100B10BDB6
:1055200000F0D2FA51EC100B81F0004106B041ECD2
:10553000100B10BD00000000000000000000000083
:10554000FB21E93F0000F07F10B52F499FED2C1B98
:105550002DED020B84B0059820F000408842DCBF9E
:1055600000209DED040B32DD2849884209D10498C2
:1055700040B94FF0010000F0AFFC00F07DFC06B038
:1055800010BD05DB9DED040B00F06AFC06B010BDFC
:1055900068469DED040B00F07BF810F0030011D07D
:1055A000012818D09DED021B9DED000B02281AD09A
:1055B00000F08AFA51EC100B81F0004106B041EC8A
:1055C000100B10BD9DED021B9DED000B012000F0A6
:1055D000AFFB06B010BD9DED021B9DED000B00F072
:1055E00073FA06B010BD012000F0A2FB51EC100BC5
:1055F00081F0004106B041EC100B10BD000000002E
:105600000000000000000000FB21E93F0000F07FE7
:1056100000B52DED048BB0EE409AF0EE609A83B0A9
:1056200051EC190BFBF7B4F841EC180B18EE100A0B
:1056300018EE901A8DED008B002818BF012008434A
:1056400020F00040C0F17F6000F1E040C00F14D0B6
:1056500019EE101A19EE900A8DED009B002918BF63
:105660000121084320F00040C0F17F6000F1E040DC
:10567000C00F04BF012000F02FFCB0EE480A03B0B9
:10568000F0EE680ABDEC048B00BD000000000000D5
:105690002DE9F14F04462DED020B2DED088B8AB05C
:1056A0009FEDE70B80ED020B139EE74826F00045C7
:1056B00085420ADC9DED120B002084ED000B0AB040
:1056C000BDEC088B03B0BDE8F08FE0489FEDE0AB88
:1056D0009FEDE1BBA84247DDE14F9FEDE39B9FEDCE
:1056E000E48B9DED120B53EC1A2B51EC100B002E9A
:1056F0001CDDFAF749FE41EC100BBD4208D053EC1B
:105700001B2B51EC100BFAF73FFEC4E900010BE034
:1057100053EC192B51EC100BFAF736FE53EC182B07
:10572000FAF732FEC4E900010120C8E7FAF78BFD61
:1057300041EC100BBD4208D053EC1B2B51EC100B6D
:10574000FAF781FDC4E900010BE053EC192B51EC91
:10575000100BFAF778FD53EC182BFAF774FDC4E937
:1057600000014FF0FF30AAE7C348A84279DB9DED66
:10577000120B51EC100B01F003F841EC180B9FEDEC
:10578000C00B53EC102BFAF705FE9FEDBF1B53EC3B
:10579000112BFAF758FDFAF7EFFE0746FAF7DBFE92
:1057A00041EC190B53EC1A2BFAF7F4FD53EC182BC0
:1057B000FAF7EDFD41EC180B53EC1B2B51EC190BD8
:1057C000FAF7E8FDDFF8C8A241EC100B4FEA1558D4
:1057D0000125FA4453EC102B51EC180BFAF7D4FDC9
:1057E000032DC4E900013DD0C1F30A5005EB45117A
:1057F000A8EB00001139814234DA0AEB051BB0EE48
:1058000048AA9BED000BF0EE68AA53EC102B51EC6C
:10581000190BFAF7BFFD41EC1B0B51EC1A0B53ECC3
:105820001B2BFAF7B1FD41EC180B51EC1A0B53ECA2
:10583000182BFAF7A9FD53EC1B2BFAF7A5FD9BEDEE
:10584000020B41EC1A0B53EC102B51EC190BFAF72D
:10585000A1FD53EC1A2BFAF797FD41EC100B6D1CD0
:10586000B8E70EE0002EA8BF3846BFF628AF94ED8B
:10587000000B51EC100B81F00041C4E900017842AB
:105880001DE7C6F3130040F4801EC6F30A50A0F2D1
:10589000F530471100F01F05C5F12000DDF848B0D4
:1058A00008900020069007900520EC467949002DCD
:1058B00007EB0002794408BF51F8221009D051F8D3
:1058C000223001EB8201AB404A68089922FA01F1CB
:1058D0001943A1FB0E26A1FB0B131A449A4234BFB5
:1058E0000123002303EB06080CEB8003D3E901A698
:1058F0000E448E4234BF0121002192448A4411B1EA
:10590000924502D903E0924501D2012100E0002135
:10591000C3E901A641444CF82010011EA0F101008A
:10592000C4DC029800F10050850F0298DDE903679E
:105930008000DDF81480FAF70EFE41EC1A0B3046B9
:10594000FAF7A2FF9FED541B53EC112BFAF722FD3F
:1059500041EC1B0B3846FAF797FF9FED511B53ECB8
:10596000112BFAF717FD41EC180B4046FAF78CFFA4
:105970009FED4D1B53EC112BFAF70CFD41EC190B6D
:1059800051EC180B53EC192BFAF75DFC53EC1B2B65
:10599000FAF759FC53EC1A2BFAF755FCCDE908013C
:1059A000002008909DED080B53EC1A2B51EC100BC6
:1059B000FAF7EAFC53EC1B2BFAF7E6FC53EC182B36
:1059C000FAF7E2FC53EC192BFAF7E1FC9FED381BD8
:1059D00053EC112BFAF7DEFC9FED370B41EC180B63
:1059E00053EC102B9DED080B51EC100BFAF7D2FC89
:1059F00053EC182BFAF727FC9FED310B41EC180BF9
:105A000053EC102B9DED080B51EC100BFAF7C2FC78
:105A100053EC182BFAF717FC41EC100B139810F00D
:105A2000004F06D06D4251EC100B81F0004141EC6B
:105A3000100B284684ED000B41E60000000000003A
:105A40000000000000000000FB21E93F7CD902407B
:105A500000004054FB21F93F3163621A61B4D03D2C
:105A6000FB21F93F000000000000601A61B4D03D46
:105A70007370032E8A19A33BFB21394100000000FB
:105A800083C8C96D305FE43F000000000000E03FC4
:105A90006A230000B8220000000000000000103E51
:105AA000000000000000103C000000000000103A60
:105AB000182D4454FB21F93D3326A611460B113C09
:105AC00000000054FB21F93D10B52DED040B2DED28
:105AD000088B82B0B0EE419AF0EE619A0B9820F0FC
