:020000040800F2
:10000000301000209D0100085F3A0008933000087E
:100010005D3A0008FB080008DD4800080000000009
:10002000000000000000000000000000F141000896
:10003000FD0800080000000021400008F34100080E
:10004000B7010008B7010008B7010008B7010008B0
:10005000B7010008B7010008B7010008B7010008A0
:10006000B7010008B7010008B7010008B701000890
:10007000B7010008B7010008B7010008B701000880
:10008000B7010008B7010008B7010008B701000870
:10009000B7010008B7010008B7010008B701000860
:1000A000B7010008B7010008B7010008B701000850
:1000B00099420008B7010008A5420008B7010008EE
:1000C000B7010008B7010008B7010008B701000830
:1000D000B7010008D1480008B7010008B7010008BF
:1000E000B7010008B7010008B7010008B701000810
:1000F000B7010008B7010008B7010008B701000800
:10010000B7010008B7010008B1420008B7010008B4
:10011000B7010008B7010008BD420008C942000845
:10012000B7010008B7010008B7010008B7010008CF
:10013000B7010008B7010008B7010008B7010008BF
:10014000B7010008B7010008B7010008B7010008AF
:10015000B7010008B7010008B7010008B70100089F
:10016000B7010008B7010008B7010008B70100088F
:10017000B7010008B7010008B7010008000000003F
:10018000B7010008B7010008DFF80CD000F04CFB05
:100190000048004789630008301000200648804767
:1001A00006480047FEE7FEE7FEE7FEE7FEE7FEE75C
:1001B000FEE7FEE7FEE7FEE7894200088901000846
:1001C0002DE9F05F0546002092469B46884606468C
:1001D000814640241BE0284641464746224600F01F
:1001E0003AFA53465A46C01A914110D3114618465E
:1001F000224600F021FA2D1A67EB01084F462246ED
:100200000120002100F018FA17EB00094E41201ED2
:10021000A4F10104DFDC484631462A464346BDE8E6
:10022000F09FD2B201E000F8012B491EFBD27047CB
:100230000022F6E710B513460A4604461946FFF7B2
:10024000F0FF204610BD2DE9FE4F804681EA0300F5
:10025000C00F0C46009021F0004123F00045B8EBA0
:100260000200A94105D24046214690461C460B4655
:10027000024623F00040104347D0270DC7F30A0081
:10028000C3F30A510290401A019040286BDAC3F37D
:10029000130040F4801B0098924620B10023D2EB5B
:1002A000030A63EB0B0B01985946C0F1400250461C
:1002B00000F0C2F906460D4650465946019A00F034
:1002C000DAF910EB08006141002487EA115284EA50
:1002D000E7731A4340D0009A62B3019A012A4FEAA9
:1002E000075215DC001B61EB02014FF0004202EAED
:1002F0000752CDE90042001C41F5801132462B46E1
:1003000000F0DAF903B0BDE8F08F40462146F9E786
:10031000001B61EB0201001C41F5801300185B41DA
:100320002018A2F5001747EB030140EAD570B61973
:100330006D4111E06D084FEA360645EAC0754FEA97
:100340000752001B61EB0201001C41F580114908B6
:100350004FEA30000019514132462B4603B0BDE848
:10036000F04F00F09AB90098012240000023D0EB32
:10037000020263EBE073009821464FEAE074B8EBA9
:10038000000061EB0401E9E783F000435BE781F0E3
:10039000004158E72DE9FE4F81EA030404F00044D0
:1003A00021F0004100944FF0000B23F0004350EA8D
:1003B00001045ED052EA03045BD0C3F30A54C1F3D4
:1003C0000A552C44A4F2F3340194A0FB0254C1F367
:1003D000130141F48011C3F3130343F4801301FBB1
:1003E000024400FB034E840A970A44EA815447EA18
:1003F0008357A4FB076802958D0A05FB07854FEA22
:10040000932C04FB0C542705029D4FEA065847EA3B
:100410001637B5EB08056EEB070C870E920E47EA10
:10042000811742EA8312A7FB0201B6EB0B0164EBD2
:1004300000042B0D43EA0C335E1844EB1C50DA46E3
:100440005146E7FB0201C5F313044FEA0B3343EABD
:1004500014534FEA0432019C43EA0603A4F10C044E
:100460000294009CCDE900B400F026F903B0BDE889
:10047000F08F00200146F9E72DE9F04D81EA0304F1
:1004800004F0004B21F0004514464FF0000A23F021
:10049000004150EA050220D054EA01021DD0C5F304
:1004A0000A570246C5F31303C1F31300C1F30A56FA
:1004B00040F4801543F48013A7EB0608101BD646C2
:1004C00008F2FD3873EB050002D308F1010801E0E2
:1004D00092185B41B8F1000F03DA00200146BDE835
:1004E000F08D00204FF48011064684460EE0171B65
:1004F00073EB050705D3121B63EB050306434CEAB8
:10050000010C49084FEA300092185B4150EA01079C
:10051000EDD152EA030012D082EA040083EA050119
:10052000084305D0101BAB4106D20122002306E090
:1005300000224FF0004302E06FF0010253101AEB6B
:1005400006004CEB085110EB0A0041EB0B01BDE833
:10055000F04D00F0A2B80EB5C10F80EAE07008447B
:10056000CA07002140F233438DE80E000A460B46CD
:1005700000F0A2F803B000BDC1F30A5210B5C1F3F8
:10058000130140F2FF3341F480119A4201DA002056
:1005900010BD40F233439A42A2F2334203DC52428E
:1005A00000F059F810BD904010BD000030B5041E99
:1005B00071F1000404DB4FF00044404264EB0101A0
:1005C000141E73F1000405DB1C464FF00043524239
:1005D00063EB04038B4208BF824230BD30B5041E7A
:1005E00071F1000404DB4FF00044404264EB010170
:1005F000141E73F1000405DB1C464FF00043524209
:1006000063EB0403994208BF904230BD30B50B46FE
:10061000014600202022012409E021FA02F59D4232
:1006200005D303FA02F5491B04FA02F52844151E06
:10063000A2F10102F1DC30BD202A04DB203A00FAED
:1006400002F1002070479140C2F1200320FA03F329
:10065000194390407047202A04DB203A21FA02F027
:100660000021704721FA02F3D040C2F120029140EC
:10067000084319467047202A06DBCB17203A41FA77
:1006800002F043EAE07306E041FA02F3D040C2F11F
:100690002002914008431946704710B5141E73F1AB
:1006A000000408DA401C41F1000192185B411A4332
:1006B00001D120F0010010BD2DE9F04D92469B467E
:1006C00011B1B1FA81F202E0B0FA80F22032904624
:1006D000FFF7B2FF04460F4640EA0A0041EA0B0169
:1006E00053465A46084313D0114653EA010019D025
:1006F000C8F140025046FFF7AEFF05460E46504691
:1007000059464246FFF798FF084305D0012004E010
:1007100020463946BDE8F08D0020054346EAE076E4
:100720002C4337430A986305E40AA0EB0800002233
:10073000FD0A44EA47540A3002D500200146E9E7A1
:10074000010510196941DDE9084500196941BDE855
:10075000F04DA2E72DE9F04D00231A461B1A8A41FD
:1007600003DB00200146BDE8F08DC1F30A52C1F35E
:10077000130141F480154FF0000BD10702D100188E
:100780006D41521E0027044640F2FF11384601EB2E
:10079000620A3E468046024600204FF48011FFF771
:1007A0005AFFC2197141BB1846EB0100B4EB030CB0
:1007B00075EB000C04D3E41A65EB000517460E46F2
:1007C000241908F101006D4180463428E3DDF91950
:1007D00046EB0600091BA84103D24FF0FF32134637
:1007E00001E0002213461BEB070046EB0A51BDE86F
:1007F000F04DFFF752BFC1F30A52C1F3130140F2AB
:10080000FF3341F480119A4202DA0020014670471A
:1008100040F233439A42A2F2334202DC5242FFF7E3
:100820001ABFFFF709BF0000064C074D06E0E0685D
:1008300040F0010394E8070098471034AC42F6D327
:10084000FFF7A6FC48760008687600080EB540F26F
:10085000334102910021CDE900110A460B46FFF712
:100860002BFF03B000BD70B5C1F30A5201F0004583
:100870000024C1F3130140F2FF3341F480119A4286
:1008800001DA002070BD40F233439A42A2F23342B3
:1008900003DC5242FFF7DFFE00E090402C43F1D032
:1008A000404270BD70B58C1810F8015B15F007035D
:1008B00001D110F8013B2A1106D110F8012B03E0F9
:1008C00010F8016B01F8016B5B1EF9D12B0705D401
:1008D0000023521E0DD401F8013BFAE710F8013B4A
:1008E000CB1A921C03E013F8015B01F8015B521E66
:1008F000F9D5A142D8D3002070BDFEE7704772B68B
:10090000FEE72DE9F0410446876D00F065F90646E3
:1009100094F835000025022806D08020606584F810
:1009200034500120BDE8F0812068016821F01601F3
:1009300001602068416921F080014161206C08B9A3
:10094000A06C20B12068016821F0080101602068D6
:10095000016821F0010101600CE000F03DF9801B0D
:10096000052807D920206065032084F8350084F825
:100970003450D7E720680068C007EED194F85C10C7
:100980003F208840B860012084F8350084F8345056
:100990000020C7E790F83510022903D08021416577
:1009A00001207047052180F835100068016821F0AA
:1009B000010101600020704770B5044600F00CF999
:1009C0000546601C02D004480078044400F004F995
:1009D000401BA042FAD370BDB80100202DE9F84FAA
:1009E000DFF8BCA10022012503264FF00F090AF110
:1009F000040BAAF1040E00BF0B6805FA02F42340B1
:100A0000A34270D10F7907F00307012F01D0022F05
:100A100016D187684FEA420806FA08FC27EA0C0755
:100A2000D1F80CC00CFA08FC4CEA070CC0F808C05E
:100A30004768A7430C79C4F3001494403C434460D6
:100A40000C79E443A4070AD0C4684FEA420C06FAC2
:100A50000CF7BC438F6807FA0CF72743C7600C7983
:100A600004F00304022C12D1D40800EB840CDCF84F
:100A700020405707FF0E09FA07F824EA0804D1F8C6
:100A8000108008FA07F848EA0408CCF820800468C7
:100A90004FEA420C06FA0CF7BC430F7907F0030744
:100AA00007FA0CF7274307604C6814F4403F70D0F6
:100AB0003C4C276847F480472760246822F00307EE
:100AC00004F480440094384C07EB040CDCF808482C
:100AD00097074FEA177809FA08F7BC43334FB84233
:100AE00002D1002724E054E0314FB84201D1012760
:100AF0001EE0304FB84201D1022719E02E4FB84214
:100B000001D1032714E02D4FB84201D104270FE093
:100B10002B4FB84201D105270AE02A4FB84201D134
:100B2000062705E0284FB84201D1072700E0082733
:100B300007FA08F72743CCF80878DAF80040574658
:100B4000D1F804C09C435FEACC2C00D51C433C6028
:100B5000DBF800405F46D1F804C09C435FEA8C2C70
:100B600000D51C433C60DEF800407746D1F804C055
:100B70009C435FEA8C3C00D51C433C60084F083F17
:100B80003C68D1F804C09C435FEACC3C00D51C43D0
:100B90003C60521C102AFFF42FAFBDE8F88F000014
:100BA000083C01404438024000300140000002404F
:100BB0000004024000080240000C02400010024005
:100BC0000014024000180240001C02400AB181617A
:100BD00070470904FBE70000014880687047000087
:100BE000B801002070B5040025D094F83D00002520
:100BF00020B984F83C50204600F04EF9242084F8B7
:100C00003D002068016821F0010101602068016851
:100C100041F4004101602068016821F40041016055
:100C200000F0A4FA4D4A6168914201D84C4900E0B5
:100C30004C49884201D2012070BD4B492368B0FB6A
:100C4000F1F15E6826F03F060E435E6063689342F2
:100C500006D94FF4967359434FF47A73B1FBF3F10D
:100C60002368491C1E6A26F03F06314319626168F9
:100C7000914210D84900401EB0FBF1F2521CC2F361
:100C80000B02042A01D2042022E0B0FBF1F0401C48
:100C9000C0F30B001CE0A268F2B301EBC10303EB4D
:100CA0000116431EB3FBF6F35B1C43F480431B05A4
:100CB00049D092B301EBC10202EB0111401EB0FB1F
:100CC000F1F0401CC0F30B0040F4804040F40040C1
:100CD0002168CA694CF6FF739A431043C861D4E98E
:100CE000071001432068026822F0C002114301602E
:100CF000D4E9030101432068826848F2FF339A4334
:100D000011438160D4E9050108432168CA6822F0D3
:100D1000FF021043C86001E00EE016E020680168A1
:100D200041F0010101602564202084F83D00256325
:100D300084F83E50002070BD01EB4106431EB3FB1A
:100D4000F6F35B1CB3E70120C2E701EB4101401E53
:100D5000B0FBF1F0401CC0F30B00B7E7A086010028
:100D600080841E0000093D0040420F002DE9F84F2D
:100D70001F4690468A460446DDF82890FFF72CFF70
:100D8000054694F83D0020287FD1192301224049CF
:100D90002046009502F00AFA002876D194F83C002B
:100DA000012872D0012084F83C0020680168C9073E
:100DB00003D1016841F0010101602068016821F45C
:100DC00000610160212084F83D00102084F83E007D
:100DD00000262664C4F824806785608D20852D4810
:100DE000E0622B464A465146204602F06BF990B924
:100DF000206841698069009036E02A4649462046CD
:100E000002F053FA50B1206C042804D12068016824
:100E100041F4007101600120BDE8F88F606A21682B
:100E200000780861606A401C6062618D491E6185BE
:100E3000218D491E89B2218522685369DB435B07F6
:100E40000BD451B100781061606A401C6062608D03
:100E5000401E6085208D401E20852A46494620463A
:100E600002F07EF90028CED1208D0028C5D154F89B
:100E70003D0B016841F400710160202004F81E0957
:100E8000E67766770020C7E7FFE70220C4E70000A7
:100E9000020010000000FFFF10B586B004461421C8
:100EA0006846FFF7C5F914492068884221D11348E4
:100EB0000021026842F002020260006800F00200B5
:100EC00005904FF4406000901220CDE9010103200D
:100ED00003900420049069460948FFF77FFD074806
:100EE0001030016841F480010160006800F4800066
:100EF000059006B010BD0000005800403038024098
:100F00000004024002488168027811448160704701
:100F1000B80100200B4810B5016841F40071016070
:100F2000016841F480610160016841F480710160F1
:100F3000032000F06FF80F2000F006F800F024F80E
:100F4000002010BD003C024070B50D4D04464FF42A
:100F50007A712878B1FBF0F00A490968B1FBF0F02A
:100F600000F001FE48B9102C07D200222146501E85
:100F700000F030F800206C6070BD012070BD0000F2
:100F8000B8010020C40100200A4808B5016841F4F6
:100F900080410160006800F4804000900548001F17
:100FA000016841F080510160006800F080500090BD
:100FB00008BD000044380240002809DB00F01F0291
:100FC000012191404009800000F1E020C0F80011AB
:100FD00070470000F0B40E4B1B680C46C3F30223AD
:100FE000C3F10705042D00D90425191D072901D2D5
:100FF000002300E0DB1E012606FA05F1491E214010
:1010000099409E40761E16403143F0BC03F0A2BCCE
:101010000CED00E0064900F0070208684FF6FF03F8
:10102000184040EA0220034A10430860704700005D
:101030000CED00E00000FA052DE9F0470E46050032
:1010400065D0DFF81481D8F80000F7B200F007008F
:10105000B04207D288F80070D8F8000000F007000E
:10106000B04254D128683D4C810712D5400703D5C2
:10107000206840F4E05020602878000703D52068FD
:1010800040F4604020602068A96820F0F000084328
:1010900020602878C0072DD03049686808390128B9
:1010A00012D0022813D0032811D00968890700291B
:1010B0002DDA216821F0030101432160FFF78CFD47
:1010C000814641F2883A0EE009688903EFE7096832
:1010D0008901ECE7FFF780FDA0EB0901514502D93A
:1010E0000320BDE8F0872068696800F00C00B0EBD1
:1010F000810FEFD1D8F80010404601F00701B1424E
:1011000007D90770006800F00700B04201D0012045
:10111000E7E72878400705D52068E96820F4E05023
:10112000084320602878000706D52068296920F444
:10113000604040EAC100206000F038F82168084AA9
:10114000C1F30311515CC8400649086006480068B5
:10115000FFF7FAFE0020C4E7003C024008380240D6
:1011600021740008C4010020BC0100200448054986
:1011700000680968044AC1F38221515CC840704785
:10118000C4010020083802403174000804480549B1
:1011900000680968044AC1F34231515CC840704795
:1011A000C40100200838024031740008154810B509
:1011B000006810F00C02144813D04110042A0FD01C
:1011C000082A0ED10F4C241F2268236802F03F0228
:1011D0005B0207D52068C0F38810A0FB010106E080
:1011E000084610BD2168C1F38811A1FB000100234E
:1011F000FEF7E6FF2168C1F30141491C4900B0FB3D
:10120000F1F010BD083802400024F4002DE9F84F39
:1012100004006ED02078DFF84C93C007A9F10405D4
:101220004AD009F104000168C1F38101012908D005
:101230000068C0F3810002280AD1D9F800004002FA
:1012400006D52868800337D560680028E1D033E0F0
:101250006068B0F5803F10D0B0F5A02F286810D09E
:1012600020F480302860286820F48020286060689E
:10127000A8B1FFF7B1FC06460DE0286840F48030C5
:10128000F4E740F480202860F7E700BFFFF7A4FCF4
:10129000801B642873D828688003F7D50CE0FFF71B
:1012A0009BFC064605E000BFFFF796FC801B642808
:1012B000F0D828688003F7D42078DFF8AC82800764
:1012C0004FF0000A3ED5A748001D016811F00C0F31
:1012D00008D00068C0F3810002280BD1D9F80000C3
:1012E000400207D42868800716D5E068012800D19D
:1012F00012E033E1E068B8B10120C8F80000FFF760
:101300006BFC064605E000BFFFF766FC801B022869
:10131000C0D828688007F7D52868216920F0F80030
:1013200040EAC10028600DE0C8F800A0FFF754FCB7
:10133000064604E0FFF750FC801B02281FD82868EF
:101340008007F7D42078000722D5864F8748616947
:10135000703771B101210160FFF73EFC064604E0E1
:10136000FFF73AFC801B022809D838688007F7D5B8
:101370000EE0C0F800A0FFF72FFC064605E082E073
:10138000FFF72AFC801B02287DD838688007F7D435
:101390002078400768D5DFF8CCB100270BF13C0B73
:1013A000DBF80000C0000BD4DBF8001041F08051E6
:1013B000CBF80010DBF80000012700F0805000900F
:1013C0006B4E3068C00510D4306840F480703060D7
:1013D000FFF702FC009005E0FFF7FEFB0099401AC2
:1013E000022850D83068C005F6D55E4EA0686C362D
:1013F00001280FD00528306810D020F0010030609F
:10140000306820F004003060A068B8B1FFF7E4FB5A
:1014100000900FE0306840F00100F4E740F0040075
:101420003060F7E7FFF7D8FB0099411A41F28830A6
:10143000814266D830688007F4D50EE0FFF7CCFB18
:10144000009007E0FFF7C8FB0099411A41F288308D
:10145000814256D830688007F4D42FB1DBF80010F1
:1014600021F08051CBF80010A069C8B33D49091D97
:101470000968C1F3810102294AD00228504607D0E9
:10148000C8F8600000E03CE0FFF7A6FB04463BE044
:101490004746C8F86000FFF79FFB064605E000BF1F
:1014A000FFF79AFB801B02282BD828688001F7D40D
:1014B000D4E907010843A16A2E4A490802EB014119
:1014C000626A41EA8211084394F82C1040EA0161F3
:1014D000C9F8001001203866FFF77EFB044606E0DD
:1014E0003EE000BFFFF778FB001B022809D8286800
:1014F0008001F7D534E000BFFFF76EFB001B022828
:1015000002D90320BDE8F88F28688001F4D427E0D1
:101510000128F7D0D9F80000E26900F48001914277
:101520001CD1226A00F03F01914217D147F6C071E9
:10153000626A0140B1EB821F10D1A26A4FF0FF3303
:1015400000F4403103EB5202B1EB024F06D194F8A4
:101550002C1000F07060B0EB016F01D00120D1E7DA
:101560000020CFE70438024000004742800E474287
:10157000007000400000FFFF70B5040009D0606AF1
:10158000002540B125616561A56294F8510040B124
:101590000CE0012070BD6068B0F5827FF4D0E56199
:1015A000F2E784F85050204600F044F8022084F816
:1015B00051002068016821F040010160A088218964
:1015C00000F4827001F404410843A18901F4006130
:1015D0000843217C01F002010843217D01F0010153
:1015E0000843218B01F400710843217F01F0380189
:1015F000084394F8201001F080010843218D01F484
:101600000051084321680860A069042101EA1040E4
:1016100094F8241001F01001084321684860206804
:10162000C16921F40061C1616565012084F8510040
:10163000002070BDF0B587B0044614216846FEF75F
:10164000F7FD1C492068884232D11B4800240168FC
:1016500041F480510160006800F480500590164804
:101660001438016841F001010160016801F00101D5
:101670000591016841F0020101600068022500F057
:10168000020005906020CDE9000502AA0326052787
:1016900082E8D00069460948FFF7A0F92020CDE98B
:1016A000000502AA694682E8D0000548FFF796F9CE
:1016B00007B0F0BD00300140443802400000024055
:1016C000000402402DE9F84F044640680025984682
:1016D00016460F464FF0040BB0F5827F01D1A0688B
:1016E00088B194F85000012818D0012084F85000E7
:1016F000FFF772FA814694F851004FF0000A012872
:101700000ED0022582E084F851B013460A462046E6
:10171000CDF8008000F036F9BDE8F88F0220FBE735
:10172000002F72D0002E70D084F851B0C4F854A0AD
:10173000A763A687E687C4F830A0A4F834A0A4F86D
:1017400036A0C4F840A0C4F844A0A068B0F5004F8B
:1017500009D12068016821F040010160206801681A
:1017600021F48041016020680168490603D40168C2
:1017700041F040010160E068D8B139E0206881683B
:10178000C90709D0007BA16B0870A06B401CA06347
:10179000E08F401EE0870CE0FFF71EFAA0EB090186
:1017A000414503D3B8F1FF3F03D036E0B8F1000F55
:1017B00033D0E08F0028E1D11DE020688168C9079F
:1017C00009D0C068A16B0880A06B801CA063E08F6B
:1017D000401EE0870CE0FFF7FFF9A0EB090141454F
:1017E00003D3B8F1FF3F03D017E0B8F1000F14D0D6
:1017F000E08F0028E1D14A464146204602F042FCF3
:1018000008B120206065606D00B10125012084F8D9
:10181000510084F850A028467EE70325F6E72DE91D
:10182000F84F044690F8500000271D46164689469A
:1018300001280DD04FF0010B84F850B0FFF7CCF920
:10184000804694F85100BA46012804D0022793E05C
:101850000220BDE8F88FB9F1000F73D0002E71D0CF
:10186000032084F85100C4F854A0C4F83090A68630
:10187000E686C4F838A0A4F83CA0A4F83EA0C4F8BA
:1018800044A0C4F840A0A068B0F5004F09D120687A
:10189000016821F0400101602068016841F4804145
:1018A000016020680168490603D4016841F04001E5
:1018B0000160E068B0F5006F606803D030B3012EBE
:1018C00024D041E008B1012E1CD1206B2168008892
:1018D000C86006E020688168890709D5216B0988FE
:1018E000C160206B801C2063E08E401EE08609E012
:1018F000FFF772F9A0EB0800A84202D3681C01D0E0
:1019000031E07DB3E08E0028E4D120E0206B216837
:101910000078087306E020688168890709D5216B83
:1019200009780173206B401C2063E08E401EE08626
:101930000AE0FFF751F9A0EB0800A84203D3681CA6
:1019400002D010E017E06DB1E08E0028E3D14246EE
:101950002946204602F0C4FB08B120206065A0683B
:1019600018B106E0FFE7032706E02068C168806839
:101970000090606D00B1012784F851B084F850A048
:10198000384666E72DE9F84F044690F850000027E6
:101990000A9E1D4692468B464FF0010901280ED043
:1019A000012084F85000FFF717F9804694F85100A1
:1019B000616801280CD0B1F5827F07D102E00220D6
:1019C000BDE8F88FA16809B9042801D00227C2E058
:1019D000BBF1000F27D0BAF1000F24D01DB394F84B
:1019E0005100042802D0052084F8510000206065D1
:1019F000C4F838A0E587A587C4F830B0E586A58689
:101A00002064606420680168490603D4016841F0DD
:101A100040010160E068B0F5006F606805D0E8B390
:101A2000012D46D07FE0012795E008B1012D39D185
:101A3000206B21680088C860206B801C2063E08ECA
:101A4000401EE0862EE02068816889070FD5E18E70
:101A500069B1B9F1010F0AD1216B0988C160206B0E
:101A6000801C2063E08E401EE0864FF00009206855
:101A70008168C9070CD0E18F51B1C068A16B0880A3
:101A8000A06B801CA063E08F401EE0874FF001092F
:101A9000FFF7A2F8A0EB0800B04200E009E001D394
:101AA000701C50D1E08E0028CDD1E08F0028CAD123
:101AB0003FE0206B216800780873206B401C206396
:101AC000E08E401EE0862EE02068816889070FD5F1
:101AD000E18E69B1B9F1010F0AD1216B0978017367
:101AE000206B401C2063E08E401EE0864FF0000912
:101AF00020688168C9070CD0E18F51B1C068A16B23
:101B00000870A06B401CA063E08F401EE0874FF080
:101B10000109FFF761F8A0EB0800B04202D3701C86
:101B200001D010E07EB1E08E0028CDD1E08F0028FA
:101B3000CAD142463146204602F0D2FA28B10127E6
:101B40002020606507E0032705E0A06818B9206839
:101B5000C16880680090012084F85100002084F85A
:101B6000500038462CE710B5401EB0F1807F01D3FD
:101B7000012010BD4FF0E02460610F21601702F0DA
:101B8000E9FE0020A06107202061002010BD704701
:101B9000704710B590F83C20012A22D0012280F82D
:101BA0003C20CA688C6822F4407222434C6822F4BC
:101BB000806222430C6822F4006222430C6922F402
:101BC000805222434C6922F400522243C969002307
:101BD00022F480420A4301684A6480F83C300020C5
:101BE00010BD022010BD000070B590F83C20012A05
:101BF00032D0012480F83C40022280F83D20036866
:101C00005A689D6822F070060A6832435A60134B86
:101C100002689A4214D0B2F1804F11D0104B9A4210
:101C20000ED0104B9A420BD00F4B9A4208D00F4B5C
:101C30009A4205D00E4B9A4202D00E4B9A4204D1E2
:101C4000496825F080031943916080F83D400021E8
:101C500080F83C10084670BD022070BD00000140B5
:101C60000004004000080040000C00400004014057
:101C7000004001400018004010B5040003D094F863
:101C80003D0010B107E0012010BD002084F83C00A9
:101C9000204600F01FF8022084F83D00211D206836
:101CA00002F018FB012084F8460084F83E0084F816
:101CB0003F0084F8400084F8410084F8420084F832
:101CC000430084F8440084F8450084F83D00002077
:101CD00010BD000008B5026830483149824207D182
:101CE000086840F001000860086800F001000BE09F
:101CF0002B482C4B001F9A4208D1016841F0020189
:101D00000160006800F00200009008BD264B9A4276
:101D10000ED1016841F0100101600068002200F05E
:101D20001000009001213620FFF754F9362010E012
:101D30001E4B9A4211D1016841F0200101600068F8
:101D4000002200F02000009002213720FFF742F926
:101D50003720BDE80840FFF72FB9154B9A4207D14D
:101D6000086840F480300860086800F48030CBE7F1
:101D7000104B9A4207D1086840F480200860086838
:101D800000F48020C0E70C498A42BED1016841F0CE
:101D900040010160006800F04000B5E7000001402C
:101DA000443802400004004000100040001400408D
:101DB00000400140004801400018004090F83D10EC
:101DC000012901D001207047022180F83D100168EF
:101DD000CA6842F00102CA6000681149884214D002
:101DE000B0F1804F11D00F4988420ED00E49884281
:101DF0000BD00E49884208D00D49884205D00D49C4
:101E0000884202D00C49884204D1816801F0070160
:101E1000062903D0016841F00101016000207047EC
:101E2000000001400004004000080040000C004099
:101E300000040140004001400018004070B5044615
:101E400090F83C000025012817D0012684F83C605A
:101E5000022084F83D002068826822F0770222F494
:101E60007F4282600868502838D00DDC20284FD08F
:101E700005DC90B3102811D14AE0022070BD302853
:101E800046D040280AD13BE060282FD070280DD0E2
:101E9000B0F5805F03D0B0F5005F12D0012584F863
:101EA0003D60002084F83C00284670BDCB68D1E935
:101EB0000121206802F07FFA2068816841F07701F3
:101EC00009E0CB68D1E90121206802F074FA2068AA
:101ED000816841F480418160E1E719E0CA6849689E
:101EE000206802F03DFB5021206806E0CA6849687E
:101EF000206802F046FB6021206802F066FACEE717
:101F0000CA684968206802F02BFB40212068F4E78A
:101F1000226801461046F0E72DE9F0410D46040025
:101F200003D094F83D0018B108E00120BDE8F0812D
:101F3000002084F83C00204600F040F8022084F89D
:101F40003D002068816844F2070291438160211DB1
:101F5000206802F0BFF9226890689169166A2B68C0
:101F6000AF69034340F20330814341EA0721A86887
:101F7000EF6908434FF6FC418843E96840EA0720CF
:101F8000014328692F6A000140EA07300843696865
:101F90006D6926F0AA0646EA051529439360226872
:101FA000906154F8460B0162012004F81F09E075A6
:101FB0002076E0762077A0750020B7E7F0B587B0EF
:101FC000044614216846FEF733F952492368514A02
:101FD00010390225012603244F48B3F1804F27D042
:101FE0004FEAF047BB4254D1106840F00400106043
:101FF000106800F004000590086840F008000860D0
:102000000868694600F00800059020038DE861002B
:102010004248CDE90345FEF7E1FC002211461E20AF
:10202000FEF7D8FF5FF01E00FEF7C6FF07B0F0BD59
:10203000136843F001031360126802F00102059275
:102040000A6842F001020A600A6802F00102059281
:102050000A6842F002020A60096801F00201059173
:102060004FF400418DE86200CDE903466946FEF772
:10207000B5FC08208DE86100CDE903466946284893
:10208000FEF7ACFC002211461C20FEF7A3FF1C202B
:10209000CAE7244FBB421DD1136843F00803136005
:1020A000126802F0080205920A6842F001020A6012
:1020B00009688DE8700001F00101CDE90451039435
:1020C0006946FEF78BFC002211463220FEF782FFA4
:1020D0003220A9E714488342A8D10E48001D0268A7
:1020E00042F002020260006800F0020005900868F9
:1020F00040F0040008600868CDE9026400F00400C4
:102100000590C020CDE90005694604940748FEF714
:1021100065FC8BE74038024000000240000C0240A2
:1021200000040240000C004000040140000802408E
:1021300070B590F83E60044690F83F5090F84230F9
:1021400090F84320022021B104290ED0012E1BD18A
:1021500014E0012E18D1012B16D184F83E0084F82A
:10216000420001220021206820E0012D0CD1012A2B
:102170000AD184F83F0084F8430014E0012D03D114
:10218000012B01D1012A01D0012070BD84F83E004D
:1021900084F83F0084F8420084F8430001220021C3
:1021A000206802F0FBF801220421206802F0F6F812
:1021B0002068016841F001010160002070BD704796
:1021C00070B50446006801694FF00005C9438907EE
:1021D00015D4C168C943890711D4E91E01610120E2
:1021E0002077206880698007204602D0FFF7E7FF4C
:1021F00004E000F031F9204600F0C3F925772068AB
:102200000169C943490717D4C168C943490713D4B1
:102210006FF004010161022020772068806910F4CA
:10222000407F204602D0FFF7CAFF04E000F014F917
:10223000204600F0A6F9257720680169C9430907FF
:1022400016D4C168C943090712D46FF008010161AF
:10225000042020772068C0698007204602D0FFF75D
:10226000AEFF04E000F0F8F8204600F08AF9257788
:1022700020680169C943C90617D4C168C943C906A2
:1022800013D46FF010010161082020772068C06925
:1022900010F4407F204602D0FFF791FF04E000F0E9
:1022A000DBF8204600F06DF9257720680169C94305
:1022B000C90708D1C168C943C90704D1891E016192
:1022C000204600F0D9F920680169C943090609D4FC
:1022D000C168C943090605D46FF080010161204639
:1022E000FFF755FC20680169C943490609D4C16854
:1022F000C943490605D46FF040010161204600F052
:10230000A5FC20680169C94389060BD4C168C9438B
:10231000890607D46FF0200101612046BDE87040B6
:10232000FFF736BC70BD000070B586B004461421BE
:102330006846FDF77DFF3F4B20683F490224032597
:102340003E4A984211D1086840F0100008600868C1
:10235000029400F0100005904FF4D440CDE9000441
:102360000120CDE9035069463AE0354B354E98429D
:1023700024D1086840F001000860086800F00100FE
:102380000590086840F0020008600868CDE9024541
:1023900000F0020005908020CDE9000469462A483B
:1023A0000494FEF71BFBCDE90054CDE902450494EB
:1023B00029E000BFFEF712FB06B070BD234B984228
:1023C00010D1086840F0100008600868CDE90245A7
:1023D00000F0100005906020CDE9000469460495E6
:1023E0001046E7E71A4A90420FD1086840F0020011
:1023F00008600868CDE9024500F00200059050151C
:10240000CDE900040495694612E0124A9042D3D106
:10241000086840F0020008600868029400F00200BA
:102420000590D000CDE900040920CDE903506946AC
:102430003046BFE700000140303802400010024043
:10244000000400400004024000000240004001403F
:102450000048014000180040704770B5044690F8ED
:102460003C0000260D4601280FD0012084F83C00D6
:102470006AB1042A1DD0082A2FD00C2A3FD0012689
:10248000002084F83C00304670BD022070BD2068FA
:1024900001F0A4FF2068816941F008018161206892
:1024A000816921F004018161206881692A691143F1
:1024B00011E0206801F0C2FF2068816941F40061E9
:1024C00081612068816921F480618161206881696E
:1024D0002A6941EA02218161D2E7206801F0E4FF24
:1024E0002068C16941F00801C1612068C16921F01B
:1024F0000401C1612068C1692A69114311E02068A3
:1025000002F006F82068C16941F40061C1612068E9
:10251000C16921F48061C1612068C1692A6941EA09
:102520000221C161ACE710B5040003D094F83D006E
:1025300010B107E0012010BD002084F83C002046C7
:1025400000F01EF8022084F83D00211D206801F0F3
:10255000C1FE012084F8460084F83E0084F83F0064
:1025600084F8400084F8410084F8420084F8430075
:1025700084F8440084F8450084F83D00002010BD34
:102580007047704730B500250446022249B104293E
:1025900012D008294CD094F84100012853D00120D2
:1025A00030BD94F83E000128F9D184F83E2020681F
:1025B000C26842F0020209E094F83F000128EED11F
:1025C00084F83F202068C26842F00402C260012201
:1025D000206801F0E3FE21492068214A884201D0A9
:1025E000904203D1436C43F4004343642068884223
:1025F00013D0B0F1804F10D01A4988420DD01A493B
:1026000088420AD01949884207D0904205D018491B
:10261000884202D01749884204D1816801F007013D
:10262000062903D0016841F001010160284630BD50
:1026300094F840000128B2D184F840202068C26894
:1026400042F00802C2E784F841200C2901D001259C
:10265000ECE72068C26842F01002B7E700000140D2
:10266000000401400004004000080040000C00404D
:1026700000400140001800402DE9F05FFF4981460D
:102680002DED068BFE4D88420ED1FE49002001F152
:1026900040084A7801F1D80A01F5807B01F1500425
:1026A000022A02D0002A7DD0B1E22861897802296D
:1026B00079D0012978D0002977D0A860192190FB22
:1026C000F1F0E860E978193900FB01F2297802EBB2
:1026D000D2721939414301EB620323606B78173BD7
:1026E000584300EB6203A0EB6200C4E90130A1EBA8
:1026F0006200E060E348403003F0FAFDE148B8F9D9
:102700000020D830216803F01DFEDE49D831A1F148
:10271000300004F0DFF9DB49D831A1F1300004F0DA
:10272000B5F904F0E9F9D74E20363060DAF8041034
:10273000CAF80810DAF80010CAF81010B8F9042026
:1027400006F1E000A16803F0FDFD06F1E001A1F152
:10275000400004F0BFF906F1E001A1F1400004F0EF
:1027600095F904F0C9F9B060DBF80410CBF8081053
:10277000DBF80010CBF81010B8F9022006F1CC00FD
:10278000616803F0DFFD06F1CC01A1F1380004F02F
:10279000A1F906F1CC01A1F1380004F077F904F0B9
:1027A000ABF903E099E041E05CE076E0706006F1AF
:1027B000CC004168816001680161B8F906202830C9
:1027C000E16803F0BFFD06F1F401A1F1480004F057
:1027D00081F906F1F401A1F1480004F057F904F081
:1027E0008BF9F06006F1F4004168816001680161D5
:1027F000F43801F09DFBB8F9060000EE100AB8F9B4
:102800000200F8EEC01A00EE100AB8F90400B8EEA3
:10281000C01A00EE100AB8F90000F8EEC00A00EE87
:10282000100AB8EEC00A01F04DFFF0E14FF4A570B8
:10283000A8609448052300223221A83004F06AF9E8
:102840009048052300223221B43004F063F98D480A
:10285000052300223221C03004F05CF90523002258
:10286000322134E0A020A8608648012300221421F0
:10287000A83004F04FF98348012300221421B4301A
:1028800004F048F97F48012300221421C03004F0ED
:1028900041F901230022142119E05020A860794851
:1028A00000231A460A21A83004F034F975480023A1
:1028B0001A460A21B43004F02DF9724800231A4652
:1028C0000A21C03004F026F900231A460A216D4877
:1028D000CC3004F01FF9A868F0E6A9788E00643EB9
:1028E000AE61E9788B005C3BEB6169788A00643A01
:1028F0006A6229788900603929622F6937B92327EC
:10290000C4E90407E0610127A0612F616FF0590756
:102910005A2E02DD2669F61C1BE0A6F1330CBCF131
:10292000270F02D82669B61C13E0A6F10B0CBCF1E8
:10293000270F02D82669761C0BE006F1320CBCF199
:10294000280F02D22669761E03E0BE42266901DA0C
:10295000F61E26614FF4E87E40F2D11C002E01DC09
:10296000206103E0764501DDC4F810C05A2B02DD7A
:102970006369DB1C18E0A3F13306272E02D86369D4
:102980009B1C11E0A3F10B06272E02D863695B1C88
:102990000AE003F13206282E02D263695B1E03E0CF
:1029A000BB42636901DADB1E6361002B01DC6061FD
:1029B00003E0734501DDC4F814C05A2901DD642128
:1029C00016E0A1F13303272B01D8462110E0A1F135
:1029D0000B03272B01D828210AE001F13203282B11
:1029E00002D26FF0270103E0B94203DA6FF063010E
:1029F000A16100E0A0615A2A02DDE169C91C18E06A
:102A0000A2F13301272902D8E169891C11E0A2F162
:102A10000B01272902D8E169491C0AE002F13201C1
:102A2000282902D2E169491E03E0E169BA4201DACC
:102A3000C91EE161002901DCE06102E05A297CDA6B
:102A4000E069FDF788FD9FED109B53EC192BFDF716
:102A5000A1FC9FED0F1B53EC112BFDF70DFD41EC7D
:102A6000180B6069FDF777FD41EC1A0B2069FDF743
:102A700072FD41EC100BB0EE482A0DE0FC0900207D
:102A800090010020C00600207FBDC282FB210940CA
:102A90000000000000806640F0EE682AB0EE4A1A9E
:102AA000F0EE6A1A03F01CFE614803F021FC604856
:102AB000B8F900209830A16903F044FC5C499831D2
:102AC000A1F1300004F006F859499831A1F1300025
:102AD00003F0DCFF04F010F8554E203E3060DAF8C9
:102AE0000410CAF80810DAF80010CAF81010A0692B
:102AF000B8F90420414206F1E00003F023FC06F19E
:102B0000E001A1F1400003F0E5FF06F1E001A1F1D1
:102B1000400003F0BBFF03F0EFFFB060DBF80410F0
:102B2000CBF80810DBF80010CBF81010A069B8F94A
:102B30000220414206F1CC0000E077E003F002FC05
:102B400006F1CC01A1F1380003F0C4FF06F1CC017D
:102B5000A1F1380003F09AFF03F0CEFF706006F198
:102B6000CC004168816001680161B8F90620283015
:102B7000A16903F0E7FB06F1F401A1F1480003F0BD
:102B8000A9FF06F1F401A1F1480003F07FFF03F073
:102B9000B3FFF06006F1F4004168816001680161F3
:102BA000F43801F0C5F950369FED22AB96ED000BDD
:102BB00053EC1A2B51EC100BFDF7ECFB53EC192BDB
:102BC000FDF75AFC9FED1D8B53EC182BFDF73BFBDB
:102BD000FDF7D2FC1B4C80B22168886396ED020B96
:102BE00053EC1A2B51EC100BFDF7D4FB53EC192BC3
:102BF000FDF742FC53EC182BFDF725FBFDF7BCFC61
:102C0000216880B2C863216840F6C41008640E4988
:102C1000894507D101F00AF9002001F0C5F868687C
:102C2000401C6860BDEC068BBDE8F09F5A2003E7AE
:102C3000000700200000000000409F40000000004E
:102C400000407F4024090020440A0020704770475C
:102C500070470000F8B5016804460868CA684B6907
:102C600010F00F0F4FF000055AD003F0010602F4E8
:102C70009077374365D0C10705D0D10503D5216CC6
:102C800041F001012164410705D5D90703D0216C2A
:102C900041F002012164810705D5D90703D0216CD9
:102CA00041F004012164010707D502F020013143FE
:102CB00003D0216C41F008012164216C00293BD034
:102CC000800604D5900602D5204601F09BFC2068C2
:102CD0004069216CC0F3801001F0080101432046D7
:102CE0002BD001F068FC20684069400621D520689F
:102CF000143050E8001F21F0400140E80012002A83
:102D0000F5D1A06BA8B16C490165A06BFDF742FE3F
:102D1000002811D0A06B016D01B0BDE8F04008475C
:102D200083060ED593060CD52046BDE8F84001F089
:102D300069BC2046FFF78CFFF8BDFFF789FF2564CB
:102D4000F8BD266B2023012E79D1C60677D5D6068D
:102D500075D50868486800904869400640D5A16B61
:102D6000086840680004000CEAD0A28D8242E7D9CE
:102D7000E085C869B0F5807F2DD020680C3050E820
:102D8000001F21F4807140E80012002AF5D120686C
:102D9000143050E8001F21F0010140E80012002A21
:102DA000F5D12068143050E8001F21F0400140E8C0
:102DB0000012002AF5D184F83E30256320680C30DB
:102DC00050E8001F21F0100140E80012002AF5D160
:102DD000A06BFDF796FDA08DE18D401A81B229E030
:102DE000A08DE18D401A81B2E08D0028A8D0002985
:102DF000A6D020680C3050E8002F22F4907240E8F2
:102E00000026002EF5D12068143050E8002F22F063
:102E1000010240E80026002EF5D184F83E302563FB
:102E200020680C3050E8002F22F0100240E8002308
:102E3000002BF5D12046FFF70AFFF8BDFFE7050696
:102E40002BD5150629D594F83D002128F5D1A06889
:102E5000B0F5805F01D12069B0B1206A411C2162C8
:102E6000216800784860E08C401E0004000CE0847B
:102E7000E3D12068C16821F08001C1602068C16889
:102E800041F04001C160D8E7206A0088C0F3080023
:102E90004860206A801C2062E5E74006CDD55006D8
:102EA000CBD5CA68204622F04002CA6084F83D3083
:102EB00000F0EEF8C1E70000A745000870B5040077
:102EC00004D094F83D00002510B106E0012070BD4B
:102ED00084F83C50204600F023F8242084F83D007C
:102EE0002068C16821F40051C160204601F02EFC29
:102EF0002068016921F4904101612068416921F055
:102F00002A0141612068C16841F40051C160256413
:102F1000202084F83D0084F83E00002070BD0000B1
:102F200010B586B0044614216846FDF781F91849AA
:102F30002068884229D117480021026842F0100217
:102F40000260006800F01000059012481438026812
:102F500042F001020260006800F0010005904FF4A9
:102F6000C06000900220CDE90101032003900720FA
:102F7000049069460848FDF731FD002211462520DE
:102F8000FEF728F82520FEF717F806B010BD000060
:102F90000010014044380240000002407047000029
:102FA0002DE9F843044690F83D001F4616460D46AD
:102FB00020284CD1C5B1BEB194F83C00012846D0C0
:102FC000012084F83C004FF00008C4F84080212024
:102FD00084F83D00FDF700FEA6848146E684A068E3
:102FE000B0F5805F03D004E00120BDE8F8832069DC
:102FF00028B12E465FF0000584F83C800EE00026E4
:10300000FAE78021204601F027FCA0B9AEB116F8FE
:10301000010B21684860E08C401EE084E08C4B4648
:103020004FF0000200970028EBD14FF040012046FE
:1030300001F012FC30B10320D7E735F8020BC0F3E2
:103040000800E6E7202084F83D000020CDE70220BC
:10305000CBE790F83D30202B18D1A9B1A2B190F860
:103060003C30012B12D001628284C28400210164B1
:10307000212280F83D2080F83C100068C16841F0B2
:103080008001C16000207047012070470220704716
:103090007047FEE701684A69D24352050FD46FF4C6
:1030A00080624A61002140F8301F20224273817300
:1030B000026942F00402026101730120704700209E
:1030C00070470000F8B50446C06A1E460D46174614
:1030D000082807D0012805D010F5803F02D0206BCA
:1030E000122804D12068016841F480710160134600
:1030F00000224FF001112046009600F057F840B131
:1031000020680068C00502D54FF4007020640320D9
:10311000F8BD2069B0F5804F0ED00620216800EA86
:10312000D51040F0F000086133463A460B4920467E
:1031300000F070F878B902E005F0FE0000E0E8B2B7
:1031400021680861054933463A46891F204600F048
:1031500061F80028DCD00120F8BD00000800010063
:1031600070B516460D4604460DE02046FFF792FF67
:1031700008B1012070BD681C05D0FDF72DFD801B36
:10318000A84207D835B120684069C0434007ECD455
:10319000002070BD002044F8300F20216173A0731F
:1031A000216941F0200121612073E2E72DE9F04718
:1031B0001E4690460D460446C1F30747DDF82090B1
:1031C00008E0701C06D0FDF707FDA0EB0900B04237
:1031D0000FD876B12068012F18D0806925EA000049
:1031E0000004000C14D000214145EAD00020BDE8C5
:1031F000F087002044F8300F20216173A07321690B
:1032000041F02001216120730120F0E74069E5E7EA
:103210000121E9E72DE9F0479A4691460E4604461A
:1032200000254FF02008C1F3074725E020684069DA
:10323000C043400514D42068016841F40071016066
:1032400021686FF480604861256384F83D8084F8CC
:103250003E50206C40F00400206484F83C501FE095
:10326000B9F1FF3F08D0FDF7B7FCA0EB0A014945D3
:103270000CD8B9F1000F09D02068012F13D0806954
:1032800026EA00000004000C0BD0CFE744F8305FC2
:1032900084F80D80A573206940F02000206125731B
:1032A0000120BDE8F0874069EAE770B516460D4693
:1032B00004460DE02046FFF7EDFE08B1012070BD89
:1032C000681C05D0FDF788FC801BA84207D835B1E3
:1032D00020684069C0430006ECD4002070BD002087
:1032E00044F8300F20216173A073216941F020015F
:1032F00021612073E2E700002DE9F04F87B014212F
:103300006846FCF795FF3F480026016841F0100130
:103310000160016801F010010591016841F00401AC
:103320000160016801F004010591016841F080012C
:103330000160016801F080010591016841F001011F
:103340000160016801F001010591016841F002018D
:103350000160016801F002010591016841F0080176
:1033600001600068DFF8A08000F0080005900022EE
:103370001F214046FDF72AFCDFF890904FF40057DC
:10338000002239464846FDF721FCDFF884A00022E0
:10339000E0215046FDF71AFCDFF878B00122C02189
:1033A0005846FDF713FC1F20012402258DE831004B
:1033B000694640460395FDF711FB01AA009782E894
:1033C000700069464846FDF709FBE0208DE83100B2
:1033D000694650460395FDF701FBC0208DE851007A
:1033E0000320039069465846FDF7F8FA2002CDE91C
:1033F0000006694602945846FDF7F0FA07B0BDE8AA
:10340000F08F0000303802400010024000080240F7
:10341000000C0240000402400D4810B50B49016049
:103420000C49416000214FF480428160C0E90312E1
:1034300041618161C1610162FDF7D4FB002803D0C5
:10344000BDE81040FDF75BBA10BD00000058004019
:10345000E8070020A0860100104810B50E49016061
:103460004FF48271416000218160C1604FF40072AD
:103470000161C0E905121022C0E9072141628162A1
:103480000A21C162FEF778F8002803D0BDE8104099
:10349000FDF735BA10BD0000003001403C080020A7
:1034A00010B588B01C216846FCF7C2FE15481449C7
:1034B000002401605321C0E9011444F61F61C0E9F2
:1034C000031480218161FEF7D7FB08B1FDF717FADD
:1034D0000C48FFF728F808B1FDF711FA6020CDE994
:1034E000000402940022694606480494FEF7B5FFE2
:1034F00008B1FDF704FA0348FEF716FF08B010BD47
:10350000004801401C0B002010B58CB0002407942B
:10351000089409941C2168460A94FCF789FE1E4809
:103520001C4901605321C0E901146321C0E903145F
:1035300080218161FEF7A0FB08B1FDF7E0F94FF4AF
:103540008050079007A91448FEF778FC08B1FDF7F2
:10355000D6F91148FEF7E7FF08B1FDF7D0F9602072
:10356000CDE900040294002269460B480494FEF75A
:1035700074FF08B1FDF7C3F9042269460648FEF757
:103580006CFF08B1FDF7BBF90348FEF7CDFE0CB0A8
:1035900010BD000000180040640B002010B596B06C
:1035A00000240F9410941194129413941C216846D3
:1035B0001494FCF73DFE202107A8FCF739FE35489E
:1035C000334901600721C0E9011440F2E731C0E945
:1035D00003148021C0E90541FEF74EFB08B1FDF759
:1035E0008EF94FF480500F900FA92A48FEF726FC61
:1035F00008B1FDF784F92748FEF795FF08B1FDF7FC
:103600007EF9139413A923481494FEF7EDFA08B138
:10361000FDF775F96020CDE9000402940394049449
:103620000594002269461B480694FEF716FF08B170
:10363000FDF765F9042269461648FEF70EFF08B14A
:10364000FDF75DF9082269461248FEF706FF08B14A
:10365000FDF755F90C2269460E48FEF7FEFE08B14B
:10366000FDF74DF90794089409944FF400500A941B
:10367000CDE90B4007A907480E94FEF78AFA08B176
:10368000FDF73DF90348FEF74FFE16B010BD0000F0
:10369000000001409408002010B58CB02421684639
:1036A000FCF7C6FD0024154809944FF080410A94A8
:1036B000C0E90014611EC0E9024104618461032075
:1036C000CDE900040120CDE902040494CDE90540D0
:1036D0000794694609480894FEF71EFC08B1FDF7F7
:1036E0000EF9099409A905480A94FEF77DFA002805
:1036F00001D0FDF704F90CB010BD0000DC0800207B
:1037000010B58EB000240794089409940A940B9481
:103710001C2168460C94FCF78BFD27482549016065
:103720005321C0E9011444F61F61C0E9031480214C
:103730008161FEF7A1FA08B1FDF7E1F84FF480507E
:10374000079007A91C48FEF779FB08B1FDF7D7F8E9
:103750001948FEF7E8FE08B1FDF7D1F80B940BA964
:1037600015480C94FEF740FA08B1FDF7C8F8602040
:10377000CDE900040294042269460F480494FEF740
:103780006CFE08B1FDF7BBF8082269460A48FEF74F
:1037900064FE08B1FDF7B3F80C2269460648FEF74F
:1037A0005CFE08B1FDF7ABF80348FEF7BDFD0EB0B7
:1037B00010BD0000000400402409002010B58CB0AA
:1037C00024216846FCF734FD002416480994144966
:1037D0000A94C0E900144FF6FF71C0E90241046188
:1037E00084610320CDE900040120CDE902040494A2
:1037F000CDE90540079469460A480894FEF78CFB1A
:1038000008B1FDF77CF8099409A906480A94FEF767
:10381000EBF9002801D0FDF772F80CB010BD0000E4
:10382000000800406C09002010B58CB024216846C7
:10383000FCF7FEFC00241548099413490A94C0E9DA
:103840000014611EC0E90241046184610320CDE9D6
:1038500000040120CDE902040494CDE90540079459
:1038600069460A480894FEF757FB08B1FDF747F888
:10387000099409A905480A94FEF7B6F9002801D071
:10388000FDF73DF80CB010BD000C0040B40900205D
:103890001CB500240F4800940D490194016042F2C8
:1038A000CF01C0E901146321C16080218161FEF76D
:1038B000E3F908B1FDF723F82020CDE900046946BB
:1038C0000448FEF791F9002801D0FDF718F81CBD57
:1038D00000100040FC0900201CB500241048009492
:1038E0000E490194016044F2A011C0E9011440F6B0
:1038F000B831C16080218161FEF7BEF908B1FCF7E3
:10390000FEFF2020CDE9000469460548FEF76CF96A
:10391000002801D0FCF7F3FF1CBD0000001400409C
:10392000440A002010B58CB024216846FCF780FCC6
:1039300000241648099414490A94C0E900144FF66B
:10394000FF71C0E902410461446184610320CDE953
:1039500000040120CDE902040494CDE90540079458
:1039600069460A480894FEF7D7FA08B1FCF7C7FF82
:10397000099409A905480A94FEF736F9002801D0F0
:10398000FCF7BDFF0CB010BD000401408C0A002004
:1039900010B58CB000240794089409941C21684643
:1039A0000A94FCF745FC1E481C4901605321C0E9FC
:1039B000011444F61F61C0E9031480218161FEF700
:1039C0005BF908B1FCF79BFF4FF48050079007A903
:1039D0001348FEF733FA08B1FCF791FF1048FEF7E1
:1039E000A2FD08B1FCF78BFF6020CDE90004029432
:1039F000002269460A480494FEF72FFD08B1FCF73F
:103A00007EFF042269460648FEF727FD08B1FCF751
:103A100076FF0348FEF788FC0CB010BD0040014063
:103A2000D40A00200C4810B50A4901604FF4E13176
:103A30004160002181600C22C160C0E904128161F3
:103A4000C161FFF73BFA002803D0BDE81040FCF746
:103A500056BF10BD00100140AC0B0020FEE7FEE792
:103A60001FB50FA10522D1E90001CDE9020102A98C
:103A7000302000F095F805226946102000F028F863
:103A8000002069460A5CA52A03D1401CC0B2052863
:103A9000F8D3052802D0012004B010BD0020FBE7B8
:103AA000A5A5A5A5A500000010B5084C0022402141
:103AB0002046FDF78BF8012280212046FDF786F88D
:103AC000BDE81040642002F0F3BB00000004024097
:103AD0002DE9F0410D4D16460F4604460022802187
:103AE0002846FDF773F8204602F0ACFF0446102389
:103AF000324639460648FDF7E5FD01228021284679
:103B0000FDF764F82046BDE8F081000000040240A3
:103B10003C08002070B50A4D04460022802128464A
:103B2000FDF754F8204602F08DFFFF2002F08AFFD7
:103B30000446012280212846FDF748F8204670BD42
:103B40000004024070B505460720FFF7E3FF044676
:103B50000146272000F046F8A00602D50CA000F090
:103B6000BFFE60060DD50520FCF726FF2022294662
:103B70006120FFF7ADFFFF21E22000F033F80020C5
:103B800070BDFF21E22000F02DF8012070BD000083
:103B900052582073656E642061636B210D0A00002A
:103BA0002DE9F0410D4D16460F46044600228021B6
:103BB0002846FDF70BF8204602F044FF0446102388
:103BC000324639460648FDF72AFE01228021284662
:103BD000FCF7FCFF2046BDE8F08100000004024035
:103BE0003C08002070B50B4D0E4604460022802193
:103BF0002846FCF7EBFF204602F024FF044630463F
:103C000002F020FF012280212846FCF7DFFF20463A
:103C100070BD0000000402402DE9F04798461746A9
:103C2000824600260C46DDF8209011E021465046E1
:103C300000F016F9554607E019F806000121761C38
:103C400002F010FF6D1CEDB2BD42F5D3641CE4B26E
:103C50004445EBD3BDE8F08710B500218D2002F07C
:103C600001FF0021142002F0FDFE0021BDE81040FC
:103C7000AF2002F0F7BE000070B5802817D20029EF
:103C800015DB3F2913DCCB1701EB5375C5F3C703D5
:103C900025F007050124094E491B8C4006EBC000A6
:103CA000012A05D0C15C022A05D0A143C15470BDD0
:103CB000C15C2143FAE76140F8E70000BE02002042
:103CC00010B50021AE2002F0CDFE0021202002F030
:103CD000C9FE0021102002F0C5FE0021B02002F034
:103CE000C1FE0021C82002F0BDFE0021084602F0FE
:103CF000B9FE0021102002F0B5FE0021402002F0A4
:103D0000B1FE0021812002F0ADFE0021FF2002F073
:103D1000A9FE0021A12002F0A5FE0021A62002F0AC
:103D2000A1FE0021A82002F09DFE00213F2002F00C
:103D300099FE0021A42002F095FE0021D32002F07C
:103D400091FE0021084602F08DFE0021D52002F0F0
:103D500089FE0021F02002F085FE0021D92002F02A
:103D600081FE0021222002F07DFE0021DA2002F0F7
:103D700079FE0021122002F075FE0021DB2002F006
:103D800071FE0021202002F06DFE00218D2002F046
:103D900069FE0021142002F065FE0021BDE81040FC
:103DA000AF2002F05FBE0000F0B500210D4BFF26F2
:103DB0000C46002201280FD003EBC20580B16F5CD6
:103DC000C7F1FF076F54521CD2B2802AF2D3491CAC
:103DD000C9B20829EDD3F0BD03EBC2056E54F2E77A
:103DE0006C54F0E7BE0200200FB4042870B50C46F6
:103DF000054613D8142C11D80A4E07AA0A48326077
:103E0000069900F07DFDC4F11501074A0020C9B2F2
:103E1000306050542146284600F072F870BC5DF8BE
:103E200014FB00008C0100203E02002070B50B4EF8
:103E300000242146002000F013F8002506EBC50001
:103E40000121005D02F00EFE6D1CEDB2802DF5D358
:103E5000641CE4B2082CECD370BD0000BE0200204C
:103E600010B50446B031C8B2002102F0FBFD1020AD
:103E700040EA1410002102F0F5FD04F00F00BDE847
:103E80001040002102F0EEBD2DE9F04F01EB4101A1
:103E900000EB400049068006040E203A4FEA116903
:103EA000D0B2164900EB4000A046002501EB800B84
:103EB00000261BF805704FFA89FA380601D5012251
:103EC00000E0002261B25046FFF7D6FE7806641C7F
:103ED000070EE4B2A4EB08000C2809D0761CF6B259
:103EE000082EEAD36D1CEDB20C2DE1D3BDE8F08FA6
:103EF00009F10100444600F0FF09F3E7AD6B00084B
:103F0000F0B517460C46064600250CE02146304623
:103F1000FFF7BAFF641CE4B2142C02D90024761C0B
:103F2000F6B26D1CEDB27A5D002AEFD1F0BD000053
:103F300070B504460068374E002806DD0022402197
:103F40003046FCF743FE012205E0012240213046C5
:103F5000FCF73CFE002220213046FCF737FE60686B
:103F60002D4D002806DD002201212846FCF72EFEFB
:103F7000012205E0012211462846FCF727FE002217
:103F800080213046FCF722FEA068002806DD0122D1
:103F900002212846FCF71AFE002205E00022022139
:103FA0002846FCF713FE012204212846FCF70EFEEA
:103FB000E068002806DD012208212846FCF706FEFD
:103FC000002205E0002208212846FCF7FFFD01221F
:103FD00010212846FCF7FAFD2068002800DA40424C
:103FE00081B20E4802685163A168002900DA494293
:103FF000026889B291636168002900DA4942026867
:1040000089B2D163E168002900DA4942006889B2C7
:10401000016470BD000C02400010024094080020B2
:104020007047000010B5154C002240212046FCF7D7
:10403000CDFD052212492A20FFF7B2FD01212120E2
:10404000FFF7D0FD01212220FFF7CCFD32212520F2
:10405000FFF7C8FD20213120FFF7C4FD0F212620E6
:10406000FFF7C0FD0F212020FFF7BCFD20460122F5
:10407000BDE810404021FCF7A9BD0000000402404B
:10408000A86B0008F8B5044640684FF48273984264
:1040900021D1A0684FF48065B0F5004F01D0A8424F
:1040A0000AD12068066826F04006066060689842DB
:1040B00011D1A068A8420ED000920B4600228021A8
:1040C000204600F039F8002804D0606D40F0200050
:1040D00060650320F8BD00920B4600220121EFE746
:1040E00038B504461248134B0068B0FBF3F04FF4A8
:1040F0007A73584300906068B0F5827F0DD10B460B
:10410000009200228021204600F016F870B1606D08
:1041100040F020006065032038BD009830B1401E9B
:10412000009020688068C0430006F6D5002038BDA6
:10413000C401002000366E012DE9F8431E46914669
:1041400088460446089DFCF747FD401B351AFCF7DE
:1041500043FD074625480068C0F3CB30684338E08C
:10416000701C37D0FCF738FDC01BA84203D215B134
:10417000009860B32CE02068416821F0E0014160C4
:104180006068B0F5827F0BD1A068B0F5004F02D017
:10419000B0F5806F04D12068016821F04001016012
:1041A000A06AB0F5005F09D12068016821F40051D0
:1041B00001602068016841F400510160012084F829
:1041C0005100002084F850000320BDE8F88300254A
:1041D000401E00902068816838EA010004D0002168
:1041E0004945BDD10020F0E70121F9E7C4010020D5
:1041F0007047FCF787BE000030B593B030216846A9
:10420000FCF716F814210CA8FCF712F81C4800253E
:10421000016841F080510160006800F08050119009
:104220001848016841F4804101600068022400F4EC
:104230008040119001200390102004900094069477
:104240000820CDE90750A820CDE9090404200B90EF
:104250006846FCF7DBFF08B172B6FEE70CA90F2039
:1042600081E831004FF4A0500F90109005210CA868
:10427000FCF7E2FE002801D072B6FEE713B030BDB5
:1042800040380240007000400248016841F470016B
:104290000160704788ED00E00148FDF791BF000024
:1042A000DC0800200148FDF78BBF00006C090020EE
:1042B0000148FDF785BF0000B40900200148FDF763
:1042C0007FBF0000FC0900200148FDF779BF000016
:1042D000440A0020F0B50268254C264D264E274F93
:1042E000274B4FF0804CA04209D0604507D0A84230
:1042F00005D0B04203D0B84201D0984204D122F098
:10430000700E4A6842EA0E02A0421BD0604519D0E6
:10431000A84217D0B04215D0B84213D0984211D05D
:10432000184DA8420ED0184DA8420BD0174DA842E8
:1043300008D0174DA84205D0164DA84202D0164D00
:10434000A84203D122F44075CA682A434D6922F07D
:1043500080022A4302608A68C2620A688262A042BE
:1043600001D0984201D10969016301214161F0BD89
:10437000000001400004004000080040000C004024
:104380000004014000400140004401400048014059
:1043900000180040001C00400020004010B501F053
:1043A0001F030121046A99408C430462016A9A4008
:1043B0001143016210BD10B5846842EA032224F45F
:1043C0007F440A432243826010BD826822F070025B
:1043D0000A4342F00701816070470000F0B5026AAD
:1043E00022F001020262036A42688469124E24F0DC
:1043F00073050C682C4323F002058B682B430D4D8D
:10440000A84201D0B04205D123F00807CB683B4356
:1044100023F00403A84201D0B04205D14D6922F433
:10442000407215438A692A43426084614968416346
:104430000362F0BD0000014000040140F0B5026AD3
:1044400022F010020262026A436884690D6824F453
:10445000E64444EA05248D6822F0200242EA05126F
:104460000F4D104EA84201D0B04206D1CF6822F0C5
:10447000800242EA071222F04002A84201D0B04274
:1044800007D14D6923F4406343EA85038D6943EA0C
:10449000850343608461496881630262F0BD000066
:1044A0000000014000040140F0B5026A22F480726D
:1044B0000262026A4368C46922F4007224F0730540
:1044C0000C68124E2C438D6842EA05220E4DA8421C
:1044D00001D0B04206D1CF6822F4006242EA07223E
:1044E00022F48062A84201D0B04207D14D6923F482
:1044F000405343EA05138D6943EA05134360C461E1
:104500004968C1630262F0BD00000140000401403F
:1045100030B5026A22F480520262046A4268C369BA
:104520000D6823F4E64343EA05238D6824F4005420
:1045300044EA0534084DA84202D0084DA84204D1EF
:104540004D6922F4804242EA85124260C3614968A3
:104550000164046230BD000000000140000401401D
:1045600010B5036A046A24F001040462846924F02B
:10457000F00444EA021423F00A020A43846102624E
:1045800010BD10B5036A23F0100303628369046A47
:1045900023F4704343EA023224F0A00343EA0111FA
:1045A0008261016210BD10B5806B0021C185C1849C
:1045B000FEF74EFB10BD01680C3151E8002F22F4CC
:1045C000907241E80023002BF5D10168143151E8C5
:1045D000002F22F0010241E80023002BF5D1016BEE
:1045E000012909D101680C3151E8002F22F0100295
:1045F00041E80023002BF5D1202180F83E10002156
:104600000163704708B590F83E10222901D00220BE
:1046100008BD82684FF480539A4201D1016921B1EB
:10462000816A9A421BD04AB10AE00268816A5268E4
:10463000C2F308020A80816A891C08E0026972B12B
:104640000268526802F07F020A70816A491C816226
:10465000C18D491E0904090CC18503D019E0026807
:104660005268F1E70168CA6822F02002CA60016856
:10467000CA6822F48072CA6001684A6922F00102A5
:104680004A61202180F83E10016B012903D0FEF71A
:1046900085FC002008BD0021016301680C3151E850
:1046A000002F22F0100241E80023002BF5D1016811
:1046B0000A68D20602D50A6849680091818DFEF722
:1046C000C6FAE6E730B41F48AA2510EE101A0570A6
:1046D0004570F12585701025C5700D0E05710D0C06
:1046E000457110EE904A0D0A8571C171210E01725B
:1046F000210C417211EE103A210A8172C472190E16
:104700000173190C4173190A11EE902A8173C37356
:10471000110E0174110C4174110A8174C2741422B7
:104720000021084B08461C5C401C2144C0B2C9B2A1
:104730009042F8D3995430BC02490348521CFEF70A
:1047400088BC000002020020AC0B002070B50446BB
:1047500000680169E26821F4405111430161216957
:10476000A068E26908436169114308432168CA6887
:1047700049F20C639A430243CA6020684169A26906
:1047800021F440711143416131492068884202D0CF
:104790003049884202D1FCF7F9FC01E0FCF7E6FC65
:1047A000E2690023192164253226B2F5004F6268C0
:1047B00028D0A0FB0101930F9200FBF701FD0146F9
:1047C000B0FBF5F06FF01802504301EB800006EBF0
:1047D0000010B0FBF5F000F0F002B1FBF5F002EBD9
:1047E0000012B1FBF5F06FF01803584301EB8000A5
:1047F00006EB0010B0FBF5F000F00F00216810444C
:10480000886070BDA0FB010192185B41FBF7D8FCEA
:104810000146B0FBF5F00201B1FBF5F06FF01803B3
:10482000584301EB800006EBC000B0FBF5F000F050
:10483000F80002EB4002B1FBF5F0584301EB8000B9
:1048400006EBC000B0FBF5F000F00700D6E7000073
:1048500000100140001401402DE9F0419846174630
:104860000E460446069D27E0681C25D02DB1FCF7B6
:10487000B3F9A0EB0800A8421ED920680C3050E81C
:10488000001F21F4D07140E80012002AF5D1206801
:10489000143050E8001F21F0010140E80012002A06
:1048A000F5D1202084F83D0084F83E00002084F8F3
:1048B0003C000320BDE8F0812068006836EA000073
:1048C00004D00020B842CFD00020F3E70120F9E760
:1048D0000148FEF7BFB90000AC0B0020FEE7000066
:1048E0000FB4054B10B503A9044A029801F044F92E
:1048F00010BC5DF814FB0000D9620008C80100205C
:1049000037B514460846064B6A46214601F034F98D
:1049100004466946002001F0C6FC20463EBD00006A
:10492000A762000803B401984100009850EAC12032
:1049300018BF04204A0D18BF40F0010040F2FF727A
:10494000B2EB515F08BF40F00200012808BF05200C
:1049500002B070470907090E002804DB00F1E020CF
:1049600080F80014704700F00F0000F1E02080F89C
:10497000141D70470000000070B5C1482DED020BFA
:104980002DED0E8B82B0119D25F000449FEDBEDB16
:104990009FEDBFEB84423EDBA4F140511098A1F1A2
:1049A0007F6108430FD0BC48844202DC28D11098B4
:1049B00030B39DED100B02B0BDEC0E8B02B0BDE824
:1049C000704000F0E5BF9DED100B53EC1D2B51EC3A
:1049D000100BFBF7DFFC9DED100B41EC180B53ECBB
:1049E0001E2B51EC100BFBF7D5FC53EC182BFBF7EF
:1049F0002AFC41EC100B02B0BDEC0E8B02B070BD76
:104A0000012001F001F802B0BDEC0E8B02B0BDE850
:104A1000704000F0C9BFA1489FEDA18B844256DAD7
:104A20009DED100BB4F1795F0ADA51EC100BFFF732
:104A300079FF042808BF00F0C7FF9DED100BDAE7EF
:104A400053EC102B51EC100BFBF7A4FC41EC190BB1
:104A500095480621B0EE490AF0EE690A784400F064
:104A600083FE53EC192B51EC100BFBF793FC41EC3C
:104A70001A0B8E48B0EE490AF0EE690A0421784418
:104A800000F072FE53EC192B51EC100BFBF782FC7B
:104A900053EC182BFBF7D7FB41EC100B51EC1A0B26
:104AA00053EC102BFBF7E8FCCDE900019DED000B6A
:104AB00053EC102B9DED100B51EC100BFBF76AFC27
:104AC0009DED101B53EC112BFBF7BDFBD2E09DEDD0
:104AD000100B51EC100B01F0F3FB53EC182BFBF710
:104AE00056FC9FED730BCDE9000153EC102B9DEDAF
:104AF000000B51EC100BFBF74DFC41EC190B6E4811
:104B00000621B0EE490AF0EE690A784400F02CFE66
:104B100053EC192B51EC100BFBF73CFC41EC1B0B3D
:104B20006648B0EE490AF0EE690A0421784400F0C4
:104B30001BFE53EC192B51EC100BFBF72BFC53EC29
:104B4000182BFBF780FB41EC1C0B51EC190B01F00F
:104B5000F4FF41EC180B5A489FED5BABA04222DCFE
:104B600053EC1C2B51EC1B0BFBF786FCCDE9000131
:104B70009DED000B51EC180B53EC102BFBF70AFCCE
:104B800053EC182BFBF75FFB53EC1A2BFBF702FCE3
:104B900053EC1D2BFBF7F8FB53EC1E2BFBF7F7FB3D
:104BA00041EC100B5FE08DED008B002000909DED3F
:104BB000000B51EC180B53EC102BFBF744FB9DED55
:104BC000000B41EC1E0B53EC102B51EC100BFBF7C0
:104BD000E1FB53EC192BFBF7DAFB53EC1E2BFBF735
:104BE0004BFC41EC190B53EC1C2B51EC1B0BFBF752
:104BF00043FC41EC1B0B53EC1A2B51EC190BFBF74C
:104C0000C9FB53EC1D2BFBF7C2FB41EC190B53EC1A
:104C10001A2B51EC180BFBF7BDFB53EC1B2BFBF7CE
:104C2000B9FB53EC192BFBF7AFFB9DED000B41ECEF
:104C3000180B53EC1A2B51EC100BFBF7ABFB9FED51
:104C4000249B53EC192BFBF7A2FB41EC100B51EC0E
:104C5000180B53EC102BFBF797FB53EC192BFBF7BE
:104C600096FB41EC100B002D3FF7C5AE51EC100B3D
:104C700081F0004141EC100BBDE600000000000097
:104C80000000F03F00000000075C143326A6913CB2
:104C9000182D4454FB21F93F0000F07F0000E03F55
:104CA000000000000000F03FE0290000EE290000B5
:104CB000000000000000E03F322900004029000011
:104CC0003333EF3F00000000000000000000004010
:104CD000182D4454FB21E93F70B59B482DED020B84
:104CE0002DED068B079D25F00044A04218DC974867
:104CF000844202DC0AD1069840B19DED060BBDEC62
:104D0000068B02B0BDE8704000F042BE002DCCBF63
:104D10009FED8F0B9FED900BBDEC068B02B070BD2D
:104D20008F48A04215DD8F48A042D8BF4FF0FF3416
:104D300058DD9DED060B51EC100BFFF7F3FD042839
:104D400008BF00F041FE9DED060BBDEC068B02B0E6
:104D500070BD9DED060B51EC100B01F0B1FACDE9E1
:104D6000060181489FED828BA0423CDD8248A04233
:104D70001FDD00249FED82AB9DED060B53EC1A2B3B
:104D800051EC100BFBF75FFA9DED060B41EC190B94
:104D900053EC1A2B51EC100BFBF7FCFA53EC182BCD
:104DA000FBF7F2FA53EC192BFBF766FBCDE9060192
:104DB00049E09DED060B012453EC182B51EC100B30
:104DC000FBF741FA9DED060B41EC190B53EC182B48
:104DD00051EC100BFBF7D8FA53EC192BFBF74CFBFB
:104DE000CDE906012FE06848A0421FDD02249FEDB7
:104DF000689B9DED060B53EC192B51EC100BFBF748
:104E0000C9FA53EC182BFBF71EFA9DED060B41EC8B
:104E1000180B53EC192B51EC100BFBF7B5FA53ECB4
:104E2000182BFBF729FBCDE906010CE09DED060BE5
:104E3000032453EC102B9FED580B51EC100BFBF798
:104E40001BFBCDE906019DED060B53EC102B51EC3D
:104E5000100BFBF79FFA41EC180B53EC182BFBF7E8
:104E600099FA41EC190B4E480621B0EE490AF0EED2
:104E7000690A784400F078FC53EC182B51EC100BC5
:104E8000FBF788FA41EC180B4648B0EE490AF0EE01
:104E9000690A0521784400F067FC53EC192B51ECAA
:104EA000100BFBF777FA41EC100B51EC180B53EC9D
:104EB000102B002C0EDAFBF7C6F99DED061B53EC08
:104EC000112BFBF767FA9DED061B53EC112BFBF73B
:104ED0005EFA35E0FBF7B7F99DED061B53EC112B9D
:104EE000FBF758FA41EC100B2F48784400EBC40054
:104EF00090ED001B51EC100B53EC112BFBF744FA17
:104F00009DED061B53EC112BFBF73EFA41EC100B09
:104F10002648784400EBC40090ED001B51EC100BC8
:104F200053EC112BFBF733FA41EC100B002DA2BF11
:104F3000BDEC068B02B070BD51EC100B81F000414E
:104F400041EC100B01E70000000010440000F07F6E
:104F5000182D4454FB21F93F182D4454FB21F9BF6F
:104F60000000DC3F0000203E0000F33F0000000096
:104F7000000000000000F03F0000E63F00000000DD
:104F8000000000000000004000800340000000001E
:104F9000000000000000F83F000000000000F0BF2B
:104FA0008226000038260000C22500007A25000075
:104FB00010B52F499FED2C1B2DED020B84B00598E9
:104FC00020F000408842D8BF9DED040B2DDD29491B
:104FD000884209D1049840B94FF0010000F014FD57
:104FE00000F0E2FC06B010BD05DB9DED040B00F007
:104FF000CFFC06B010BD68469DED040B00F0E0F854
:1050000010F0030004BF9DED021B9DED000B0CD0C2
:1050100001280ED09DED021B9DED000B022817D03C
:10502000012000F01DFC06B010BD00F0E5FA06B04E
:1050300010BD9DED021B9DED000B012000F010FC4A
:1050400051EC100B81F0004106B041EC100B10BD8B
:1050500000F0D2FA51EC100B81F0004106B041ECA7
:10506000100B10BD00000000000000000000000058
:10507000FB21E93F0000F07F10B52F499FED2C1B6D
:105080002DED020B84B0059820F000408842DCBF73
:1050900000209DED040B32DD2849884209D1049897
:1050A00040B94FF0010000F0AFFC00F07DFC06B00D
:1050B00010BD05DB9DED040B00F06AFC06B010BDD1
:1050C00068469DED040B00F07BF810F0030011D052
:1050D000012818D09DED021B9DED000B02281AD06F
:1050E00000F08AFA51EC100B81F0004106B041EC5F
:1050F000100B10BD9DED021B9DED000B012000F07B
:10510000AFFB06B010BD9DED021B9DED000B00F046
:1051100073FA06B010BD012000F0A2FB51EC100B99
:1051200081F0004106B041EC100B10BD0000000002
:105130000000000000000000FB21E93F0000F07FBC
:1051400000B52DED048BB0EE409AF0EE609A83B07E
:1051500051EC190BFBF7FEFA41EC180B18EE100A94
:1051600018EE901A8DED008B002818BF012008431F
:1051700020F00040C0F17F6000F1E040C00F14D08B
:1051800019EE101A19EE900A8DED009B002918BF38
:105190000121084320F00040C0F17F6000F1E040B1
:1051A000C00F04BF012000F02FFCB0EE480A03B08E
:1051B000F0EE680ABDEC048B00BD000000000000AA
:1051C0002DE9F14F04462DED020B2DED088B8AB031
:1051D0009FEDE70B80ED020B139EE74826F000459C
:1051E00085420ADC9DED120B002084ED000B0AB015
:1051F000BDEC088B03B0BDE8F08FE0489FEDE0AB5D
:105200009FEDE1BBA84247DDE14F9FEDE39B9FEDA2
:10521000E48B9DED120B53EC1A2B51EC100B002E6E
:105220001CDDFBF7B1F841EC100BBD4208D053EC8C
:105230001B2B51EC100BFBF7A7F8C4E900010BE0A6
:1052400053EC192B51EC100BFBF79EF853EC182B79
:10525000FBF79AF8C4E900010120C8E7FAF7F3FF69
:1052600041EC100BBD4208D053EC1B2B51EC100B42
:10527000FAF7E9FFC4E900010BE053EC192B51ECFC
:10528000100BFAF7E0FF53EC182BFAF7DCFFC4E938
:1052900000014FF0FF30AAE7C348A84279DB9DED3B
:1052A000120B51EC100B01F00BF841EC180B9FEDB9
:1052B000C00B53EC102BFBF76DF89FEDBF1B53ECAD
:1052C000112BFAF7C0FFFBF7CEFA0746FBF743F9BD
:1052D00041EC190B53EC1A2BFBF75CF853EC182B31
:1052E000FBF755F841EC180B53EC1B2B51EC190B49
:1052F000FBF750F8DFF8C8A241EC100B4FEA155845
:105300000125FA4453EC102B51EC180BFBF73CF839
:10531000032DC4E900013DD0C1F30A5005EB45114E
:10532000A8EB00001139814234DA0AEB051BB0EE1C
:1053300048AA9BED000BF0EE68AA53EC102B51EC41
:10534000190BFBF727F841EC1B0B51EC1A0B53EC34
:105350001B2BFBF719F841EC180B51EC1A0B53EC13
:10536000182BFBF711F853EC1B2BFBF70DF89BEDFB
:10537000020B41EC1A0B53EC102B51EC190BFBF701
:1053800009F853EC1A2BFAF7FFFF41EC100B6D1CD8
:10539000B8E70EE0002EA8BF3846BFF628AF94ED60
:1053A000000B51EC100B81F00041C4E90001784280
:1053B0001DE7C6F3130040F4801EC6F30A50A0F2A6
:1053C000F530471100F01F05C5F12000DDF848B0A9
:1053D00008900020069007900520EC467949002DA2
:1053E00007EB0002794408BF51F8221009D051F8A8
:1053F000223001EB8201AB404A68089922FA01F1A0
:105400001943A1FB0E26A1FB0B131A449A4234BF89
:105410000123002303EB06080CEB8003D3E901A66C
:105420000E448E4234BF0121002192448A4411B1BE
:10543000924502D903E0924501D2012100E000210A
:10544000C3E901A641444CF82010011EA0F101005F
:10545000C4DC029800F10050850F0298DDE9036773
:105460008000DDF81480FBF776F841EC1A0B30462B
:10547000FBF7ECF99FED541B53EC112BFAF78AFF65
:1054800041EC1B0B3846FBF7E1F99FED511B53EC48
:10549000112BFAF77FFF41EC180B4046FBF7D6F9CA
:1054A0009FED4D1B53EC112BFAF774FF41EC190BD8
:1054B00051EC180B53EC192BFAF7C5FE53EC1B2BD0
:1054C000FAF7C1FE53EC1A2BFAF7BDFECDE908013D
:1054D000002008909DED080B53EC1A2B51EC100B9B
:1054E000FAF752FF53EC1B2BFAF74EFF53EC182B35
:1054F000FAF74AFF53EC192BFAF749FF9FED381BD7
:1055000053EC112BFAF746FF9FED370B41EC180BCC
:1055100053EC102B9DED080B51EC100BFAF73AFFF2
:1055200053EC182BFAF78FFE9FED310B41EC180B63
:1055300053EC102B9DED080B51EC100BFAF72AFFE2
:1055400053EC182BFAF77FFE41EC100B139810F078
:10555000004F06D06D4251EC100B81F0004141EC40
:10556000100B284684ED000B41E60000000000000F
:105570000000000000000000FB21E93F7CD9024050
:1055800000004054FB21F93F3163621A61B4D03D01
:10559000FB21F93F000000000000601A61B4D03D1B
:1055A0007370032E8A19A33BFB21394100000000D0
:1055B00083C8C96D305FE43F000000000000E03F99
:1055C00052220000A0210000000000000000103E58
:1055D000000000000000103C000000000000103A35
:1055E000182D4454FB21F93D3326A611460B113CDE
:1055F00000000054FB21F93D10B52DED040B2DEDFD
:10560000088B82B0B0EE419AF0EE619A0B9820F0D0
:1056100000449FED4BABB4F1795F11DA9DED0A0BBD
:1056200051EC100BFBF71FF9002801BFB0EE4A0A3E
:10563000F0EE6A0A02B0BDEC088B04BF04B010BDE6
:105640009DED0A0B53EC102B51EC100BFAF7A2FE58
:1056500041EC180B3C480621B0EE480AF0EE680A0F
:10566000784400F081F853EC182B51EC100BFAF74A
:1056700091FE9DED0A0B41EC1B0B53EC192B51ECE9
:10568000100BFAF787FE41EC190B53EC1B2B51EC76
:10569000180BFAF77FFE53EC192BFAF775FE9FED06
:1056A0002C0B41EC190B53EC102B51EC180BFAF7A7
:1056B00071FE41EC100B2848844210DA53EC192B90
:1056C00051EC100BFAF760FE53EC1A2BFAF75FFE61
:1056D00041EC100B02B0BDEC088B04B010BD1F48AC
:1056E000A042BCBF9FED1E1B8DED001B06DBA4F589
:1056F00000100190002000909DED001B51EC100B5C
:1057000053EC112BFAF740FE9DED000B41EC180B0A
:1057100053EC102B51EC1A0BFAF736FE41EC1A0B36
:1057200053EC192B51EC180BFAF72EFE53EC1A2BF5
:10573000FAF72DFE41EC100BCCE700000000000052
:10574000000000000000F03FC41E00000000000048
:10575000000000000000E03F3333D33F0000E93F8A
:10576000000000000000D23F70B504462DED028B12
:105770004D1E00EBC500B0EE408AF0EE608A90ED61
:10578000000B35F0060017D053EC182B51EC100B22
:10579000FAF700FE41EC100B6D1E04EBC50090ED16
:1057A000001B51EC100B53EC112BFAF74CFD41ECA4
:1057B000100B35F00600E7D1022D36D0042D1CD099
:1057C000062D1CBFBDEC028B70BD53EC182B51ECA9
:1057D000100BFAF7DFFD94ED0A1B53EC112BFAF7CF
:1057E00032FD53EC182BFAF7D5FD94ED081B53EC62
:1057F000112BFAF728FD41EC100B53EC182B51EC50
:10580000100BFAF7C7FD94ED061B53EC112BFAF7BA
:105810001AFD53EC182BFAF7BDFD94ED040B53EC75
:10582000102BFAF710FD41EC100B53EC182B51EC38
:10583000100BFAF7AFFD94ED021B53EC112BFAF7A6
:1058400002FD53EC182BFAF7A5FD94ED001B53EC69
:10585000112BFAF7F8FCBDEC028B41EC100B70BD7C
:1058600031B504462DED040B2DED0A8BB0EE41BA97
:10587000F0EE61BA0B989DED0A0B20F00040B0F1FC
:10588000795F0DDA51EC100BFFF74CF8042808BFD4
:1058900000F09AF89DED0A0BBDEC0A8B05B030BD07
:1058A00053EC102B51EC100BFAF774FD41EC180B74
:1058B0009DED0A0B53EC182B51EC100BFAF76AFD17
:1058C00041EC190B2C48B0EE480AF0EE680A0521AD
:1058D0007844FFF749FF9FED2ACBB0EE40AAF0EEE7
:1058E00060AA9CB353EC1C2B51EC190BFAF752FD38
:1058F00041EC1C0B53EC1A2B51EC190BFAF74AFD37
:105900009FED210B41EC190B53EC102B51EC1B0BB1
:10591000FAF740FD53EC192BFAF736FD53EC182B30
:10592000FAF738FD53EC1B2BFAF72EFD53EC1C2B2A
:10593000FAF72AFD9DED0A1B53EC112BFAF727FD10
:10594000BDEC0A8B05B041EC100B30BDFFE753EC0A
:105950001A2B51EC180BFAF71DFD53EC1C2BFAF720
:1059600072FC53EC192BFAF715FD9DED0A1B53EC55
:10597000112BFAF768FCE3E74C1D00000000000063
:10598000495555555555C5BF000000000000E03F82
:1059900010B553EC102B51EC100BFAF754FC41EC02
:1059A000100B10BD000000009FED050B10B553EC6F
:1059B000102B51EC100BFAF75FFD41EC100B10BDF2
:1059C00000000000000000009FED050B10B553EC37
:1059D000102B51EC100BFAF7DDFC41EC100B10BD55
:1059E000000000000000001002E008C8121F08C1FB
:1059F000002AFAD170477047002001E001C1121F50
:105A0000002AFBD170470000014908607047000080
:105A1000CC0100202DE9FF5FDDE90220010DDDF85A
:105A200038B0024318D044F61050A1F2FF31414380
:105A30000D140F98012820D0A5EB0B00401C5FEA45
:105A4000000A4FF00004474EDFF81C91A046504674
:105A500016D5CAF1000728E00F98012443A20128B7
:105A600008D0002100980F9BC0E90021C0E9024343
:105A7000BDE8FF9F6FEA0B01F4E7CBF10000DEE722
:105A8000074612E0F80707D022463346404649460B
:105A9000FAF780FC8046894622463346104619466E
:105AA000FAF778FC04460E467F10002FEAD1DDE9B4
:105AB0000201BAF1000F42464B4602DAFAF76AFCDD
:105AC00001E0FAF7D9FC04460E460022284BFAF70B
:105AD00085FD03D84FF0FF30014607E00022254B3B
