:020000040800F2
:10000000680D0020010100086F3100082D2B000849
:100010006D31000825080008153B000800000000AD
:100020000000000000000000000000007D37000814
:100030005F08000800000000473600087F3700080E
:100040001B0100081B0100081B0100081B01000820
:100050001B0100081B010008610800081B010008C3
:100060008D0800081B0100081B0100082908000872
:100070001B0100081B0100081B0100081B010008F0
:100080001B0100081B0100081B0100081B010008E0
:100090001B0100081B0100081B0100089308000851
:1000A0001B010008FD3700081B0100081B010008A8
:1000B000093800081B0100081B0100081B0100088B
:1000C0001B0100081B0100081B0100081B010008A0
:1000D0001B010008093B00081B0100081B01000868
:1000E000670800081B0100081B010008DFF80CD09E
:1000F00000F03AFA0048004729440008680D002043
:100100000648804706480047FEE7FEE7FEE7FEE7B1
:10011000FEE7FEE7FEE7FEE7FEE7FEE7FB37000847
:10012000ED000008202A04DB203A21FA02F0002129
:10013000704721FA02F3D040C2F1200291400843F7
:1001400019467047D2B201E000F8012B491EFBD2DC
:1001500070470022F6E710B513460A4604461946D2
:10016000FFF7F0FF204610BD30B50B4601460020DA
:100170002022012409E021FA02F59D4205D303FA69
:1001800002F5491B04FA02F52844151EA2F10102EA
:10019000F1DC30BD2DE9F05F0546002092469B461C
:1001A00088460646814640241BE02846414647468D
:1001B0002246FFF7B7FF53465A46C01A914110D363
:1001C00011461846224600F0E1F92D1A67EB0108A6
:1001D0004F4622460120002100F0D8F917EB000914
:1001E0004E41201EA4F10104DFDC484631462A4678
:1001F0004346BDE8F09F2DE9FE4F804681EA0300AB
:10020000C00F0C46009021F0004123F00045B8EBF0
:100210000200A94105D24046214690461C460B46A5
:10022000024623F00040104347D0270DC7F30A00D1
:10023000C3F30A510290401A019040286BDAC3F3CD
:10024000130040F4801B0098924620B10023D2EBAB
:10025000030A63EB0B0B01985946C0F1400250466C
:1002600000F094F906460D4650465946019A00F0B2
:100270009CF910EB08006141002487EA115284EADE
:10028000E7731A4340D0009A62B3019A012A4FEAF9
:10029000075215DC001B61EB02014FF0004202EA3D
:1002A0000752CDE90042001C41F5801132462B4631
:1002B00000F09CF903B0BDE8F08F40462146F9E715
:1002C000001B61EB0201001C41F5801300185B412B
:1002D0002018A2F5001747EB030140EAD570B619C4
:1002E0006D4111E06D084FEA360645EAC0754FEAE8
:1002F0000752001B61EB0201001C41F58011490807
:100300004FEA30000019514132462B4603B0BDE898
:10031000F04F00F05CB90098012240000023D0EBC0
:10032000020263EBE073009821464FEAE074B8EBF9
:10033000000061EB0401E9E783F000435BE781F033
:10034000004158E72DE9FE4F81EA030404F0004420
:1003500021F0004100944FF0000B23F0004350EADD
:1003600001045ED052EA03045BD0C3F30A54C1F324
:100370000A552C44A4F2F3340194A0FB0254C1F3B7
:10038000130141F48011C3F3130343F4801301FB01
:10039000024400FB034E840A970A44EA815447EA68
:1003A0008357A4FB076802958D0A05FB07854FEA72
:1003B000932C04FB0C542705029D4FEA065847EA8C
:1003C0001637B5EB08056EEB070C870E920E47EA61
:1003D000811742EA8312A7FB0201B6EB0B0164EB23
:1003E00000042B0D43EA0C335E1844EB1C50DA4634
:1003F0005146E7FB0201C5F313044FEA0B3343EA0E
:1004000014534FEA0432019C43EA0603A4F10C049E
:100410000294009CCDE900B400F0E8F803B0BDE818
:10042000F08F00200146F9E72DE9F04D81EA030441
:1004300004F0004B21F0004514464FF0000A23F071
:10044000004150EA050220D054EA01021DD0C5F354
:100450000A570246C5F31303C1F31300C1F30A564A
:1004600040F4801543F48013A7EB0608101BD64612
:1004700008F2FD3873EB050002D308F1010801E032
:1004800092185B41B8F1000F03DA00200146BDE885
:10049000F08D00204FF48011064684460EE0171BB5
:1004A00073EB050705D3121B63EB050306434CEA08
:1004B000010C49084FEA300092185B4150EA0107ED
:1004C000EDD152EA030012D082EA040083EA05016A
:1004D000084305D0101BAB4106D20122002306E0E1
:1004E00000224FF0004302E06FF0010253101AEBBC
:1004F00006004CEB085110EB0A0041EB0B01BDE884
:10050000F04D00F064B8C1F30A52C1F3130140F298
:10051000FF3341F480119A4202DA0020014670470D
:1005200040F233439A42A2F2334202DC5242FFF7D6
:10053000F9BD00F02BB8000030B5041E71F10004C5
:1005400004DB4FF00044404264EB0101141E73F1E0
:10055000000405DB1C464FF00043524263EB0403EA
:10056000994208BF904230BD064C074D06E0E06856
:1005700040F0010394E8070098471034AC42F6D3EA
:10058000FFF7B8FD0C5100082C510008202A04DBAD
:10059000203A00FA02F1002070479140C2F1200396
:1005A00020FA03F3194390407047202A06DBCB174B
:1005B000203A41FA02F043EAE07306E041FA02F31E
:1005C000D040C2F12002914008431946704710B54F
:1005D000141E73F1000408DA401C41F10001921866
:1005E0005B411A4301D120F0010010BD2DE9F04D0F
:1005F00092469B4611B1B1FA81F202E0B0FA80F264
:1006000020329046FFF7C2FF04460F4640EA0A0038
:1006100041EA0B0153465A46084313D0114653EAA8
:10062000010019D0C8F140025046FFF77BFD054696
:100630000E46504659464246FFF7A8FF084305D0EC
:10064000012004E020463946BDE8F08D0020054336
:1006500046EAE0762C4337430A986305E40AA0EBA8
:1006600008000022FD0A44EA47540A3002D500205F
:100670000146E9E7010510196941DDE9084500195E
:100680006941BDE8F04DA2E770B58C1810F8015B28
:1006900015F0070301D110F8013B2A1106D110F81B
:1006A000012B03E010F8016B01F8016B5B1EF9D11F
:1006B0002B0705D40023521E0DD401F8013BFAE7A5
:1006C00010F8013BCB1A921C03E013F8015B01F810
:1006D000015B521EF9D5A142D8D3002070BD0000A5
:1006E00070B5044600688168C943C90717D181689D
:1006F00021F00101816000F063FE05460AE000BFC1
:1007000000F05EFE401B022804D920688068C043C8
:10071000C00706D020688068C043C007F0D0002022
:1007200070BDA06A40F01000A062E06A40F00100D5
:10073000E062012070BD10B50146406A826A12F085
:10074000500F05D0006A026BBDE810400846104704
:10075000816A41F40071816201688968C1F3424194
:1007600007290CD1017B51B9816A21F48071816222
:10077000816AC90403D4816A41F00101816200F0F9
:100780000DF910BD10B5406A816A41F040018162E7
:10079000C16A41F00401C16200F06DF910BD10B5ED
:1007A000406A00F067F910BDF8B5002604460096CF
:1007B00000688168C943C9072DD0816841F00101F3
:1007C0008160164816490068B0FBF1F000E0401E59
:1007D00000900028FBD100F0F3FD054616E000BFB5
:1007E00000F0EEFD401B022810D920688068C0434D
:1007F000C0070BD0A06A40F01000A062E06A40F091
:100800000100E06284F824600120F8BD206880685F
:10081000C043C007E4D10020F8BD0000F40100206F
:1008200040420F00FEE70000014800F01BBB000043
:100830001807002030B590F840500124AC40C56B3B
:100840006C60046863604368102B036803D0996090
:100850000068C26030BD9A600068C16030BD7047FA
:10086000012000F0A7BC10B54FF4805000F0A2FCAE
:100870004FF4005000F09EFC4FF4804000F09AFCD2
:10088000BDE810404FF4004000F094BC042000F09C
:1008900091BC4FF4807000F08DBC72B6FEE7000092
:1008A000F8B50024009490F824202546012A12D09F
:1008B000012280F824204A681F23072A0DD20668E7
:1008C000776B521E02EB820293409F430B6893406A
:1008D0001F43776319E00220F8BD06680D2A0AD28B
:1008E000376BD21F02EB820293409F430B68934009
:1008F0001F43376309E0F76A0D3A02EB8202934027
:100900009F430B6893401F43F7620A6807230668FA
:100910000A2A0AD3F7680A3A02EB420293409F433D
:100920008B6893401F43F76008E0376902EB42028F
:1009300093409F438B6893401F4337610A68102A96
:1009400001D0112A20D1124B02689A4217D1936824
:100950001B0219D4936843F40003936009681029BB
:1009600012D10C490C4A0968B1FBF2F101EB81018B
:10097000490000E0491E00910029FBD104E0816A92
:1009800041F020018162012480F824502046F8BD06
:1009900000240140F401002040420F002DE9F04105
:1009A000314800F0C5F90020304B314C502100BFD8
:1009B00033F82020A578C2F30B02B2FBF1F22A44EF
:1009C000A27003EB800266789588001DC5F30B05C5
:1009D000B5FBF1F5354465701589E678C5F30B056F
:1009E000B5FBF1F53544E57092892579C2F30B0228
:1009F000B2FBF1F22A44C0B222711428D8D3617834
:100A00000520B1FBF0F36370A178B1FBF0F2A270A6
:100A1000E178B1FBF0F1E1702579B5FBF0F62671D4
:100A200020780025052802D2401C207000E02570A7
:100A30000E48277820380770277B4770277C8770FF
:100A4000277EC771C37002714171867102F002FC8A
:100A50006570A570E5702571BDE8F0411422034969
:100A6000014800F0DFB80000E806002098060020EA
:100A700090010020704770472DE9F0414FF00007CA
:100A800004003D467ED0A06A002628B9E66284F8BC
:100A90002460204600F07EF82046FFF721FEA16A80
:100AA00001F01001014304D0A06A40F01000A062E0
:100AB00068E0A16A21F4885141F00201A1626268F4
:100AC000E169237B0A4347EA43010A43A1684FF4E3
:100AD0008077B94208D0012906D0002194F814C0CB
:100AE000BCF1010F02D00AE03946F7E7F3B1A36A7F
:100AF00043F02003A362E36A43F00103E362236847
:100B0000D3F804C02CF4694C4CEA010CC3F804C0BF
:100B100023689968DFF870C001EA0C0111439960FD
:100B2000A168B9420BD0012909D00CE0DFF85CC004
:100B3000A3690CEB43330B4343F40061DFE7218AE5
:100B40000D05A5F580152168CB6A23F470032B43AE
:100B5000CB62216889680E4B1940914208D1E66248
:100B6000A16A21F0020141F00101A162BDE8F0811A
:100B7000A06A20F0020040F01000A062E06A40F09D
:100B80000100E0620120F1E7FDF7E1FF00E0FFFF77
:100B9000FE0E1FFF70B586B0002506460095019534
:100BA0000295039500681A4988422ED1194988692F
:100BB00040F400708861886900F4007004908869CE
:100BC00040F0040088618869694600F004000490E0
:100BD0001E200090032001900F4800F0F7FA104CFF
:100BE0000E48C4E900058020C4E90250800020615D
:100BF000800060612020C4E90605204600F0DCF991
:100C000008B1FFF74AFE3462666206B070BD0000AC
:100C1000002401400010024000080140080002408A
:100C2000180700202DE9F047894604463B49006833
:100C30003B4F0E1D9046884201D0B84207D1306824
:100C400010F4702F03D001252846BDE8F08794F8F2
:100C5000240001280CD0012084F824002046FFF74E
:100C6000A3FD05004FF0000004D084F82400EBE75A
:100C70000220EAE7A16A40F60162914341F48071E3
:100C8000A1622168B94218D1326812F4702F14D0D1
:100C9000A16A41F48011A1623168490505D5A16AB4
:100CA00021F4005141F48051A162A16AC9040AD51E
:100CB000E16A21F00601E16206E0A26A22F48012F4
:100CC000A2624968E9E7E06284F82400216A1548D5
:100CD0008862216A1448C862216A1448086321683E
:100CE0006FF0020008602068816841F480718160C3
:100CF000216843464A464C31206A00F08BF920684F
:100D00008168C1F342410729816803D041F4801111
:100D1000816099E741F4A001FAE700000024014056
:100D200000280140370700089F07000885070008D2
:100D300010B5044690F82400012807D0012084F85B
:100D400024002046FFF7CCFC10B113E0022010BDB8
:100D500021688A6822F480728A60216A91F82120D1
:100D6000022A07D1084600F00EF8A16A30B141F01E
:100D70004001A162002184F8241010BD21F48851A3
:100D800041F00101F5E710B590F821100022022989
:100D900005D00421816380F82020012010BD016866
:100DA0000B6823F00E030B6001680B6823F001034E
:100DB0000B6090F84030C46B012101FA03F36360CB
:100DC00080F8211080F82020104610BD10B590F852
:100DD00021100024022903D00421816301243DE075
:100DE00001680A6822F00E020A6001680A6822F0AF
:100DF00001020A601A4A0168914201D1012121E0F1
:100E0000174A1432914201D110211BE0144A2832B2
:100E1000914201D1891515E0114A3C32914201D12C
:100E200089140FE00E4A5032914202D14FF48031C2
:100E300008E00B4A6432914202D14FF4801101E084
:100E40004FF08071064A083A5160012180F8211064
:100E5000002180F82010416B01B18847204610BD69
:100E6000080002402DE9F05FC16B0C6801680B6857
:100E7000D0F840C0042202FA0CF2494DDFF824A158
:100E8000494E4A4FDFF828B1DFF828E122422CD042
:100E90005A072AD50A68920603D40A6822F0040287
:100EA0000A600168A94201D1042219E0514501D12B
:100EB000402215E0B14202D14FF4806210E0B94205
:100EC00002D14FF480420BE0594502D14FF4802209
:100ED00006E0714502D14FF4800201E04FF08062DC
:100EE0002F4908394A60C16A3BE04FF0020808FA0E
:100EF0000CF818EA040F4FF000094FF0010235D04A
:100F00005FEA837832D50B689B0605D40B6823F023
:100F10000A030B6080F821200168A94201D1022256
:100F200019E0514501D1202215E0B14202D14FF420
:100F3000007210E0B94202D14FF400520BE0594563
:100F400002D14FF4003206E0714502D14FF4001295
:100F500001E04FF00072124908394A6080F8209091
:100F6000816A00291AD0BDE8F05F0847082505FA14
:100F70000CF5254212D01B0710D50B6823F00E0389
:100F80000B6090F84010C36B02FA01F15960826364
:100F900080F8212080F82090016BE2E7BDE8F09F07
:100FA000080002401C0002403000024044000240A1
:100FB000580002406C00024030B528B308C81349FD
:100FC00014221944B1FBF2F18900C1631049816315
:100FD000022141771A6843F6F0718A43D0E9001480
:100FE0002143D0E902452C4321430469214344694C
:100FF0002143846921431143196000214163012287
:1010000042770177084630BD012030BDF8FFFDBFB3
:101010000000024070B5044690F820000025012829
:101020000CD0012084F8200094F821600020012ECB
:1010300006D084F820000225284670BD022070BD2D
:10104000022684F82160A0632068066826F0010665
:1010500006602046FFF7EEFBE06A00282068016882
:1010600002D041F00E0106E021F004010160206889
:10107000016841F00A0101602068016841F0010146
:101080000160D9E770B5044600F09AF90546601C86
:1010900002D004480078044400F092F9401BA042BA
:1010A000FAD370BDE80100202DE9F0414FF4005162
:1010B00000253B4A02263B4C884207D1104600F0EF
:1010C00075F9002813D1E068401E0AE04FF4004192
:1010D00088420ED1104600F069F9002807D1E06877
:1010E000401CC4E903063048FFF722FE6561BDE8F5
:1010F000F0814FF48051884207D1104600F056F934
:101100000028F4D12069401E0BE04FF48071274B7A
:10111000884208D1184600F049F90028E7D1206933
:10112000401C2061DFE74FF480410126884214D142
:10113000104600F03BF90028D9D1606928B16561FB
:10114000BDE8F0411848FFF7F3BD6661BDE8F04126
:10115000142217491448FFF765BD154F203F012899
:101160000CD00428C3D10421104600F01FF9002838
:10117000BDD1E06980B13E72E561B8E70121184652
:1011800000F014F90028B2D1A06910B1FE71A56178
:10119000ADE7FD71A661AAE73D72E661A7E7000031
:1011A000000C014090010020E806002000080140EA
:1011B00098060020044910B50A68024202D008606F
:1011C000FFF772FF10BD0000140401402DE9F84F35
:1011D000DFF8B891002409F1040A0AF1040B234650
:1011E0000F270BF1040EC9E00125A5402A40AA42B1
:1011F0007DD1674ED1F804C0ACEB0608B44532D0BF
:1012000014DCBCF1030F3AD009DCBCF1000F2AD08A
:10121000BCF1010F1CD0BCF1020F31D11DE0BCF1BB
:10122000110F17D0BCF1120F2AD119E0B8F5881FA1
:1012300019D006DCB8F5803F15D0B8F5801F1FD156
:1012400011E0B8F5001F0ED0B8F5041F18D10AE060
:10125000CB6815E0CB681B1D12E0CB6808330FE0AC
:10126000CB680C330CE08B682BB1012B4FF00803DB
:1012700003D0456104E0042302E0056100E000239F
:10128000FF2A01D8064601E000F104064FEA840572
:1012900001D9A5F12005D6F8008007FA05FC28EA57
:1012A0000C0803FA05F548EA0508C6F800804D6801
:1012B000ED0062D5374DAE6946F00106AE61AD690D
:1012C00024F0030605F001050095334D06EB050CEF
:1012D000DCF80850A607360F07FA06F825EA0805D5
:1012E000DFF8B880404503D14FF0000817E044E034
:1012F000DFF8AC80404502D14FF001080FE0DFF885
:10130000A480404502D14FF0020808E0DFF8988041
:10131000404502D14FF0030801E04FF0040808FAFD
:1013200006F848EA0508CCF808804D68D9F800604E
:10133000ED034D4601D5164300E096432E604D68FF
:10134000DAF80060AD03554601D5164300E0964338
:101350002E604D68DBF80060ED025D4601D5164356
:1013600000E096432E604D68DEF80060AD027546E1
:1013700001D5164300E096432E60641C0D682A4692
:10138000E5407FF431AFBDE8F88F00000004014074
:101390000000111000100240000001400008014050
:1013A000000C01400010014000140140806808401A
:1013B00000D0012070470AB1016170470904FBE7C2
:1013C0000148806870470000E801002070B5040003
:1013D00025D094F83D00002520B984F83C502046E3
:1013E00000F04EF9242084F83D002068016821F0C7
:1013F000010101602068016841F40041016020683A
:10140000016821F40041016000F00CFB4D4A616865
:10141000914201D84C4900E04C49884201D2012058
:1014200070BD4B492368B0FBF1F15E6826F03F06C2
:101430000E435E606368934206D94FF49673594336
:101440004FF47A73B1FBF3F12368491C1E6A26F04E
:101450003F06314319626168914210D84900401E2D
:10146000B0FBF1F2521CC2F30B02042A01D2042099
:1014700022E0B0FBF1F0401CC0F30B001CE0A268BE
:10148000F2B301EBC10303EB0116431EB3FBF6F30A
:101490005B1C43F480431B0549D092B301EBC102AE
:1014A00002EB0111401EB0FBF1F0401CC0F30B0039
:1014B00040F4804040F400402168CA694CF6FF7354
:1014C0009A431043C861D4E90710014320680268B9
:1014D00022F0C00211430160D4E9030101432068F6
:1014E000826848F2FF339A4311438160D4E90501D1
:1014F00008432168CA6822F0FF021043C86001E077
:101500000EE016E02068016841F0010101602564E9
:10151000202084F83D00256384F83E50002070BDF3
:1015200001EB4106431EB3FBF6F35B1CB3E701205E
:10153000C2E701EB4101401EB0FBF1F0401CC0F3DB
:101540000B00B7E7A086010080841E0000093D0063
:1015500040420F002DE9F84F1F4690468A46044648
:10156000DDF82890FFF72CFF054694F83D00202871
:101570007FD11923012240492046009501F062FBEA
:10158000002876D194F83C00012872D0012084F81C
:101590003C0020680168C90703D1016841F00101DE
:1015A00001602068016821F400610160212084F855
:1015B0003D00102084F83E0000262664C4F82480F4
:1015C0006785608D20852D48E0622B464A4651464E
:1015D000204601F0C3FA90B9206841698069009003
:1015E00036E02A464946204601F0ABFB50B1206C5C
:1015F000042804D12068016841F4007101600120D1
:10160000BDE8F88F606A216800780861606A401C54
:101610006062618D491E6185218D491E89B22185D7
:1016200022685369DB435B070BD451B1007810612A
:10163000606A401C6062608D401E6085208D401E87
:1016400020852A464946204601F0D6FA0028CED108
:10165000208D0028C5D154F83D0B016841F400717C
:101660000160202004F81E09E67766770020C7E7AE
:10167000FFE70220C4E70000020010000000FFFFA7
:1016800010B586B00021009101910291039100688C
:101690000F4988421AD10F4CA06940F00800A061A0
:1016A000A069694600F008000490C0200090122054
:1016B0000190032003900848FFF788FDE06940F49B
:1016C0000010E061E06900F40010049006B010BD65
:1016D0000054004000100240000C014002488168A4
:1016E0000278114481607047E8010020074810B576
:1016F000016841F010010160032000F075F80F202F
:1017000000F006F800F024F8002010BD0020024090
:1017100070B50D4D04464FF47A712878B1FBF0F0A6
:101720000A490968B1FBF0F000F045FE48B9102CF9
:1017300007D200222146501E00F036F800206C60CF
:1017400070BD012070BD0000E8010020F401002000
:101750000C4808B5816941F001018161816901F09E
:1017600001010091C16941F08051C161C06900F07F
:10177000805000900448416821F0E06141F0007120
:10178000416008BD0010024000000140002809DB54
:1017900000F01F02012191404009800000F1E0208B
:1017A000C0F8001170470000F0B40E4B1B680C46E7
:1017B000C3F30223C3F10705042D00D90425191D25
:1017C000072901D2002300E0DB1E012606FA05F1FD
:1017D000491E214099409E40761E16403143F0BC80
:1017E00002F0ACB90CED00E0064900F00702086811
:1017F0004FF6FF03184040EA0220034A10430860F6
:10180000704700000CED00E00000FA052DE9F843F8
:1018100005460078354CC00754D0E0690026C0006A
:1018200008D4E06940F08050E061E069012600F0F2
:10183000805000902E480168C90512D40168804686
:1018400041F480710160FFF7BBFD074605E000BF72
:10185000FFF7B6FDC01B642823D8D8F80000C005E8
:10186000F6D5206A10F4407021D0A98801F44071A7
:1018700081421CD0206A1F49012220F440700A6076
:1018800000220A602062C00711D0FFF799FD0746C9
:1018900041F2883808E000BFFFF792FDC11B4145C7
:1018A00002D90320BDE8F883206A8007F4D5206AB6
:1018B000696820F44070084320621EB1E06920F09E
:1018C0008050E0612878800705D56068A96820F419
:1018D0004040084360602878C00605D56068E96824
:1018E00020F48000084360600020DBE70010024025
:1018F00000700040400442422DE9F0470F460500C9
:1019000061D0434E306800F00700B84209D2306819
:1019100020F0070038433060306800F00700B8421C
:1019200051D128683B4C810712D5400703D5606828
:1019300040F4E06060602878000703D5606840F4F8
:10194000605060606068A96820F0F0000843606043
:101950002878C00728D06868012810D0216802289C
:1019600010D0890700292EDA616821F003010143B4
:101970006160FFF725FD804641F288390DE021685E
:101980008903EFE78901EDE7FFF71AFDA0EB0801F6
:10199000494502D90320BDE8F0876068696800F016
:1019A0000C00B0EB810FEFD1306800F00700B842B7
:1019B0000BD9306820F0070038433060306800F001
:1019C0000700B84201D00120E5E72878400705D597
:1019D0006068E96820F4E0600843606028780007E8
:1019E00006D56068296920F4605040EAC100606053
:1019F00000F038F86168084AC1F30311515CC8402F
:101A00000649086006480068FFF782FE0020C2E72A
:101A10000020024000100240F1500008F4010020B4
:101A2000EC0100200448054900684968044AC1F3F4
:101A30000221515CC8407047F401002000100240B0
:101A4000015100080448054900684968044AC1F387
:101A5000C221515CC8407047F401002000100240D0
:101A60000151000812A185B00FC98DE80F0014A024
:101A7000144A006804905168134801F00C03042BC9
:101A800010D0082B0ED1C1F38343C9031DF8030006
:101A90000AD5516804AAC1F34041515C0A4A504337
:101AA000B0FBF1F005B0704708494843FAE7000081
:101AB00002030405060708090A0B0C0D0E0F10108F
:101AC000010200000010024000127A0000093D00EF
:101AD0002DE9F84F040070D02078C04DC00749D0E0
:101AE0006868C0F38100012807D06868C0F38100EE
:101AF000022809D16868C00306D52868800339D553
:101B000060680028E7D035E06068B0F5803F0BD012
:101B100010B1B0F5A02F11D0286820F480302860D3
:101B2000286820F4802002E0286840F48030286093
:101B3000606890B1FFF744FC06460AE0286840F46C
:101B400080202860F0E700BFFFF73AFC801B642884
:101B500073D828688003F7D50CE0FFF731FC064600
:101B600005E000BFFFF72CFC801B6428F0D8286834
:101B70008003F7D420789A4E80074FF001094FF088
:101B8000000839D5686810F00C0F07D06868C0F3FA
:101B90008100022809D16868C00306D4286880073C
:101BA00014D52069012808D110E02069B0B1C6F829
:101BB0000090FFF705FC074605E00AE1FFF700FC8F
:101BC000C01B0228C4D828688007F7D52868616937
:101BD00020F0F80040EAC10028600DE0C6F800805F
:101BE000FFF7EEFB074604E0FFF7EAFBC01B022805
:101BF00023D828688007F7D4207800072CD57948A7
:101C0000A169D9B1C0F80090FFF7DAFB074604E0FC
:101C1000FFF7D6FBC01B02280FD8686A8007F7D5EC
:101C200071484FF4FA510068B0FBF1F0009000BF2A
:101C30000098411E0091FAD20EE080E0C0F80080CA
:101C4000FFF7BEFB074604E0FFF7BAFBC01B022804
:101C500075D8686A8007F7D42078400760D5E869AE
:101C60000027C00008D4E86940F08050E861E869C6
:101C7000012700F0805000905C480168C90513D42A
:101C80000168834641F480710160FFF799FB824649
:101C900006E000BFFFF794FBA0EB0A0064284ED8D3
:101CA000DBF80000C005F5D5E06801280AD008B1CE
:101CB000052813D0286A20F001002862286A20F045
:101CC000040002E0286A40F001002862E06841F266
:101CD000883B98B1FFF774FB82460BE0286A40F01E
:101CE00004002862EEE700BFFFF76AFBA0EB0A01E1
:101CF00059455AD8286A8007F6D50CE0FFF760FBF3
:101D0000824605E0FFF75CFBA0EB0A0159454CD881
:101D1000286A8007F6D41FB1E86920F08050E86196
:101D2000E06988B36968C1F38101022944D00228BF
:101D3000C6F8608004D0FFF743FB044638E034E087
:101D4000FFF73EFB074604E0FFF73AFBC01B022803
:101D50002BD828688001F7D4206AB0F5803F05D1E0
:101D60006868A16820F4003008436860D4E908017D
:101D70000843696821F4741108436860C6F86090EC
:101D8000FFF71EFB044606E025E000BFFFF718FB47
:101D9000001B022809D828688001F7D51BE000BF86
:101DA000FFF70EFB001B022802D90320BDE8F88FC5
:101DB00028688001F4D40EE00128F7D06868226A10
:101DC00000F48031914204D1616A00F470108842BD
:101DD00001D00120EAE70020E8E7000000100240FF
:101DE0000000424280044242F401002000700040A2
:101DF00070B5040009D0606A002540B125616561B5
:101E0000A56294F8510040B10CE0012070BD6068FB
:101E1000B0F5827FF4D0E561F2E784F850502046B7
:101E200000F040F8022084F851002068016821F099
:101E300040010160A088218900F4827001F404410E
:101E40000843A18901F400610843217C01F00201EB
:101E50000843217D01F001010843218B01F4007149
:101E60000843217F01F03801084394F8201001F065
:101E700080010843218D01F4005108432168086066
:101E8000A069042101EA1040216848602068C16906
:101E900021F40061C1616565012084F851000020D2
:101EA00070BD000030B585B0002400940194029408
:101EB000039400681449884223D11448816941F48D
:101EC00080518161816901F480510491816941F0FF
:101ED0000401816180690E4D00F004000490A0208F
:101EE0000090022001900320039069462846FFF7E6
:101EF0006DF94020CDE90004694628460294FFF7B9
:101F000065F905B030BD000000300140001002400E
:101F1000000801402DE9F84F044640680025984626
:101F200016460F464FF0040BB0F5827F01D1A06832
:101F300088B194F85000012818D0012084F850008E
:101F4000FFF73EFA814694F851004FF0000A01284D
:101F50000ED0022582E084F851B013460A4620468E
:101F6000CDF8008000F036F9BDE8F88F0220FBE7DD
:101F7000002F72D0002E70D084F851B0C4F854A055
:101F8000A763A687E687C4F830A0A4F834A0A4F815
:101F900036A0C4F840A0C4F844A0A068B0F5004F33
:101FA00009D12068016821F04001016020680168C2
:101FB00021F48041016020680168490603D401686A
:101FC00041F040010160E068D8B139E020688168E3
:101FD000C90709D0007BA16B0870A06B401CA063EF
:101FE000E08F401EE0870CE0FFF7EAF9A0EB090163
:101FF000414503D3B8F1FF3F03D036E0B8F1000FFD
:1020000033D0E08F0028E1D11DE020688168C90746
:1020100009D0C068A16B0880A06B801CA063E08F12
:10202000401EE0870CE0FFF7CBF9A0EB090141452A
:1020300003D3B8F1FF3F03D017E0B8F1000F14D07D
:10204000E08F0028E1D14A464146204601F0FCFAE3
:1020500008B120206065606D00B10125012084F881
:10206000510084F850A028467EE70325F6E72DE9C5
:10207000F84F044690F8500000271D461646894642
:1020800001280DD04FF0010B84F850B0FFF798F9FC
:10209000804694F85100BA46012804D0022793E004
:1020A0000220BDE8F88FB9F1000F73D0002E71D077
:1020B000032084F85100C4F854A0C4F83090A686D8
:1020C000E686C4F838A0A4F83CA0A4F83EA0C4F862
:1020D00044A0C4F840A0A068B0F5004F09D1206822
:1020E000016821F0400101602068016841F48041ED
:1020F000016020680168490603D4016841F040018D
:102100000160E068B0F5006F606803D030B3012E65
:1021100024D041E008B1012E1CD1206B2168008839
:10212000C86006E020688168890709D5216B0988A5
:10213000C160206B801C2063E08E401EE08609E0B9
:10214000FFF73EF9A0EB0800A84202D3681C01D0BB
:1021500031E07DB3E08E0028E4D120E0206B2168DF
:102160000078087306E020688168890709D5216B2B
:1021700009780173206B401C2063E08E401EE086CE
:102180000AE0FFF71DF9A0EB0800A84203D3681C82
:1021900002D010E017E06DB1E08E0028E3D1424696
:1021A0002946204601F07EFA08B120206065A0682B
:1021B00018B106E0FFE7032706E02068C1688068E1
:1021C0000090606D00B1012784F851B084F850A0F0
:1021D000384666E72DE9F84F044690F8500000278E
:1021E0000A9E1D4692468B464FF0010901280ED0EB
:1021F000012084F85000FFF7E3F8804694F851007E
:10220000616801280CD0B1F5827F07D102E002207D
:10221000BDE8F88FA16809B9042801D00227C2E0FF
:10222000BBF1000F27D0BAF1000F24D01DB394F8F2
:102230005100042802D0052084F851000020606578
:10224000C4F838A0E587A587C4F830B0E586A58630
:102250002064606420680168490603D4016841F085
:1022600040010160E068B0F5006F606805D0E8B338
:10227000012D46D07FE0012795E008B1012D39D12D
:10228000206B21680088C860206B801C2063E08E72
:10229000401EE0862EE02068816889070FD5E18E18
:1022A00069B1B9F1010F0AD1216B0988C160206BB6
:1022B000801C2063E08E401EE0864FF000092068FD
:1022C0008168C9070CD0E18F51B1C068A16B08804B
:1022D000A06B801CA063E08F401EE0874FF00109D7
:1022E000FFF76EF8A0EB0800B04200E009E001D370
:1022F000701C50D1E08E0028CDD1E08F0028CAD1CB
:102300003FE0206B216800780873206B401C20633D
:10231000E08E401EE0862EE02068816889070FD598
:10232000E18E69B1B9F1010F0AD1216B097801730E
:10233000206B401C2063E08E401EE0864FF00009B9
:1023400020688168C9070CD0E18F51B1C068A16BCA
:102350000870A06B401CA063E08F401EE0874FF028
:102360000109FFF72DF8A0EB0800B04202D3701C62
:1023700001D010E07EB1E08E0028CDD1E08F0028A2
:10238000CAD142463146204601F08CF928B10127D6
:102390002020606507E0032705E0A06818B92068E1
:1023A000C16880680090012084F85100002084F802
:1023B000500038462CE710B5401EB0F1807F01D3A5
:1023C000012010BD4FF0E02460610F21601701F083
:1023D000B5FB0020A06107202061002010BD7047E0
:1023E0007047000070B590F83C20012A26D00124E7
:1023F00080F83C40022280F83D2003685A689D68BE
:1024000022F070060A6832435A600D4B02689A4205
:1024100008D0B2F1804F05D00A4B9A4202D00A4B45
:102420009A4204D1496825F080031943916080F8ED
:102430003D40002180F83C10084670BD022070BD70
:10244000002C0140000400400008004010B50400CA
:1024500003D094F83D0010B107E0012010BD00202A
:1024600084F83C00204600F01FF8022084F83D006C
:10247000211D206801F0CEF9012084F8460084F87F
:102480003E0084F83F0084F8400084F8410084F85E
:10249000420084F8430084F8440084F8450084F83E
:1024A0003D00002010BD000008B51A4A01681A4816
:1024B00091420ED1816941F40061816180690022FD
:1024C00000F40060009001211920FFF76DF9192038
:1024D0001CE0B1F1804F0BD0104A914207D1C16985
:1024E00041F00201C161C06900F00200009008BD26
:1024F000C16941F00101C161C069002200F0010021
:10250000009001211C20FFF74FF91C20BDE8084076
:10251000FFF73CB9002C01400010024000040040CD
:1025200090F83D10012901D001207047022180F868
:102530003D1000680B49884208D0B0F1804F05D0AB
:102540000949884202D00949884204D1816801F0D2
:102550000701062903D0016841F001010160002054
:1025600070470000002C01400004004000080040BB
:1025700090F83D10012901D001207047022180F818
:102580003D100168CA6842F00102CA6000680B4948
:10259000884208D0B0F1804F05D00949884202D066
:1025A0000849884204D1816801F00701062903D057
:1025B000016841F00101016000207047002C0140DA
:1025C000000400400008004070B5044690F83C004C
:1025D000012817D0012584F83C50022084F83D00E2
:1025E0002068826822F0770222F47F4282600868C5
:1025F000502830D00DDC20284DD005DC98B31028B1
:102600003BD148E0022070BD302844D0402834D16E
:1026100039E0602828D0702806D0B0F5805F2CD033
:10262000B0F5005F29D10AE0CB68D1E9012120682B
:1026300001F026F92068816841F0770109E0CB6854
:10264000D1E90121206801F01BF92068816841F47B
:102650008041816011E0CA684968206801F022F970
:102660005021206807E016E0CA684968206801F038
:102670002AF96021206801F00DF984F83D5000200E
:1026800084F83C0070BDCA684968206801F00AF906
:1026900040212068EFE7226801461046EBE77047CB
:1026A00070B50446006801694FF00005C943890709
:1026B00015D4C168C943890711D4E91E01610120FD
:1026C0002077206880698007204602D0FFF7E7FF67
:1026D00004E000F098F8204600F096F8257720688E
:1026E0000169C943490717D4C168C943490713D4CD
:1026F0006FF004010161022020772068806910F4E6
:10270000407F204602D0FFF7CAFF04E000F07BF8CC
:10271000204600F079F8257720680169C943090748
:1027200016D4C168C943090712D46FF008010161CA
:10273000042020772068C0698007204602D0FFF778
:10274000AEFF04E000F05FF8204600F05DF825776A
:1027500020680169C943C90617D4C168C943C906BD
:1027600013D46FF010010161082020772068C06940
:1027700010F4407F204602D0FFF791FF04E000F004
:1027800042F8204600F040F8257720680169C943E7
:10279000C90708D1C168C943C90704D1891E0161AD
:1027A000204600F033F820680169C943090609D4BE
:1027B000C168C943090605D46FF080010161204654
:1027C000FFF70DFE20680169C943490609D4C168B5
:1027D000C943490605D46FF040010161204600F06D
:1027E00027F820680169C94389060BD4C168C94329
:1027F000890607D46FF0200101612046BDE87040D2
:10280000FFF7EEBD70BD704770470000064910B578
:10281000884208D100F096FE002000F051FE0348E7
:102820008168491C816010BD500800209001002083
:102830007047704770470000F8B50268044610689A
:10284000D168536910F00F0F4FF0000554D003F01A
:10285000010601F4907737435FD0C20705D0CA055F
:1028600003D5226C42F001022264420705D5DA0743
:1028700003D0226C42F002022264820705D5DA07F7
:1028800003D0226C42F004022264020707D501F053
:102890002002324303D0226C42F008022264226CF0
:1028A000002A35D0800604D5880602D5204601F0DE
:1028B00073F820684069216CC0F3801001F00801B2
:1028C0000143204625D001F04FF8206841694906B0
:1028D0001BD5416921F040014161A06BA8B1584965
:1028E0004163A06BFEF772FA002811D0A06B416B18
:1028F00001B0BDE8F040084783060ED58B060CD525
:102900002046BDE8F84001F047B82046FFF792FFA7
:10291000F8BDFFF78FFF2564F8BD266B2023012E3D
:1029200052D1C60650D5CE064ED5106850680090DC
:10293000506940062AD5A16B086840680004000C65
:10294000EAD0A68D8642E7D9E0858869202818D08C
:10295000D06820F48070D0602068416921F00101C6
:1029600041612068416921F04001416184F83E30B5
:1029700025632068C16821F01001C160A06BFEF7DB
:1029800002FAA08DE18D401A81B219E0A08DE18D8F
:10299000401A81B2E08D0028BED00029BCD0D0689A
:1029A00020F49070D0602068426922F001024261F8
:1029B00084F83E3025632068C26822F01002C260AD
:1029C0002046FFF736FFF8BD05062BD50D0629D5A5
:1029D00094F83D002128F6D1A068B0F5805F01D1C0
:1029E0002069B0B1206A411C2162216800784860EA
:1029F000E08C401E0004000CE084E4D12068C16833
:102A000021F08001C1602068C16841F04001C160CF
:102A1000F8BD206A0088C0F308005060206A801C5E
:102A20002062E5E74006F3D54806F1D5D168204697
:102A300021F04001D16084F83D3000F076F8F8BD17
:102A40005939000870B5040004D094F83D00002501
:102A500010B106E0012070BD84F83C50204600F023
:102A600023F8242084F83D002068C16821F4005137
:102A7000C160204600F0ECFF2068016921F490411C
:102A800001612068416921F02A0141612068C16823
:102A900041F40051C1602564202084F83D0084F891
:102AA0003E00002070BD000030B585B000240094C9
:102AB0000194029403940068184988422CD1184864
:102AC000816941F480418161816901F4804104910F
:102AD000816941F0040181618069124D00F00400B8
:102AE00004904FF4007000900220019003200390A6
:102AF00069462846FEF76AFB2815CDE900046946B9
:102B000028460294FEF762FB002211462520FEF7BC
:102B10004BFE2520FEF73AFE05B030BD00380140DF
:102B2000001002400008014070477047FEE701684E
:102B30004A69D24352050FD46FF480624A61002182
:102B400040F8301F202242738173026942F0040270
:102B5000026101730120704700207047F8B50446F8
:102B6000C06A1E460D461746082807D0012805D022
:102B700010F5803F02D0206B122804D12068016834
:102B800041F480710160134600224FF0011120468C
:102B9000009600F057F840B120680068C00502D5E3
:102BA0004FF4007020640320F8BD2069B0F5804F19
:102BB0000ED00620216800EAD51040F0F000086130
:102BC00033463A460B49204600F070F878B902E0E7
:102BD00005F0FE0000E0E8B22168086105493346CF
:102BE0003A46891F204600F061F80028DCD0012019
:102BF000F8BD00000800010070B516460D460446F9
:102C00000DE02046FFF793FF08B1012070BD681C5E
:102C100005D0FEF7D5FB801BA84207D835B1206848
:102C20004069C0434007ECD4002070BD002044F848
:102C3000300F20216173A073216941F020012161CF
:102C40002073E2E72DE9F0471E4690460D46044604
:102C5000C1F30747DDF8209008E0701C06D0FEF7AE
:102C6000AFFBA0EB0900B0420FD876B12068012F6E
:102C700018D0806925EA00000004000C14D000215F
:102C80004145EAD00020BDE8F087002044F8300F2D
:102C900020216173A073216941F02001216120731B
:102CA0000120F0E74069E5E70121E9E72DE9F04778
:102CB0009A4691460E46044600254FF02008C1F37F
:102CC000074725E020684069C043400514D42068C8
:102CD000016841F40071016021686FF4806048610F
:102CE000256384F83D8084F83E50206C40F0040059
:102CF000206484F83C501FE0B9F1FF3F08D0FEF794
:102D00005FFBA0EB0A0149450CD8B9F1000F09D0CF
:102D10002068012F13D0806926EA00000004000C0F
:102D20000BD0CFE744F8305F84F80D80A57320699D
:102D300040F02000206125730120BDE8F087406944
:102D4000EAE770B516460D4604460DE02046FFF74B
:102D5000EEFE08B1012070BD681C05D0FEF730FB07
:102D6000801BA84207D835B120684069C0430006DF
:102D7000ECD4002070BD002044F8300F2021617396
:102D8000A073216941F0200121612073E2E7000076
:102D90003EB500211F48009101911D4A0291026039
:102DA00092158260017301750425D2020561C2612A
:102DB0004160FDF761FE08B1FDF76FFD01200324BE
:102DC0000090CDE9010469461248FDF769FD08B19C
:102DD000FDF763FD02200090019069460D48FDF764
:102DE0005FFD08B1FDF759FD00946946094801945B
:102DF000FDF756FD08B1FDF750FD00956946054801
:102E00000195FDF74DFD002801D0FDF746FD3EBDC3
:102E100000240140E8060020094808B5416941F056
:102E2000010141614069002200F00100009011465B
:102E30000B20FEF7B9FCBDE808400B20FEF7A6BC4E
:102E4000001002402DE9F04385B00025424800956E
:102E5000019502950395816941F0100181618169B5
:102E600001F010010491816941F0200181618169C3
:102E700001F020010491816941F0040181618169BF
:102E800001F004010491816941F0080181618069C8
:102E9000012200F00800314F5403049021463846C7
:102EA000FEF789FADFF8B89040F202480122414665
:102EB0004846FEF780FA009401240326CDE9024635
:102EC000694638460194FEF781F9264F40F2011019
:102ED000CDE90007694602942348FEF777F9CDE96A
:102EE0000045694648460294FEF770F901AACDF8FC
:102EF000008082E8700069464846FEF767F94FF2A5
:102F00000400CDE90007694602944846FEF75EF9E1
:102F1000002201210620FEF747FC0620FEF736FCC2
:102F2000002211460820FEF73FFC0820FEF72EFC89
:102F3000002201211720FEF737FC1720FEF726FCA0
:102F4000002201212820FEF72FFC2820FEF71EFC7E
:102F500005B0BDE8F0830000001002400010014001
:102F6000000C014000002110000801400D4810B580
:102F70000B4901600C49416000214FF4804281609F
:102F8000C0E9031241618161C1610162FEF71EFA6D
:102F9000002803D0BDE81040FDF77FBC10BD000045
:102FA000005400405C070020801A0600104810B54D
:102FB0000E4901604FF48271416000218160C1605F
:102FC0004FF400720161C0E905121022C0E9072127
:102FD000416281620A21C162FEF70AFF002803D024
:102FE000BDE81040FDF759BC10BD000000300140A5
:102FF000B007002010B586B0002418480094019452
:1030000002940394049414490594016041F61F410D
:10301000C0E9011440F2E731C0E903148021C0E99E
:103020000541FFF713FA08B1FDF737FC4FF4805064
:10303000009069460948FFF7C7FA08B1FDF72DFC73
:10304000049404A905480594FFF7CCF9002801D0A1
:10305000FDF723FC06B010BD002C0140080800203D
:1030600010B586B00024174800940194029403948C
:1030700004944FF080410594016041F61F41C0E97E
:10308000011440F6B731C0E9031480218161FFF7D4
:10309000DDF908B1FDF701FC4FF48050009069465E
:1030A0000848FFF791FA08B1FDF7F7FB049404A96B
:1030B00004480594FFF796F9002801D0FDF7EDFBD1
:1030C00006B010BD5008002010B586B00024184886
:1030D00000940194029403940494144905940160AB
:1030E00040F2CF21C0E901146321C0E9031480211B
:1030F0008161FFF7ABF908B1FDF7CFFB4FF48050CA
:10310000009069460A48FFF75FFA08B1FDF7C5FB72
:103110002020CDE9040404A90548FFF763F900283D
:1031200001D0FDF7BAFB06B010BD0000000400405E
:10313000980800200C4810B50A4901604FF4E131AD
:103140004160002181600C22C160C0E904128161EC
:10315000C161FFF777FC002803D0BDE81040FDF700
:103160009CBB10BD0038014020090020FEE7FEE7AF
:103170001FB50FA10522D1E90001CDE9020102A985
:10318000302000F099F805226946102000F028F858
:10319000002069460A5CA52A03D1401CC0B205285C
:1031A000F8D3052802D0012004B010BD0020FBE7B1
:1031B000A5A5A5A5A500000010B5084C00224FF458
:1031C00080612046FEF7F7F8012202212046FEF733
:1031D000F2F8BDE81040642001F01EB9000C014077
:1031E0002DE9F0410D4D16460F46044600220221FE
:1031F0002846FEF7E0F8204601F01AFB04461023AB
:10320000324639460648FEF785FE0122022128464D
:10321000FEF7D1F82046BDE8F0810000000C014027
:10322000B007002070B50A4D04460022022128464E
:10323000FEF7C1F8204601F0FBFAFF2001F0F8FA92
:103240000446012202212846FEF7B5F8204670BD4B
:10325000000C014070B5174C05464FF48066002203
:1032600031462046FEF7A7F820222946A02000F08C
:1032700023F8012231462046FEF79DF80121204621
:10328000FEF794F80028F9D10720FFF7CBFF04469A
:103290000146272000F032F8E00605D5FF21E120A5
:1032A00000F02CF8102070BDA00601D5202070BDC4
:1032B000FF2070BD000C01402DE9F0410D4D164678
:1032C0000F460446002202212846FEF774F82046E5
:1032D00001F0AEFA04461023324639460648FEF79E
:1032E000C6FE012202212846FEF765F82046BDE809
:1032F000F0810000000C0140B007002070B50B4DBC
:103300000E460446002202212846FEF754F82046C5
:1033100001F08EFA0446304601F08AFA01220221B9
:103320002846FEF748F8204670BD0000000C01401A
:103330002DE9F04798461746824600260C46DDF8F0
:10334000209011E02146504600F016F9554607E05E
:1033500019F806000121761C01F07AFA6D1CEDB215
:10336000BD42F5D3641CE4B24445EBD3BDE8F0871D
:1033700010B500218D2001F06BFA0021142001F01E
:1033800067FA0021BDE81040AF2001F061BA0000EB
:1033900070B5802817D2002915DB3F2913DCCB1725
:1033A00001EB5375C5F3C70325F007050124094E4A
:1033B000491B8C4006EBC000012A05D0C15C022AE3
:1033C00005D0A143C15470BDC15C2143FAE76140FF
:1033D000F8E700007802002010B50021AE2001F0CF
:1033E00037FA0021202001F033FA0021102001F0EB
:1033F0002FFA0021B02001F02BFA0021C82001F0A3
:1034000027FA0021084601F023FA0021102001F0DC
:103410001FFA0021402001F01BFA0021812001F059
:1034200017FA0021FF2001F013FA0021A12001F07A
:103430000FFA0021A62001F00BFA0021A82001F0CC
:1034400007FA00213F2001F003FA0021A42001F037
:10345000FFF90021D32001F0FBF90021084601F01B
:10346000F7F90021D52001F0F3F90021F02001F057
:10347000EFF90021D92001F0EBF90021222001F021
:10348000E7F90021DA2001F0E3F90021122001F030
:10349000DFF90021DB2001F0DBF90021202001F021
:1034A000D7F900218D2001F0D3F90021142001F07B
:1034B000CFF90021BDE81040AF2001F0C9B90000EC
:1034C000F0B500210D4BFF260C46002201280FD03D
:1034D00003EBC20580B16F5CC7F1FF076F54521C4C
:1034E000D2B2802AF2D3491CC9B20829EDD3F0BD6B
:1034F00003EBC2056E54F2E76C54F0E7780200204B
:103500000FB4042870B50C46054613D8142C11D8F6
:103510000A4E07AA0A483260069900F0FDFAC4F183
:103520001501074A0020C9B2306050542146284690
:1035300000F072F870BC5DF814FB00008C010020F4
:10354000F801002070B50B4E00242146002000F049
:1035500013F8002506EBC5000121005D01F078F9A4
:103560006D1CEDB2802DF5D3641CE4B2082CECD3B5
:1035700070BD00007802002010B50446B031C8B21A
:10358000002101F065F9102040EA1410002101F03B
:103590005FF904F00F00BDE81040002101F058B9B8
:1035A0002DE9F04F01EB410100EB40004906800698
:1035B000040E203A4FEA1169D0B2164900EB4000E0
:1035C000A046002501EB800B00261BF805704FFA82
:1035D00089FA380601D5012200E0002261B2504686
:1035E000FFF7D6FE7806641C070EE4B2A4EB0800D1
:1035F0000C2809D0761CF6B2082EEAD36D1CEDB269
:103600000C2DE1D3BDE8F08F09F10100444600F034
:10361000FF09F3E77D480008F0B517460C4606465B
:1036200000250CE021463046FFF7BAFF641CE4B2E7
:10363000142C02D90024761CF6B26D1CEDB27A5D12
:10364000002AEFD1F0BD7047F8B5044640684FF44A
:103650008273984217D1A0684FF48065B0F5004F8F
:1036600001D0A8420FD12068066826F04006066007
:103670006068984207D1A068A84204D100920B4626
:103680000022012103E000920B4600228021204607
:1036900000F018F8002804D0606D40F0200060654C
:1036A0000320F8BD38B50B46009204460022802165
:1036B00000F008F8002804D0606D40F0200060653C
:1036C000032038BD2DE9F8431E469146884604463E
:1036D000089DFDF775FE401B351AFDF771FE074684
:1036E00025480068C0F3CB30684338E0701C37D001
:1036F000FDF766FEC01BA84203D215B1009860B367
:103700002CE02068416821F0E00141606068B0F57C
:10371000827F0BD1A068B0F5004F02D0B0F5806F6A
:1037200004D12068016821F040010160A06AB0F571
:10373000005F09D12068016821F400510160206810
:10374000016841F400510160012084F8510000201B
:1037500084F850000320BDE8F8830025401E009047
:103760002068816838EA010004D000214945BDD1B4
:103770000020F0E70121F9E7F40100207047FDF790
:10378000ADBF30B593B028216846FCF7E2FC1421A8
:103790000AA8FCF7DEFC002501200F951095119575
:1037A000010412958DE8230004904FF4E010CDE958
:1037B0000810022407946846FEF78AF908B172B629
:1037C000FEE70AA90F2081E831004FF48060CDE9BF
:1037D0000D0502210AA8FEF78FF808B172B6FEE7C0
:1037E0004FF4004011900F940FA8FEF70FF8002837
:1037F00001D072B6FEE713B030BD70470148FEF746
:103800004FBF0000080800200148FEF749BF000034
:1038100050080020F0B50268164B174C174D4FF0BA
:103820008047984205D0B84203D0A04201D0A842B8
:1038300003D122F070064A683243984205D0B8425C
:1038400003D0A04201D0A84203D122F44074CA6838
:1038500022434C6922F08002224302608A68C262DD
:103860000A688262984201D10969016301214161BC
:10387000F0BD0000002C01400004004000080040A2
:1038800010B5846842EA032224F47F440A432243A9
:10389000826010BD826822F070020A4342F0070184
:1038A0008160704710B5036A046A24F00104046261
:1038B000846924F0F00444EA021423F00A020A4363
:1038C0008461026210BD10B5036A23F01003036225
:1038D0008369046A23F4704343EA023224F0A003AC
:1038E00043EA01118261016210BD000070B5184DFC
:1038F0004FF48064002221462846FDF75CFD052236
:1039000014493020FFF7D8FC052212492A20FFF77E
:10391000D3FC01212120FFF7F1FC01212220FFF738
:10392000EDFC15212420FFF7E9FC32212520FFF7CB
:10393000E5FC0F212620FFF7E1FC0E212020FFF7F8
:10394000DDFC21462846BDE870400122FDF733BD6D
:10395000000C01407848000810B5406A0021C1857C
:10396000C184FEF767FF10BD0168CA6822F4907237
:10397000CA6001684A6922F001024A61016B0129AB
:1039800004D10168CA6822F01002CA60202180F8C0
:103990003E1000210163704708B590F83E102229BF
:1039A00001D0022008BD82684FF480539A4201D1B1
:1039B000016921B1816A9A421BD04AB10AE00268CA
:1039C000816A5268C2F308020A80816A891C08E091
:1039D000026972B10268526802F07F020A70816A5D
:1039E000491C8162C18D491E0904090CC18503D09F
:1039F00019E002685268F1E70168CA6822F0200203
:103A0000CA600168CA6822F48072CA6001684A69A3
:103A100022F001024A61202180F83E10016B012949
:103A200003D0FFF781F8002008BD00210163016881
:103A3000CA6822F01002CA6001680A68D20602D57C
:103A40000A6849680091818DFEF7F3FEEBE70000FC
:103A500070B5044600680169E26821F440511143E1
:103A600001612169A0680843616908432168CA6847
:103A700041F20C639A430243CA6020684169A2691B
:103A800021F44071114341611E492068884202D1EE
:103A9000FDF7D8FF01E0FDF7C5FF00EBC00101EB2A
:103AA0000012606864218000B2FBF0F3B3FBF1F315
:103AB0006FF018067343B2FBF0F5B2FBF0F605EBBE
:103AC0008305322303EB0515B5FBF1F5B6FBF1F6E3
:103AD00005F0F00505EB0615B2FBF0F6B2FBF0F0D1
:103AE000B0FBF1F06FF01802504306EB800003EBDF
:103AF0000010B0FBF1F0216800F00F00284488604E
:103B000070BD0000003801400148FEF795BE00007E
:103B100020090020FEE7000037B514460846064B92
:103B20006A46214600F0DCF804466946002000F0B1
:103B30006EFC20463EBD00000F4400080907090E38
:103B4000002804DB00F1E02080F80014704700F04A
:103B50000F0000F1E02080F8141D704702E008C853
:103B6000121F08C1002AFAD170477047002001E0F7
:103B700001C1121F002AFBD1704700002DE9FF5F31
:103B8000DDE90220010DDDF838B0024318D044F61B
:103B90001050A1F2FF3141430D140F98012820D09D
:103BA000A5EB0B00401C5FEA000A4FF00004474EF3
:103BB000DFF81C91A046504616D5CAF1000728E050
:103BC0000F98012443A2012808D0002100980F9BE0
:103BD000C0E90021C0E90243BDE8FF9F6FEA0B0185
:103BE000F4E7CBF10000DEE7074612E0F80707D064
:103BF0002246334640464946FCF7A4FB80468946A8
:103C00002246334610461946FCF79CFB04460E46F6
:103C10007F10002FEAD1DDE90201BAF1000F424620
:103C20004B4602DAFCF78EFB01E0FCF7FDFB044695
:103C30000E460022284BFCF77FFC03D84FF0FF30E4
:103C4000014607E00022254B20463146FCF7D3FA17
:103C5000FCF759FC102409E0002C0ADB0A2200239F
:103C6000FCF798FA019B30321A55641E50EA0102A3
:103C7000F2D1641C019AC4F1110314440F9A012A71
:103C800003D0012208430DD10AE0084304D00020EC
:103C90004FF0110B0F9080E7A3EB0B056D1E0DE0AD
:103CA0005B4504DD4FF0000205F1010504E003DA95
:103CB0004FF00002A5F10105002AECD000980F9901
:103CC000C0E90231C0E9004586E700000000244059
:103CD0000000F03F300000000000F0430000E03F33
:103CE0002DE9FF4F95B09B468946064600250FE219
:103CF000252877D100242746F84A0121059400E0C1
:103D0000044316F8013F203B01FA03F01042F7D1BB
:103D100030782A2811D06FF02F033078A0F13002CC
:103D2000092A16D8059A44F0020402EB820203EB3A
:103D300042021044761C0590EFE759F8042B0592D7
:103D4000002A03DA504244F40054059044F002047F
:103D5000761C30782E2816D116F8010F44F0040492
:103D60002A280DD06FF02F023078A0F13003092BF4
:103D700009D807EB870302EB4303C718761CF3E768
:103D800059F8047B761C30786C280FD006DC4C2860
:103D900017D068280DD06A2814D104E0742810D0F8
:103DA0007A280FD10DE044F400140AE044F48014A2
:103DB00001E044F440147278824202D104F5801488
:103DC000761C761C307866280BD013DC582877D008
:103DD00009DC002875D04528F6D04628F4D04728BD
:103DE0001AD19DE118E0632835D0642879D0652880
:103DF00012D195E1702873D008DC6728F1D06928CA
:103E00006FD06E280DD06F2806D1B5E073282CD066
:103E1000752875D0782874D05A46179990476D1C2C
:103E200075E1C4F30250022809D003280DD0D9F857
:103E3000001004280DD00D6009F1040967E1D9F8DC
:103E40000010EA17C1E90052F6E7D9F800100D801A
:103E5000F2E70D70F0E719F8041B8DF80010002050
:103E60008DF80100EA46012003E059F804AB4FF059
:103E7000FF3061074FF0000102D40DE008F10101AD
:103E80008846B9420FDA8045F8DB1AF80810002995
:103E9000F4D108E008F1010188468142FADB1AF802
:103EA00008100029F6D105985B46A0EB08072146CB
:103EB0003846179A00F094FA284400EB080507E00A
:103EC0004DE029E10DE01AF8010B5A461799904789
:103ED000B8F10108F7D25B4621463846179A13E13C
:103EE00042E00A220092C4F302524FF0000A022A72
:103EF00008D059F804CB032A4FEAEC710AD00DE040
:103F000029E02AE009F1070121F00702F2E802C1E5
:103F1000914609E00FFA8CFC4FEAEC71042A03D1B8
:103F20004FFA8CFC4FEAEC71002907DA0A460021AF
:103F3000DCF1000C61EB02012D2202E0220504D528
:103F40002B228DF80420012203E0E20701D0202279
:103F5000F7E7904659E00A2102E010220DE0102117
:103F60004FF0000A00910BE010224FF0000A44F0DD
:103F700004040827009203E008224FF0000A009290
:103F8000C4F30252022A05D059F804CB0021032AB7
:103F900008D009E009F1070121F00702F2E802C1A7
:103FA000914605E01FFA8CFC042A01D10CF0FF0CAD
:103FB0004FF00008220728D5702806D0009B83F018
:103FC000100353EA0A0305D00EE040228DF80420C6
:103FD000012208E05CEA010206D030228DF80420BC
:103FE0008DF8050002229046009B83F0080353EAF7
:103FF0000A030AD15CEA010201D1620705D5302229
:104000008DF804204FF001087F1E582804D034A0FA
:1040100003900EA802900DE036A0F9E753466046E3
:10402000009AFCF7B7F884460398825C0298401E19
:10403000029002705CEA0100F0D1029806A9081A09
:1040400000F1200A600702D524F4803400E0012743
:10405000574502DDA7EB0A0000E0002000EB0A0153
:10406000009005984144401A0590E00306D45B4651
:104070002146179A059800F0B3F90544002706E099
:1040800001A85A46C05D179990476D1C7F1C474593
:10409000F6DBE0030CD55B462146179A059800F045
:1040A0009FF9054404E030205A46179990476D1C4B
:1040B0000099481E00900029F5DC08E0029802995A
:1040C0005A460078491C0291179990476D1CBAF125
:1040D0000001AAF1010AF1DC65E1000009280100F4
:1040E000303132333435363738396162636465666E
:1040F0000000000030313233343536373839414230
:10410000434445460000000000F058F90544761C81
:10411000307800287FF4ECAD19B02846BDE8F08F68
:10412000620700D4062709F1070222F0070CFCE819
:104130000223E14603F000485FEA080C02D00FF2C8
:10414000702C0DE05FEA045C02D50FF2682C07E0EA
:104150005FEAC47C02D00FF2602C01E0AFF2700C79
:104160004FF0FF3823F00043CDF850C065280CD045
:1041700006DC452809D046281DD047283DD13DE022
:10418000662818D067287ED138E00021112F01DB86
:10419000112000E0781CCDE9000106A90EA8FFF768
:1041A000EDFCDDE90F010E9A03910021009207F169
:1041B000010A04914DE04FF000400097CDE9011055
:1041C00006A90EA8FFF7DAFCDDE90F0203920E9BA9
:1041D00011990022DDF80CA00093049211B9791C0A
:1041E00000EB010AB7EB0A0004D4C0F1FF3007F17D
:1041F000010A0490AAEB0700019044E0012F00DAC5
:1042000001270021112F01DD112000E03846CDE902
:10421000000106A90EA8FFF7B1FCDDE90F010E9A17
:104220000391002104910092BA4621070CD403990E
:10423000514500DA8A46BAF1010F05DD009AAAF16C
:104240000101515C302908D0B84202DA10F1040FA4
:1042500006DA0121CDE9011015E0AAF10101E9E733
:10426000002805DC049901440491AAEB000102E056
:10427000411C514500DD8A460499401A401C0190BA
:104280004FF000400290200704D40198504501DB14
:10429000CDF8048000208DF84F0002980DF14F07F3
:1042A000B0F1004F25D02B200E9002984FF002085D
:1042B00000280CDA404202902D200E9007E00A21DF
:1042C0000298FBF751FF3031029007F8011DB8F159
:1042D0000001A8F10108F2DC02980028EFD1791E54
:1042E0000E980870307800F0200040F0450007F884
:1042F000020D12A8C01B00F107081498007800B145
:10430000012000EB0A01019801EBE071059841449E
:10431000401A401E0590E00306D45B462146179ADA
:10432000059800F05DF805441498007818B15A46D5
:10433000179990476D1CE00324D55B462146179AD8
:10434000059800F04DF805441CE00498002807DBB0
:10435000DDE90301884203DD0098405C179901E024
:10436000179930205A469047049805F10105401CE2
:1043700004900198401E019004D12E205A461799AE
:1043800090476D1CBAF10001AAF1010ADDDC05E0DD
:1043900017F8010B5A46179990476D1CB8F10001A8
:1043A000A8F10108F4DC5B462146179A0598ABE6B4
:1043B0002D0000002B000000200000002DE9F0413E
:1043C000044600251E461746880404D405E03946F5
:1043D0002020B0476D1C641EF9D52846BDE8F08149
:1043E0002DE9F041044600251E469046C80301D53C
:1043F000302700E02027880404D505E041463846F0
:10440000B0476D1C641EF9D52846BDE8F0810A68E6
:10441000531C0B601070704703E00721491EC9B29E
:10442000FCD2401EF9D2704708B5FDF75FF9FFF7DF
:10443000A8F9FEF707FDFEF7EFFCFEF7B7FDFEF764
:10444000A7FCFEF741FEFEF775FEFEF78FFDFEF7B7
:10445000D1FDFEF705FEFEF7AFFEFEF7BDFFFEF74E
:1044600087FFFFF76FF80020FFF72AF8B5A20D21AC
:104470000120FFF7D1F8B5A20D210320FFF7CCF8FA
:10448000FFF760F8B4480021009007233F22084658
:10449000FEF74EFF4FF4FA60FCF7F4FD4FF4FA74A8
:1044A00009E0AEA201210220FFF7B6F8FFF74AF8B3
:1044B0002046FCF7E7FDFEF75BFE0028F1D1FEF792
:1044C000FFFFAAA201210320FFF7A6F84FF47A709C
:1044D000FCF7D8FDFFF736F8FFF708FAFEF758FCAF
:1044E000A748FEF71DF8A748FEF742F80020FEF7A0
:1044F000E7FFA548FCF71CFCA44D0226A44C0027AE
:10450000606908B1A3A200E0A3A201210020FFF787
:1045100083F8E87910B1A1A20E2101E0A0A2122136
:104520000020FFF779F89FA201210220FFF774F81D
:104530009DA208210220FFF76FF89DA2092100200B
:10454000E368FEF7DDFF9CA2092101202369FEF745
:10455000D7FFEB789AA209210320FEF7D1FF2B7930
:1045600099A209210420FEF7CBFFE068022801DDB3
:10457000E66002E0002800DAE760E0682062C0B28E
:1045800093A20321FFF748F8E06893A2401C606201
:10459000C0B20321FFF740F8E06891A2801CA0623E
:1045A000C0B20321FFF738F8E06802287ED0012866
:1045B0007DD00028A4D12069022801DC0A302061C6
:1045C0000B2801DB0A3820612063042801DD0A384A
:1045D000206394F8300084A20E21FFF71DF82069B3
:1045E000401C6063042801DD0A38606394F83400DD
:1045F0007FA20E21FFF710F82069801CA063042819
:1046000001DD0A38A06394F838007AA20E21FFF782
:1046100003F82069C01CE063042801DD0A38E06368
:1046200094F83C0075A20E21FEF7F6FF2069001DEC
:104630002064042801DD0A38206494F840006DA24B
:104640000E21FEF7E9FF2069401D6064042801DDAA
:104650000A38606494F844006AA20E21FEF7DCFF79
:104660002069801DA064042801DD0A38A06494F844
:10467000480066A20E21FEF7CFFF2069C01DE0644E
:10468000042801DD0A38E06494F84C0059A20E2198
:10469000FEF7C2FF206908302065042801DD0A38D2
:1046A000206594F850005AA20E2101E010E02CE0A1
:1046B000FEF7B2FF206909306065042801DD0A3881
:1046C000606594F8540053A20E21FEF7A5FF17E78A
:1046D0002069022801DD266102E0002800DA276156
:1046E0002069E062C0B24DA20E21FEF795FF20695D
:1046F0004BA2401C2063C0B20E21FEF78DFF206943
:1047000048A2801C6063C0B2DEE72069022801DD98
:10471000266102E0002800DA27612069E062C0B269
:1047200041A20E21FEF778FF20693DA2401C2063C4
:10473000C0B20E21FEF770FF20693CA2801C6063AE
:10474000C0B2C1E757494E44000000004252454103
:104750004B45525300000000000000204E52465FBF
:10476000544553545F4641494C0000004E52465F49
:10477000544553545F7375636365656465640000F5
:104780009808002050080020E80600207806002045
:104790009001002052000000460000004900000087
:1047A000560000003E0000002D2D2D2D3E00000083
:1047B0006D3D2564000000006F3D25640000000091
:1047C000783D256400000000793D2564000000006C
:1047D0004D4F56490000000041444A55000000007A
:1047E0004D414E490000000070726F7400000000DF
:1047F00075700000706C616300000000646F776E7C
:104800000000000066726565000000006D696400CC
:10481000746F7500706C6163650000004661730021
:104820004D494400534C4F005247480054495900E9
:1048300001B582B010200090012301AA02A903480B
:10484000FDF7C8FC9DF804000EBD0000B007002075
:1048500008B5074A01B14021117050700A2000903C
:104860000223034A78210348FCF774FE08BD0000C8
:10487000880100205C070020023A010101000000CD
:10488000000000000000000000000000003F4000A9
:104890000000000000000030004000300040000038
:1048A0000009000BC03D000BC03D00090018C024EA
:1048B000407FE0224031800000180024C01B000D22
:1048C000803240018003801C4027401C800740004C
:1048D0004010006000000000000000000000000028
:1048E0000000001F80204040200000402020401F8A
:1048F0008000000000090006001F8006000900007B
:1049000000040004003F80040004000000001000C8
:104910006000000000000000000400040004000427
:104920000004000000000000400000000000000043
:1049300000002001C006003800400000001F802059
:1049400040204020401F800000000010403FC00079
:10495000400000000018C0214022402440184000C0
:104960000010802040244024401B80000002000DE5
:104970000011003FC0014000003C8024402440243E
:1049800040238000001F80244024403440038000E6
:10499000003000200027C03800200000001B8024C9
:1049A00040244024401B8000001C0022C0224022E2
:1049B000401F8000000000000008400000000000D0
:1049C000000000000004600000000000000000047F
:1049D000000A001100208040400900090009000978
:1049E000000900000000004040208011000A00047F
:1049F000001800200023402400180000001F802021
:104A000040274029401F400000004007C039000FE8
:104A10000001C0004020403FC0244024401B8000D3
:104A2000001F802040204020403080000020403F78
:104A3000C0204020401F80000020403FC024402E66
:104A40004030C0000020403FC024402E0030000015
:104A5000000F001080204022403380020020403FA1
:104A6000C0040004003FC02040204020403FC02040
:104A700040204000000060202020203FC020002077
:104A80000020403FC024400B0030C0204020403F69
:104A9000C020400040004000C03FC03C0003C03C7C
:104AA000003FC0000020403FC00C4023003FC0201A
:104AB000001F802040204020401F80000020403FF9
:104AC000C024402400180000001F80214021402005
:104AD000E01FA0000020403FC02440260019C00075
:104AE0004018C02440244022403180000030002083
:104AF000403FC020403000000020003F80004000C8
:104B0000403F80200020003E0001C0070038002008
:104B100000380007C03C0007C038000000204039C2
:104B2000C0060039C0204000002000384007C038CF
:104B30004020000000304021C02640384020C00006
:104B400000000000007FE0402040200000000070D6
:104B5000000C000380004000000000402040207F47
:104B6000E0000000000000200040002000000000E5
:104B700000001000100010001000100010000000D5
:104B80000040000000000000000000028005400519
:104B90004003C0004020003FC004400440038000A8
:104BA00000000003800440044006400000000003B1
:104BB00080044024403FC0004000000380054005C1
:104BC0004003400000000004401FC0244024402057
:104BD00000000002E0055005500650042020403F30
:104BE000C00440040003C000400000044027C0008F
:104BF000400000000000100010041027E00000003A
:104C00000020403FC00140070004C0044020402075
:104C1000403FC000400040000007C0040007C0043F
:104C20000003C00000044007C00440040003C000AB
:104C3000400000038004400440038000000410078B
:104C4000F00450044003800000000003800440048E
:104C50005007F00010044007C002400400040000A8
:104C600000000006400540054004C00000000004AC
:104C7000001F800440004000000400078000400442
:104C80004007C000400400070004C0018006000483
:104C900000060001C0070001C00600000004400635
:104CA000C0010006C0044000000410071004E00129
:104CB00080060004000000044005C00640044000D7
:104CC000000000000004007BE04020000000000025
:104CD000000000FFF000000000000040207BE00426
:104CE0000000000000400080004000200020004044
:104CF00000000000000000000000000000000000B4
:104D000000000000000000000000000000000000A3
:104D10000000000000000000000000000000000093
:104D20000000000000000000000000000000000083
:104D3000000000000000000006000000000000006D
:104D40001E00000000000000DE0000000000000067
:104D5000D800000000000000D800000000000000A3
:104D6000D800000000000000DE000000000000008D
:104D7000FE00000000000000F6000000000000003F
:104D800072000000000000000000000000000000B1
:104D90007C00000000000000FE0000000000000099
:104DA000C600000000000000C60000000000000077
:104DB000C600000000000000FE000000000000002F
:104DC0007C00000000000000000000000000000067
:104DD0001E00000000000000DE00000000000000D7
:104DE000D600000000000000D60000000000000017
:104DF000D600000000000000D60000000000000007
:104E0000DE40000000000000FE6000000000100016
:104E10006C70000000003000007800000000F0001E
:104E20007C7C00000007F000FE7E0000003FF000E8
:104E3000C67F000001FFF000C67F80000FFFF0007A
:104E4000C67FC0007FFFF000FE7FE003FFFFF000A1
:104E50007C7FF03FFFFFF000027FF83FFFFFF00094
:104E6000067FFC3FFFFFF0001E7FFE3FFFFFF000CC
:104E7000BC7FFF3FFFFFF000E07FFFBFFFFF800030
:104E8000F87FFFFFFFFC00003E7FFFFFFFE0000018
:104E90000E7FFFFFFF000000B87FFFFFF80000005B
:104EA000E07FFFFFF0000000FE7FFFFFF00000004A
:104EB0001E7FFFFFF0000000027FFFFFF0000000F8
:104EC000007FEFFFF0020000067FE7FFF002000026
:104ED0000E7FE3FFF00200001C7FE1FFF8030000FB
:104EE000BA7FE0FFFC030000F67FE07FFE03800056
:104EF000E67FE03FFF038000F67FE03FFF83C000D6
:104F00003E7FE03FFFC3C0000E7FE03FFFE3E000D5
:104F1000027FE03FFFF3E000007FE03FFFFBF00097
:104F2000027FE03FFFFFF000667FE03FFFFFF800F9
:104F3000F67FE03FFFFFF800D67FE03FFFFFFC0079
:104F4000D67FF07FFFFFFC00D67FF8FFF7FFFE0063
:104F5000D67FFFFFF3FFFE00DE3FFFFFE1FFFF0014
:104F60008C3FFFFFE0FFCF00401FFFFFC07FC780E7
:104F7000C01FFFFFC03FC380C00FFFFF801FC1C025
:104F8000FE07FFFF000FC0C0FE03FFFE0007C0606A
:104F9000C001FFFC0003C020C0007FF00001C00082
:104FA00086000F800000C0001600000000004000D6
:104FB000D600000000000000D60000000000000045
:104FC000D600000000000000D60000000000000035
:104FD000D600000000000000D0000000000000002B
:104FE000C0000000000000000600000000000000FB
:104FF0001E00000000000000DE00000000000000B5
:10500000D800000000000000D800000000000000F0
:10501000D800000000000000DE00000000000000DA
:10502000DE00000000000000F600000000000000AC
:1050300072000000000000000000000000000000FE
:105040006200000000000000F60000000000000008
:10505000F600000000000000D60000000000000084
:10506000D600000000000000D60000000000000094
:10507000DE000000000000008C00000000000000C6
:105080000000000000000000000000000000000020
:105090000000000000000000000000000000000010
:1050A0000000000000000000000000000000000000
:1050B00000000000000000000000000000000000F0
:1050C00000000000000000000000000000000000E0
:1050D00000000000000000000000000000000000D0
:1050E00000000000000000000000000000000000C0
:1050F0000000000000000000000102030406070891
:105100000900000000010203040000002C51000807
:1051100000000020F801000088060008EC5100089B
:10512000F8010020700B00006C3B000814010130F6
:1051300002374072047206720743278012E2332757
:105140009C360C4380A7F0363E07C1E7E02D7FDF99
:10515000EFF1082CFFDFF7083E01FFCFFBF0082539
:10516000E7F86C603F03FFF7FC2638081BFEE748B2
:105170003607FFFFFF7F1E3FFE1FFFB710273FFFD1
:10518000CFFF97C01E9FFFC7FFCB382F07FFC3FF7E
:10519000E1FC304BE9FF503CF0FFFC681CF03FFCA9
:1051A0005027063FF01FF6203E3C0FF78FC6A52C78
:1051B000F3C60FA01303FB2A07081308F81A0750B9
:1051C00011137C781A03081403F0301A0108423EC8
:1051D00012E02A014B111948516908195001645A0B
:0C51E00002040144320182101324F40088
:04000005080000ED02
:00000001FF
